:020000040800F2
:10000000009000206D56000841530008435300083B
:1000100000000000000000000000000000000000E0
:100020000000000000000000000000004553000830
:10003000000000000000000047530008495300087A
:10004000BD560008BD560008BD560008BD56000844
:10005000BD560008BD560008BD560008BD56000834
:10006000BD56000851530008BD560008BD56000893
:100070006153000881530008715300088953000838
:10008000BD560008BD560008BD560008BD56000804
:10009000BD560008BD560008BD560008995300081B
:1000A000BD560008BD560008BD560008BD560008E4
:0C00B000BD560008BD560008BD560008F3
:1000BC0010B5064C2378002B07D1054B002B02D032
:1000CC00044800E000BF0123237010BD780000201D
:1000DC0000000000685F0008044B10B5002B03D033
:1000EC000349044800E000BF10BDC04600000000FA
:1000FC007C000020685F000802B471464908490082
:10010C00095C49008E4402BC7047C04603B471467A
:10011C00490840004900095A49008E4403BC704705
:10012C00002243088B4274D303098B425FD3030A2A
:10013C008B4244D3030B8B4228D3030C8B420DD33D
:10014C00FF22090212BA030C8B4202D312120902CB
:10015C0065D0030B8B4219D300E0090AC30B8B4209
:10016C0001D3CB03C01A5241830B8B4201D38B03B7
:10017C00C01A5241430B8B4201D34B03C01A52415C
:10018C00030B8B4201D30B03C01A5241C30A8B429F
:10019C0001D3CB02C01A5241830A8B4201D38B028A
:1001AC00C01A5241430A8B4201D34B02C01A52412E
:1001BC00030A8B4201D30B02C01A5241CDD2C309A0
:1001CC008B4201D3CB01C01A524183098B4201D31C
:1001DC008B01C01A524143098B4201D34B01C01A07
:1001EC00524103098B4201D30B01C01A5241C3087F
:1001FC008B4201D3CB00C01A524183088B4201D3EE
:10020C008B00C01A524143088B4201D34B00C01AD9
:10021C005241411A00D20146524110467047FFE745
:10022C0001B5002000F0F0F802BDC0460029F7D05F
:10023C0076E7704703460B437FD4002243088B427A
:10024C0074D303098B425FD3030A8B4244D3030B51
:10025C008B4228D3030C8B420DD3FF22090212BA16
:10026C00030C8B4202D31212090265D0030B8B4292
:10027C0019D300E0090AC30B8B4201D3CB03C01A7C
:10028C005241830B8B4201D38B03C01A5241430B57
:10029C008B4201D34B03C01A5241030B8B4201D347
:1002AC000B03C01A5241C30A8B4201D3CB02C01AB2
:1002BC005241830A8B4201D38B02C01A5241430A2A
:1002CC008B4201D34B02C01A5241030A8B4201D319
:1002DC000B02C01A5241CDD2C3098B4201D3CB01C0
:1002EC00C01A524183098B4201D38B01C01A52416F
:1002FC0043098B4201D34B01C01A524103098B4273
:10030C0001D30B01C01A5241C3088B4201D3CB005D
:10031C00C01A524183088B4201D38B00C01A524140
:10032C0043088B4201D34B00C01A5241411A00D2F0
:10033C0001465241104670475DE0CA0F00D0494259
:10034C00031000D34042534000229C4603098B42C9
:10035C002DD3030A8B4212D3FC22890112BA030A51
:10036C008B420CD3890192118B4208D389019211D3
:10037C008B4204D389013AD0921100E08909C30958
:10038C008B4201D3CB01C01A524183098B4201D35A
:10039C008B01C01A524143098B4201D34B01C01A45
:1003AC00524103098B4201D30B01C01A5241C308BD
:1003BC008B4201D3CB00C01A524183088B4201D32C
:1003CC008B00C01A5241D9D243088B4201D34B0047
:1003DC00C01A5241411A00D20146634652415B1089
:1003EC00104601D34042002B00D54942704763466A
:1003FC005B1000D3404201B5002000F005F802BDAF
:10040C000029F8D016E770477047C046002B11D171
:10041C00002A0FD1002900D1002802D00021C943A5
:10042C00081C07B4024802A14018029003BDC04644
:10043C00D9FFFFFF03B4684601B5029800F006F837
:10044C00019B9E4602B00CBC7047C046F0B55746A7
:10045C004E464546DE46E0B5040083B00D0092469C
:10046C0099468B422FD82CD04946504600F0D8FEE6
:10047C0029000600200000F0D3FE331A9846203BDA
:10048C009B4600D574E053465A4693401F00534692
:10049C00424693401E00AF4229D826D05B46A41B8F
:1004AC00BD41002B00DA79E0002200230092019379
:1004BC0001235A46934001930123424693400093F3
:1004CC0019E08242D0D900220023009201930C9BA8
:1004DC00002B01D01C605D600098019903B03CBCFE
:1004EC0090469946A246AB46F0BDA342D6D900220F
:1004FC000023009201934346002BE8D0FB077208BF
:10050C001A4346467B080EE0AB4201D1A2420CD8FE
:10051C00A41A9D41012024196D410021013E24188B
:10052C004D41002E06D0AB42EED9013E24196D414F
:10053C00002EF8D15B460098019900196941002BF7
:10054C0022DB2B005A46D3402A004446E2401C00D2
:10055C005B461500002B2CDB26009E40330026004A
:10056C004746BE403200801A994100900191AEE797
:10057C00424620239B1A5246DA40414613004A4613
:10058C008A4017001F4382E7424620239B1A2A0009
:10059C0046469A402300F3401343D5E742462023B6
:1005AC0000219B1A0022009101920122DA40019253
:1005BC0082E74246202326009B1ADE402F00B446D9
:1005CC00974066463B003343C9E7C046F0B55746F3
:1005DC004546DE464E46E0B50C0398464E00230BCE
:1005EC0087B0070092469B46760DCD0F002E6BD040
:1005FC006D4B9E4235D080245B46420F2404DB00B9
:10060C0014431C43C3009946684BA3469C460023E5
:10061C0000276644029343461C035A00DB0F5046E6
:10062C00240B520D984600D176E05F4B9A426DD068
:10063C008023410F1B040B435C49E4008C461C4394
:10064C00C300002062444146B6186940721C0191F7
:10065C00944607430F2F00D9B0E0554ABF00D2593A
:10066C0097465B460343994600D087E000239B46A0
:10067C00023308270293CEE742460192022867D044
:10068C00032800D10EE2012800D062E100230024EF
:10069C000022994601990140CDB2002112030B0DA5
:1006AC00120B1B051343434A240513401C436400DF
:1006BC00ED0764082C434846210007B03CBC90462B
:1006CC009946A246AB46F0BD034399464FD05B46D4
:1006DC00002B00D189E1584600F084FD03000B3B50
:1006EC001C2B00DD7AE11D22D31A3A0001005C4676
:1006FC00DA4008398C4013008F4023439B46B9469F
:10070C0000232D4E0027361A029384E753462343C9
:10071C002AD10024022096E75346234320D0002CF4
:10072C0000D157E1200000F05DFD03000B3B1C2BBA
:10073C0000DD49E11D21CB1A51460200D940534638
:10074C00083A944093400C431B4A121A00207AE753
:10075C000125019B144C1D400023002299469CE767
:10076C000024002201206EE7534603206BE7002390
:10077C009B4601330427002602934CE70323814652
:10078C000C27029347E78022002300251203994689
:10079C00054C82E75C464B4602986FE75C464B463D
:1007AC00019502986AE7C046FF07000001FCFFFFB5
:1007BC00805F0008FFFF0F800DFCFFFF4A46494693
:1007CC00170C1A0C1B041B0C08041900000C4143D9
:1007DC001500884619007D43794303958946290005
:1007EC00150045434D44029545462D0CAA46029DE5
:1007FC005544A94506D98A46802149028946CA44EE
:10080C0051460391290C0491414609042D04090C0D
:10081C0088462900250C24044144240C0591210010
:10082C0041438846210079438A46684341465044F7
:10083C008146080C48446F43824503D98021490204
:10084C0089464F44010C894639004944029141467E
:10085C000F0404993F0C88460004C019804441469B
:10086C00049159460F0C0904090C884659438A46D1
:10087C0039005143894641464A435146090C8B463F
:10088C007B43D2185A44934203D980235B029B4684
:10089C00D94451460904090C8A46414661437C43BC
:1008AC00130C12044B445244A1468A463C00414668
:1008BC006C434D4351464D440F0C7D19A94503D94A
:1008CC008021490288464444049F0399B846414418
:1008DC008B468345804141428846514608042F048B
:1008EC00000C3F18584602991018894690429241C4
:1008FC004F44BA46524299469346C244D144CB44E3
:10090C008F42BF41C245894199459B4193459241D4
:10091C007F4249422D0C52420F435B4213437F19D5
:10092C00FF185B463C19DB0D059A64021C4343021D
:10093C0013435D1EAB415A46C00D03435202134391
:10094C00E20156D501205A0803401343E207134332
:10095C0064085A48604400284DDD5A0709D00F221C
:10096C001A40042A05D01A1D9A429B415B42E41896
:10097C001300E20104D58020514AC00014406044A9
:10098C00504A904200DDE3E60125DB0862071A437A
:10099C006402019B9146220B4405640D1D407CE6CC
:1009AC00802259461203114208D0144206D1224328
:1009BC001203120B45469946434C6EE65B461A43AE
:1009CC001203120B404C68E603005446283B9C4033
:1009DC000023B9E600F006FC2030A6E60300283B15
:1009EC009F400023BB4699468AE600F0FBFB203073
:1009FC0074E6B446ADE701252A1A382A06DD019BB8
:100A0C0000241D4000230022994646E61F2A21DCC3
:100A1C0020252000AD1A1E00AB40A840D6405D1E1C
:100A2C00AB4130431843D440430709D00F23034054
:100A3C00042B05D00300181D98429B415B42E4181F
:100A4C00230221D50125019B01241D4000230022F6
:100A5C00994622E61F2521006D42281AC140080044
:100A6C00202A1DD05F35AA1A944023435C1EA34153
:100A7C00072503431D400022002D09D00F2200241E
:100A8C001A401800042AD6D1030065076402220B11
:100A9C00DB082B4301259946019B00241D40FCE5F6
:100AAC000024E2E78022012512032243019912035C
:100ABC00120B0D409946044CEFE5C046FF030000B5
:100ACC00FFFFFFFEFE070000FF070000F0B54646E3
:100ADC00D6464F460C03C0B5CD0F4E00610A440FED
:100AEC000C43C1005800400D84468A460F00190380
:100AFC00500F490A0143C648760DA846DB0FD200B9
:100B0C00844500D1D8E001204340AB4200D1A6E09F
:100B1C006046351A002D00DC05E1002810D10B00D1
:100B2C00134300D1D7E06B1E002B00D04BE1534692
:100B3C009F1ABA458041641A4042241A01261EE0CD
:100B4C00B34B9E4248D080231B041943382D00DD43
:100B5C0019E11F2D00DD4CE120230F005B1B100061
:100B6C009A409F40E840531E9A41E940074317437F
:100B7C005346DF1B611ABA45A44164420C1B230285
:100B8C0000D4C5E06402650A002D00D1F6E028000F
:100B9C0000F028FB0300083B1F2B00DDE9E02022BE
:100BAC003C00D21A9D40D4409F4025439E4200DD1C
:100BBC00DBE09E1B731C1F2B00DD0AE1202238009A
:100BCC00D21A290097402C009140D8407A1E9741A8
:100BDC00DC40002601430F437B0709D00F233B4029
:100BEC00042B05D03B1DBB42BF417F42E4191F00C3
:100BFC00230225D5864B01369E4200D1AFE0854BB2
:100C0C0001251C4043466207FF0864027605174322
:100C1C00240B760D1D4000212403230B0C0D7E4A62
:100C2C0024051C431440330523435B00ED075B088C
:100C3C002B43380019001CBC90469946A246F0BDC7
:100C4C00012543466207FF081743E4081D40704B1B
:100C5C009E4236D024037605240B760DDBE76346E3
:100C6C00F31A002B00DC94E06046002835D068486D
:100C7C008642B1D080273F043943382B00DCFDE09D
:100C8C000A43170000217A1E97415744574580416B
:100C9C00091944420C1923023AD55D4B01369E4288
:100CAC0000D14BE101225B4B1C407B0817401F43DA
:100CBC00E207174364088FE70800104300D024E7CD
:100CCC0021E723003B4300D1B9E1802212031443F6
:100CDC002403240B9FE72E007EE70800104300D16D
:100CEC00CAE0581E8446002800D0E7E05244524522
:100CFC00804164184042241817000126230207D5AE
:100D0C000226CFE764462C4300D1B3E12C006746A2
:100D1C007B0700D062E76307FF081F4301254346AA
:100D2C00E4081D4093E7002D78D1751C6D056D0D01
:100D3C00012D00DCF2E05046801A8245BF41651A55
:100D4C007F42ED1B8446280200D48CE05046171AD3
:100D5C00BA4292410C1B5542651B984614E701257B
:100D6C00434600241D40002755E72A4CF61A2C4018
:100D7C0032E73D0028388540002717E7380000F09F
:100D8C0031FA203006E70A43170000217A1E9741FA
:100D9C00EEE6002B00D0E5E0731C9C465B055B0D7A
:100DAC00012B00DC9FE01A4B9C4500D1C5E052445E
:100DBC0052458041641840422418E70752081743F3
:100DCC006408664608E71248854200D185E01D009C
:100DDC00BCE629001F3EF140202B00D17FE04022D1
:100DEC00D31A9D402F437D1EAF4100240F43002694
:100DFC008EE72B000F00203BDF40202D71D04023CD
:100E0C005D1BA9400A43511E8A4100211743AFE6DE
:100E1C00FF070000FFFF7FFFFFFF0F80002E3ED07B
:100E2C00B34EB44545D0802636046D423443382D3C
:100E3C0000DDA8E01F2D00DD1FE120262700504615
:100E4C00761BB740E84007435046B040461EB041C1
:100E5C00EC403843171ABA4292410C1B5242A41A66
:100E6C00664698468BE6644667462C4300D08BE674
:100E7C00002500260027EAE61E00ADE61F2B60DCED
:100E8C002027F81A0F00844687401000D8400743EB
:100E9C0060468240501E8241D9401743F5E6260039
:100EAC005046064305D0ED43002DD3D0904EB445AB
:100EBC00BDD10C001700664698468DE68C488342DF
:100ECC000BD06346D9E6002D00D096E00800104305
:100EDC0000D1E2E00C0017009846854E7CE6002518
:100EEC0080E700218EE7230050460343002E00D0FC
:100EFC00A8E0002B00D1DEE00B00134300D16BE621
:100F0C005244524580416418404224181700230271
:100F1C0000D4FDE6774B66461C405DE62500504646
:100F2C000543002ECFD1002D4FD10C00144300D11E
:100F3C00A0E00C00170098464EE6664600240027F9
:100F4C0085E61F000800203FF8400700202B00D149
:100F5C008EE04020C31A99400A43511E8A41002159
:100F6C00174392E6002E14D126005046064362D059
:100F7C00DB43002B5CD18718974292416418524294
:100F8C00A418664687E650462043441EA041002420
:100F9C0060E7574EB4454ED0802636045B4234434E
:100FAC00382B00DD7FE01F2B00DD8BE02026270097
:100FBC005046F61AB740D84007435046B040461E3C
:100FCC00B0410743DC40BF18D6E70D00154300D1F4
:100FDC0002E65046801A8245BF41651A7F42ED1BDE
:100FEC008446280200D48DE65046171ABA42924124
:100FFC000C1B5242A41A9846EEE50D00154300D185
:10100C006BE750466707C00807438020E4080003DD
:10101C00044207D0CD08054204D12C009846D708CD
:10102C0049070F437B0FE4001C43FF00304ED3E510
:10103C002F4EB445B4D10C0017006646CCE5002702
:10104C000024E8E5002B39D00B00134300D144E712
:10105C00C008670707438020E40800030442E1D07E
:10106C00CB080342DED1D70849070F431C00D9E750
:10107C00002171E700250027E9E52E002700203E1E
:10108C00F740202D2FD04026751BAC4050462043F6
:10109C00441EA04100243843DCE6802400252403B0
:1010AC00134E0027D3E5504620430700781E874196
:1010BC000024BF1860E70C0017008DE50C0017002A
:1010CC000B4E89E51E002700203EF740202B0CD04C
:1010DC004026F31A9C4050462043441EA04107432F
:1010EC000024BF1848E70024D0E70024F3E7C046EB
:1010FC00FF070000FFFF7FFF30B5134D0A034B00C5
:10110C00120B5B0DC90F0024AB4210DD0F4CA34238
:10111C000FDC80240E4D64032243ED1A1F2D0BDDD2
:10112C000C48C31ADA405442002900D114002000A4
:10113C0030BD094BCC18FAE7084CE840A446634490
:10114C009A400243EFE7C046FE0300001D04000076
:10115C003304000013040000FFFFFF7FEDFBFFFFD3
:10116C0070B5002830D0C317C4185C40C50F2000E0
:10117C0000F038F8174B184A1B1AD21A1F2A18DD20
:10118C00164AD21A9440002224035B05240B5B0DF3
:10119C000021100024030A0D240B12052243104CCD
:1011AC001B05224013435B00ED075B082B43190022
:1011BC0070BD210091400A000B21081AC4405B0548
:1011CC002403240B5B0DE3E70025002300240022FD
:1011DC00DEE7C0461E0400003304000013040000C8
:1011EC00FFFF0F801C2101231B04984201D3000C2C
:1011FC0010391B0A984201D3000A08391B0998427E
:10120C0001D30009043902A2105C40187047C04693
:10121C0004030202010101010000000000000000B3
:10122C0010B5002903D1FFF7DDFF203002E0081CC8
:10123C00FFF7D8FF10BDC046104B70B519680500FC
:10124C00002901D1012070BDFA208000FEF768FF53
:10125C000B4B01001868FEF763FF00F063FC041EE3
:10126C00F0D1032DEED8020001202900404200F0FD
:10127C001DFC044B20001D60E5E7C046000000206B
:10128C0010000020040000208023084A5B00116835
:10129C0010B50B4313600020FFF7CEFF041E03D1E3
:1012AC0004F028F8200010BD0124FBE700200240C8
:1012BC00034A0449136809685B1813607047C046F9
:1012CC00C404002000000020014B18687047C04681
:1012DC00C404002070B50400FFF7F6FF0500631C82
:1012EC0002D0044B1B68E418FFF7EEFF401B84424E
:1012FC00FAD870BD0000002080684007C00F70470E
:10130C000023F0B585B0040003930125984200D169
:10131C009AE0856D9D4205D103F020FA23005433E9
:10132C00E5651D70802326685B05B2681A4200D102
:10133C00D0E0B3680025DB0000D4D8E03000FFF724
:10134C00DBFF1023A66D1E4000D0BEE0002800D0AD
:10135C00BBE0A36D7C4A1A4002231343A3652368A8
:10136C009A68D20700D4CBE0276B217E781E874188
:10137C00627E3803D20389030190E0681143A27E98
:10138C0001432069944652031143002866DA470052
:10139C007F0822002C32127852000A4301990A432A
:1013AC0017430197621CD27F012A07D1614600299D
:1013BC0057D180223900520211430191626A002AEE
:1013CC0007D0E02149000A40A16A0A430199114360
:1013DC000191616C226C0A43A16C0A43E16C0A43D3
:1013EC0021003C310978012900D10A43D968574FB3
:1013FC003940019F3943D9601969554F39400A4327
:10140C00072170271A615A698A43616B0A435A6132
:10141C005A69A16BBA4309010A435A6100282AD1BF
:10142C001022996A52420A439A624A4ADB68134074
:10143C00019A9A423DD100230322E365A36D9343A5
:10144C001A0001231343A365280005B0F0BD039BCC
:10145C00013B0393039B002BF9D16AE78027BF0361
:10146C0097E7A16D8C46202167463943A165E16D54
:10147C000A43E265A2E7802292039042D5D10F2065
:10148C00216E0F00B200D7403A0002400F2A0DD057
:10149C000136082EF5D130489A6AE26912181C20E0
:1014AC00920002402C3890400200BCE7012EB7D0CD
:1014BC00F1E71222A36D012593431A001023134365
:1014CC00A365E36D2B43E365BEE7A26D01251343D2
:1014DC00A365B9E7B26821490A401343B360204BB6
:1014EC0020491868FEF71CFE40000390B2E7102359
:1014FC000125A26D1343A365E36D2B43E3651DE743
:10150C001821DA688A43A1680A43DA6061681A69AB
:10151C00880F920080079208024380201A614A00CB
:10152C005208C005824200D11EE780221206914269
:10153C0000D119E70C480D4F02683A40F027BF0361
:10154C0039400A4302600FE7FDFEFFFF1902FEFF60
:10155C0002FCFFDFE7FF3F83FFFFFF3FE8FFFF6F6A
:10156C0010000020400D030008270140FFFFC3FFBF
:10157C00F8B5456904000E00082D0AD00368012057
:10158C00DB680425034204D02023A26D1343A3651A
:10159C00F8BDFFF799FE0700206803682B4226D0A0
:1015AC008023A26D9B001343A365C023C2681B015B
:1015BC001A4214D1A37E002B11D103681B070ED540
:1015CC00FFF79AFE002824D10C21226853688B4324
:1015DC005360A36D134A1A4001231343A3650020E3
:1015EC00237E8342D4D10C2223681A60D0E7731C6B
:1015FC00D3D0FFF769FEC01B864201D3002ECBD19E
:10160C000423A26D5434134363600023032023701E
:10161C00BEE72023A26D1343A3650123E26D1343A0
:10162C00E365DCE7FEFEFFFF0368186C704770474C
:10163C0070477047F8B5036804001D685E680223A4
:10164C001D420FD01E420DD0836DDB0604D48023C7
:10165C00826D1B0113438365200000F025FA0222E2
:10166C0023681A6004231D4201D01E4204D10823B2
:10167C001D422AD01E4228D0A36DDB0604D4802341
:10168C00A26D9B001343A365C02320681B01C26895
:10169C001A4214D1A37E002B11D103681B070ED55F
:1016AC00FFF72AFE00285AD10C21226853688B437D
:1016BC005360A36D354A1A4001231343A3652000E0
:1016CC00FFF7B5FF0C2223681A6080273D420BD030
:1016DC003E4209D08023A26D5B021343A365200018
:1016EC00FFF7A6FF23681F6080277F003D420BD0C9
:1016FC003E4209D08023A26D9B021343A3652000B8
:10170C0000F0D0F923681F608027BF003D420BD04A
:10171C003E4209D08023A26DDB021343A365200057
:10172C0000F0C1F923681F6010231D420BD01E422C
:10173C0009D0236B002B1BD02368DB689B0717D1C8
:10174C00102223681A608027BF013D4206D03E421A
:10175C0004D0200000F0A9F923681F60F8BD2023F5
:10176C00A26D1343A3650123E26D1343E365A6E762
:10177C008023A26DDB001343A3650223E26D2000DE
:10178C001343E365FFF755FFDAE7C046FEFEFFFFA4
:10179C000023F0B589B00793030054331A78050081
:1017AC000F000224012A00D1C1E0012600681E703E
:1017BC00FFF7A2FD0390002800D0EFE00422802167
:1017CC007B689446019301982B6909063A68A042FC
:1017DC0000D1B6E0604683438B4213D12968530392
:1017EC00886A5B0B03438B622868BB686E4944694B
:1017FC001940614013020B4063404361002A65DBD2
:10180C00002491E01F21019B0B4002930F230298AF
:10181C008340DB43049304982B6E034005935003E1
:10182C001300002815D1900E0840029988400599A4
:10183C000843019928668908E86901318142D3D8A7
:10184C00029C29689B001B0F886AA340049C2040C3
:10185C00C8E703983242E8D130002242E5D1614614
:10186C0020000A42E1D103201107DED46046D106E4
:10187C00DBD405209106D8D401305106D5D40130E3
:10188C001106D2D40130D105CFD401309105CCD47E
:10189C0001305105C9D401301105C6D40130D10431
:1018AC00C3D401309104C0D401305104BDD40130F3
:1018BC001104BAD40130D103B7D401309103B4D49C
:1018CC008020C0021040B0D01220AEE7E021374B90
:1018DC0037481C6849042140824217D180200004FB
:1018EC0004428DD11A68334C22400A4302431A60D9
:1018FC00314B32491868FEF713FC0790079B002BFD
:10190C0000D17DE7079B013B0793F7E72C48824208
:10191C0010D180204004044000D071E71A68254E95
:10192C0032400A4302431A60002354352B702000C6
:10193C0009B0F0BD2348824200D061E78020C0038B
:10194C00E9E7604683438B4205D128685103836ADB
:10195C00490B8B438362002A00DB51E7134B14497C
:10196C0018688A4208D1A0221C685204114902400E
:10197C0021400A431A6043E711498A4203D1C0222D
:10198C001C681204F2E70F498A4200D038E7C022E3
:10199C0052041968024007480140EAE72023AA6D67
:1019AC0034001343AB65BFE700FFFF070827014076
:1019BC00001000B0FFFF3FFE10000020400D0300A0
:1019CC00004000B8002000B4F8B5012402680500FE
:1019DC00936823420AD00020F8BD1023AA6D200082
:1019EC001343AB65EB6D2343EB65F5E79168144B43
:1019FC001942F2D19368134E3340234393606B7EAC
:101A0C00012BE8D0FFF760FC07002A68136823421B
:101A1C00E1D1936823420DD0FFF756FCC01B02287E
:101A2C00F3D910230120AA6D1343AB65EB6D03436F
:101A3C00EB65D1E79368334023439360ECE7C046F2
:101A4C0017000080E8FFFF7F70B504000068FFF707
:101A5C0053FC06000220002E1DD1250054352B7896
:101A6C00012B18D0012320002B70FFF7ADFF0028AD
:101A7C0012D1A36D094A0A491A4080235B00134313
:101A8C001C22A3652368E0651A609A6828701140CF
:101A9C0004220A439A6070BD2E70FCE7FEF0FFFF33
:101AAC00E8FFFF7F704770477047704770B589013A
:101ABC00002812DB8308134A03249B009B18FF2287
:101ACC002040A0401400C025844011408140AD004E
:101ADC005E59A6433143595170BD03240F23C0B244
:101AEC0003402040A040FC3425002140854081402B
:101AFC00083B054A9B089B009B18DA69AA431143D3
:101B0C00D961E9E700E100E000ED00E0002805DB29
:101B1C001F2318401E3B8340014A13607047C04688
:101B2C0000E100E0094A431E012093420DD8C02178
:101B3C00074A08485360036A09061B021B0A0B4339
:101B4C00036200200723906013607047FFFFFF00C3
:101B5C0010E000E000ED00E0F0B5846CC56C656051
:101B6C00046D002C02D0446D856D65601C25046CE1
:101B7C00084E25400124AC4077683C4374600468EF
:101B8C0063608368102B02D1A260E160F0BDA1609C
:101B9C00E260FBE70000024010B50400007814215D
:101BAC000838FEF7BDFA236C064A9B089B189B006D
:101BBC006364054BA3641C2318401B3B8340E36404
:101BCC0010BDC046008200108008024070B50400B1
:101BDC000120002C48D02568264B1421E818FEF76C
:101BEC009FFA02238000A61D2064F3772B68224AFB
:101BFC00E16813402B60A3682A680B43216920001D
:101C0C000B4361690B43A1690B43E1690B43216AE7
:101C1C000B4313432B60FFF7BFFF8023A268DB014C
:101C2C009A4201D1002363606268616CD3B20B608D
:101C3C00E06CA16C013A4860032A16D80F4A104890
:101C4C0099180322013B1340023A9A40A2651300F3
:101C5C0000228900216560650A6043600020012331
:101C6C00E0630534F377E07770BD0023236563658B
:101C7C00A365F3E7F8FFFDBF0F80FFFF3F82001065
:101C8C0040090240F8B5461DF57F04000220012DE5
:101C9C0030D00125A71DF577FD7FEDB2012D27D1A1
:101CAC00F87700202768E0633868A8433860200084
:101CBC00FFF752FF226B2368002A1CD00E221968F2
:101CCC000A431A60626C1168C90304D5802110683C
:101CDC00490001431160226D002A04D08021106854
:101CEC004900014311600122002019680A431A605F
:101CFC000023F377F8BD04211A688A431A60196827
:101D0C000A22DDE7F8B50123411DCB77841DE27F64
:101D1C00022A03D00422C2631800F8BD0E26026802
:101D2C001568B54315601568466C9D43156032689F
:101D3C00114D2A4032601C22AC46056C0F4E2A40D5
:101D4C00934077683B437360C26C836C5A60036D3D
:101D5C00002B06D065461A682A401A60436D826DC6
:101D6C005A600123E3770024826BCC771300A242E4
:101D7C00D2D090472300CFE7FFFEFFFF00000240C8
:101D8C00F8B51C210427046C264B21403C008C40E8
:101D9C001E680268156834420FD03D420DD01168A0
:101DAC00890602D41168B94311605A6814435C6007
:101DBC00036B002B1BD0984719E002273C008C408A
:101DCC00344215D03D4213D01168890606D40A2539
:101DDC001168A94311600121821DD1775A681443FF
:101DEC0000225C60431DDA77C36A9342E3D1F8BDED
:101DFC00082427008F403E42F9D02542F7D00E250B
:101E0C001468AC431460012215008D4029005C68F5
:101E1C0021435960831DC263DA770022431DDA77B0
:101E2C00436BE2E7000002400630C07FC0B270474F
:101E3C00F0B50B6885B0029300230191029ADA4049
:101E4C0001D105B0F0BD01229A4003920399029A88
:101E5C000A40009200D185E0019A102152681600C8
:101E6C008E43022E0ED107251D40AD000139A9402D
:101E7C00DC08A4000419276A8F4301990969A94059
:101E8C000F43276203245F00BC40E4430568013E16
:101E9C002540AC4603251540BD4061460D43056009
:101EAC00012E0FD801998668CD682640BD40354378
:101EBC0085604668039915098E4301210D409D40AC
:101ECC0035434560C56801992C408D688021BD4023
:101EDC0049052C43C4600A4244D003260F242249EE
:101EEC009D081E40AD00F6006D18B440A0212F6E69
:101EFC00C905A743002488420CD01C4901348842F0
:101F0C0008D01B490134884204D01A490334884252
:101F1C0000D1023CB44000993C430E002C66164C98
:101F2C00CD43E76F3E43D10301D43E002E40E6671C
:101F3C00124E009FF46F2743910301D42C402700CD
:101F4C00094CF7672768009E3E43D10201D43E003E
:101F5C002E4026606668009F3743920201D42E40C3
:101F6C0037006760013369E7001802400004005035
:101F7C0000080050000C00500418024008180240E1
:101F8C0000690840411E8841C0B27047002A01D048
:101F9C00816170478162FCE703689A69920701D5F9
:101FAC0000229A6201229969114202D199690A436D
:101FBC009A61704770B5049E89053343890D1943A6
:101FCC0080230468DB00700D1840044B6568120414
:101FDC001843854311432943616070BDFF63FF03C0
:101FEC0010B5436B164C0422A34202D0154CA342ED
:101FFC0014D10023114200D0B83311220A40112A07
:10200C0001D17F32134312221140914201D14E3241
:10201C001343026811680B43136010BD0023114277
:10202C0000D0B833CA0701D5F22213438A0701D571
:10203C00F4221343122211409142EAD10E32E7E707
:10204C00792A00089929000810B50023CA0708D579
:10205C00030041331A7828231A401A33282A00D057
:10206C00B0338A0708D50200282441321278224066
:10207C00A24216D1442213434A0701D5B822134376
:10208C0011220A40112A01D17F321343122211402E
:10209C00914201D14E32134301680A689A430A6097
:1020AC0010BDF422E7E7F8B504000E0017001D0080
:1020BC002268936933409B1B59424B41BB4201D070
:1020CC00002017E06B1CF4D0FFF7FEF8069BC01A3B
:1020DC00854201D3002DEBD12022636C01201343E8
:1020EC006364230041331A702200002342324034CF
:1020FC0013702370F8BD0000F8B5036804009869EC
:10210C0010230E00170018402025002818D1F8BD08
:10211C00721C16D0FFF7D8F8C01B864201D3002ED4
:10212C000ED12022636C13436364230041331A7075
:10213C002200002342324034137001202370E6E762
:10214C0023689A692A42E3D010222000DA61DD610B
:10215C00FFF722FF2268064953680B4053600423A3
:10216C00626C13436364230041331D70E0E7C04687
:10217C0000E800FEF8B504000D00160002272368E5
:10218C009B693B4201D00020F8BD320029002000A1
:10219C00FFF7B2FF002815D16B1CF0D0FFF794F8B5
:1021AC00801B854201D3002DE9D12022636C13439F
:1021BC006364230041331A702200002342324034FE
:1021CC00137023700120DFE773B514001E00DAB220
:1021DC00154B0500009380235B04FFF7EBFE079A79
:1021EC0006992800FFF7C6FF002801D0012076BD14
:1021FC002B68012E0DD1E4B29C62079B0022009348
:10220C008021069B2800FFF74EFF431E9841C0B269
:10221C00EDE7220A9A620699079A2800FFF7AAFFAF
:10222C000028E3D12B68E6E70020008070B504009D
:10223C000120002C3FD0250041352B78DBB2002B40
:10224C0005D1220040321370200002F08DFB2423B4
:10225C0001212B702368E0681A68A6688A431A600B
:10226C0061681A4A0A401A619968194A11409960C2
:10227C00012821D180210902314399605868154900
:10228C0001435960D96800200A40DA60616922690B
:10229C000A43A16909020A43DA60216AE2690A4326
:1022AC001A60012219680A431A60202360642B709B
:1022BC0020634234207070BD84210902314399603F
:1022CC000228DBD1802109015960D7E7FFFFFFF01D
:1022DC00FF7FFFFF00800002F0B5070089B0079375
:1022EC000EAB069204CB05911B88029204934137E6
:1022FC003B7804000225202B71D1002A02D0049BCC
:10230C00002B04D180239B006364012567E00368E4
:10231C009E6980231B021E4061D1030040331A7852
:10232C00012A5CD001221A70FEF7CEFF21233B70EC
:10233C002300423303934023039A1370029B666479
:10234C0063626B461B8A6385324BE362324B636379
:10235C00638DFF2B15D9FF23238580235B04049306
:10236C00192301900093069A079B05992000FFF70B
:10237C002BFF270006004037002807D000233B70B6
:10238C00C3E7638D238580239B04E8E7A06B0028BB
:10239C0028D0224B2268C362214B066343638663B9
:1023AC00238D28320299FFF76DFC051E26D1228D54
:1023BC000090D2B2049B05992000FFF7FBFD638DC2
:1023CC00228D11219B1A9BB2638520003D70FFF773
:1023DC0007FE80232268DB0111680B431360280081
:1023EC0009B0F0BD2300202241331A70039B1870F2
:1023FC008023626C13436364387086E723002022C9
:10240C0041331A70039B1E701023626C1343636478
:10241C003E707AE70000FFFF792A0008A12B000824
:10242C00892B0008036810B599691A68436B002B57
:10243C0000D0984710BD70477047030070B5002559
:10244C002022060042331D70013B197804004036EF
:10245C001A7021290AD11123456303632039FFF730
:10246C00F3FD35702000FFF7E6FF70BD12234563C6
:10247C0003630221FFF7E8FD35702000FFF7DCFF56
:10248C00F3E770477047030070B5002542331D70A9
:10249C00013B1A780400292A0DD1013A1A70212324
:1024AC0001210363FFF7D0FD230040331D70200092
:1024BC00FFF7E7FF70BD1A782A2AFBD1023A1A708F
:1024CC00222302210363FFF7BFFD230040331D705D
:1024DC002000FFF7D7FFEDE770470300F7B5413356
:1024EC001A78282304001A400368282A37D1FE27BB
:1024FC009D699E699A68D968ED030191C168360C93
:10250C00ED0F3E40022921D19205920DD1094E408A
:10251C0006210E4010D1816C01318164816C02293D
:10252C0009D106318664D961030040331E7029003D
:10253C002000FFF7D1FFF7BD0421FFF785FD230035
:10254C00002240331A70019A3A40F0E70421FFF759
:10255C007BFD2300002240331A703200E7E708228B
:10256C00DA61002340342370E5E77047184B10B54F
:10257C00C362002302000363040020204132107068
:10258C00537004226363114212D02368616A5B6A40
:10259C000B70636A01336362238D002B08D0013BFF
:1025AC002385638D013B9BB26385636C1A43626424
:1025BC0007212000FFF748FD102223682000DA6174
:1025CC002300002240331A70FFF7CFFF10BDC04626
:1025DC000000FFFF704770477047000070B50200A5
:1025EC0005000026423241352B7816702F4A283BC5
:1025FC00C2624685426C040011434164022B22D80E
:10260C000321FFF721FD28232B70294B2663802201
:10261C0063632368D201196811401A681ED02549DA
:10262C00A06B0A401A6000280CD0234B0022836355
:10263C00230040331A70FFF765FB002802D0A06B13
:10264C00836B984770BD0721FFF7FEFC2B78602B3E
:10265C0001D020232B7000232363D8E780200002B5
:10266C00024011D01A6815480240E06B1A6000282D
:10267C00E8D0114B8363230040331970FFF742FB02
:10268C000028DFD0E06BDBE723002978403360299A
:10269C0006D14039297020001A70FFF79DFFD1E751
:1026AC001A702000FFF797FFCCE7C0460000FFFF31
:1026BC00C1270008FFBFFFFF492C0008FF7FFFFF69
:1026CC002022F8B50400802503680F001E6807213E
:1026DC00DA61FFF7B9FC23682D025A6833492A43A3
:1026EC005A605A6820000A405A60FFF755FC730480
:1026FC0038D5A36B002B03D01B685B689BB263853A
:10270C0004231F4210D09F432368626A5B6A1370D4
:10271C00636A01336362238D002B05D0013B238553
:10272C00638D013B9BB26385638D002B03D0042327
:10273C00626C13436364220000232500423223633E
:10274C001370666C636341359E420FD0616C200040
:10275C00FFF744FF2B78282B03D139002000FFF71B
:10276C0005FFF8BD2E42CBD0E36BC3E72700E36A2D
:10277C000F4A403793420BD02000FFF784FE0C4BDE
:10278C002000E36220232B703E70FFF7EEFEE8E79B
:10279C0020232A7820002B703E70222A02D1FFF7CA
:1027AC0071FEDEE7FFF76DFEDBE7C04600E800FEDA
:1027BC000000FFFFF8B50700403716003A78040018
:1027CC00C36A0D000220012A21D001223A700F3277
:1027DC0011423BD0164239D0618D002928D12200FC
:1027EC0041321178282913D1802189048B420FD1D1
:1027FC0029002000FFF7BAFE20231D4205D01E42FF
:10280C0003D029002000FFF75BFF00203870F8BDD3
:10281C00102110782268D1612928EDD12C488342EF
:10282C00EAD02000FFF7B8FB2000FFF72CFEE3E70F
:10283C002168CA610422616C0A436264254A13420E
:10284C00DAD1616C2000FFF7C9FED5E704221542EE
:10285C001AD0164218D0618D00290ED095432268EB
:10286C00616A526A0A70626A01326262228D013AAE
:10287C002285628D013A92B26285628D002ABBD1AB
:10288C00134A9342D0D1B7E70822154205D016421D
:10289C0003D02000FFF721FEAEE702221542ABD099
:1028AC001642A9D0628D002A0DD0636A226819786D
:1028BC00013391626362638D013B9BB26385238D0F
:1028CC00013B238598E7034A134200D094E7ABE71A
:1028DC000000FFFFFFFFFFFE2022036810B5DA6146
:1028EC005A680400274802405A600022226362633F
:1028FC00254AE2621022114204D0DA610423626C90
:10290C00134363642000FFF747FB03212000FFF70C
:10291C009BFB22004132636C1178602901D0002BA3
:10292C0004D0616C2000FFF759FE10BD11782129ED
:10293C0012D101391170220021004232107840313D
:10294C0013700B70402803D1200002F025FCECE73B
:10295C002000FFF770FDE8E711782229E5D1023954
:10296C0011702200210042321078403113700B702C
:10297C00402803D12000FFF72DFED6E72000FFF7FB
:10298C005BFDD2E700E800FE0000FFFFF8B5050094
:10299C0040352B780400C66A0220012B2DD0012370
:1029AC002B700F3319424BD01A4249D0C020000271
:1029BC00024242D0E06B031E06D00023170403D55D
:1029CC0003685B6858424341A06B002805D0520451
:1029DC0003D502685268002A01D0012B1ED12300B6
:1029EC0041331A78282A09D180229204964205D1C3
:1029FC002000FFF7BBFD00202870F8BD10221978CD
:102A0C002368DA612929F6D116498E42F3D02000C9
:102A1C00FFF7C2FA2000FFF736FDECE7102223681F
:102A2C00DA610423626C134363640F4B1E42E2D1E0
:102A3C00616C2000FFF7D2FDDDE72268D361DAE795
:102A4C000823194205D01A4203D02000FFF745FD98
:102A5C00D1E720231942CED01A42CCD02000FFF768
:102A6C002FFEC8E70000FFFFFFFFFFFE37B5050094
:102A7C0040352B7804000220012B15D001232B703C
:102A8C000F33194211D01A420FD022682000D361A3
:102A9C00626C0C3B134363641221FFF7A1FA200014
:102AAC00FFF77AFA002028703EBD4023080644D573
:102ABC001A4242D02268116899431160638D002B31
:102ACC002FD05168638D8905890DFF2B1BD9FF23EE
:102ADC00238580235B040020228D0090D2B220003D
:102AEC00FFF768FA638D228D9B1A9BB263852300D6
:102AFC0041331A7823681968222A0FD180221202D6
:102B0C000A431A60CEE7638DE26A23851A4B9A4218
:102B1C0001D0E36ADFE780239B04DCE78022D2014B
:102B2C00EEE753689B0103D42000FFF786FCB9E75E
:102B3C0040212000FFF752FDB4E7194212D01A428F
:102B4C0010D0638D002BF3D123685A689201A9D45D
:102B5C00E16A094A9142E7D180225968D2010A43BD
:102B6C005A609FE7202319429CD01A4200D199E762
:102B7C002000FFF7B1FE95E70000FFFF8023806A7D
:102B8C0010B502681B0251680B4353601021FFF70C
:102B9C0025FD10BD10B5846A1149226813680B40DD
:102BAC001360638D002B04D112212000FFF718FA5B
:102BBC0013E0636A218D5918638D6162FF2B0DD967
:102BCC00FF232385238D2832A06BFFF75BF80028A9
:102BDC00EAD010212000FFF701FD10BD638DF0E756
:102BEC00FFBFFFFF70B5802503686D0099691A68F7
:102BFC00294206D0140604D50124466C344344649F
:102C0C00DD618025ED00294206D0140604D5082488
:102C1C00466C34434464DD618024A400214206D018
:102C2C00120604D50222416C0A434264DC610B2378
:102C3C00416C194201D0FFF7D1FC70BD0023806AB2
:102C4C0010B5826B9363C26B9363030041331A78A4
:102C5C00602A04D1403A1A70FFF7BEFC10BDFFF792
:102C6C00BAFCFBE7F0B50400413422780300D2B281
:102C7C000220202A18D11D0040352E78012E13D0A9
:102C8C001B68223020701E68233886431E601E6825
:102C9C00064F3E401E601E68314319601968084398
:102CAC001860002022702870F0BDC046FFEFFFFFB7
:102CBC00F0B5050041352A780300D2B20220202A53
:102CCC0017D11C0040342678012E12D01B682230FC
:102CDC0028701E68233886431E601E68054F090243
:102CEC003E403143196019680843186000202A706F
:102CFC002070F0BDFFF0FFFF13B50124064A116CE4
:102D0C0021431164136C054A23400193019B136802
:102D1C001843106013BDC046001002400000014073
:102D2C0010B5104C1049236802000B40034323607C
:102D3C00802300209B009A420CD10C4B0C49186844
:102D4C0006235843FDF7ECF98022431CD20060693E
:102D5C00104000D110BD002B01D0013BF7E7032040
:102D6C00F8E7C04600700040FFF9FFFF100000209C
:102D7C0040420F00F0B5040085B0002802D10120BC
:102D8C0005B0F0BD0368DB0710D423689B075CD447
:102D9C0023681B0700D5C2E023685B0700D5F4E06D
:102DAC00E269002A00D073E10020E9E73822AC4D3B
:102DBC00AB681340EA68102B09D1D243930708D1B2
:102DCC002B689B03E1D56368002BDED1D7E7082B7A
:102DDC00F6D0802263685202934211D12A681343C1
:102DEC002B60FEF771FA80260700B6022B6833427F
:102DFC00CBD1FEF769FAC01B6428F7D90320BFE7D3
:102E0C00A021C9028B4208D180232968DB020B4325
:102E1C002B602B681A432A60E3E72A6891490A4021
:102E2C002A602A6890490A402A60002BD9D1FEF703
:102E3C004BFA80260700B6022B683342A5D0FEF76A
:102E4C0043FAC01B6428F7D9D8E73823844DAA6805
:102E5C001340EA68102B29D103210A40022A27D1FA
:102E6C002A68520503D5E268002A00D187E7696811
:102E7C0062697E48120201400A436A60002B0DD140
:102E8C002B687B4A1340226913432B602B68794AC9
:102E9C009B045B0FDA401300774A1360774B18687A
:102EAC00FEF7CAF9002800D172E768E7002BD7D0EB
:102EBC00E368002B20D02B686D4A802613402269D2
:102ECC00F60013432B6080232A685B0013432B60AE
:102EDC00FEF7FAF907002B68334207D06A6863697A
:102EEC0062491B020A4013436B6051E7FEF7ECF991
:102EFC00C01B0228EFD981E72B68614A802613405A
:102F0C002B60FEF7E1F90700F6002B68334200D185
:102F1C003EE7FEF7D9F9C01B0228F6D96EE7382137
:102F2C004F4B9A681D000A40182A08D11B6E9B074C
:102F3C0000D431E7A369002B00D02DE71FE7A2696D
:102F4C000123002A10D02A6E022613432B66FEF7AB
:102F5C00BBF907002B6E334200D01DE7FEF7B4F926
:102F6C00C01B0228F6D949E72A6E02269A432A6624
:102F7C00FEF7AAF907002B6E334200D10CE7FEF7DF
:102F8C00A3F9C01B0228F6D938E73821344B9A68CC
:102F9C001D000A40202A08D1DB6D9B0700D4FFE6F8
:102FAC00A368002B00D0FBE6E9E68022DB6B520520
:102FBC00134200D1F6E000238027324E0093336891
:102FCC007F003B4215D0A368012B22D1EA6D13433D
:102FDC00EB65FEF779F902270600EB6D3B4238D022
:102FEC00009B012B00D0DBE6EB6B274A1340EB6315
:102FFC00D6E633683B433360FEF766F901903368DD
:10300C003B42E0D1FEF760F9019BC01A0228F6D9C9
:10301C00F4E6EA6D052B05D1013B1343EB65EA6D34
:10302C000123D4E701218A43EA65EA6D03318A431F
:10303C00EA65002BCDD1FEF747F902270600EB6DB0
:10304C003B42CDD0FEF740F9104B801B9842F6D98D
:10305C00D4E6FEF739F90D4B801B9842BDD9CDE66D
:10306C0000100240FFFFFEFFFFFFFBFFFF80FFFF92
:10307C00FFC7FFFF0024F400100000200400002014
:10308C00FFFEFFFF00700040FFFFFFEF8813000002
:10309C003820494B99681D000140102954D01B68F9
:1030AC0046490B402B60022A37D1FEF70DF98026DA
:1030BC000700B6042B68334229D1616A236AEA6897
:1030CC000B433F490A401343E26A1343226B1343F9
:1030DC00626B1343A26A802412021343EB608023B9
:1030EC002A685B0413432B608023EA685B05134357
:1030FC00EB60FEF7E9F80600A4042B68234200D02D
:10310C0052E6FEF7E1F8801B0228F6D976E6FEF7C8
:10311C00DBF8C01B0228CDD970E60322EB688024B3
:10312C009343EB60EB68274AA4041340EB60FEF773
:10313C00CBF806002B68234200D135E6FEF7C4F825
:10314C00801B0228F6D959E6012A00D117E6D86867
:10315C000323226A0340934200D010E67023626A74
:10316C000340934200D00AE6FE22A36AD201024039
:10317C001B029A4200D002E6F823E26A9B0303404A
:10318C00934200D0FBE5E023226B1B0503409342E6
:10319C0000D0F4E5636B400F4007C01A431E984102
:1031AC00C0B2EDE5EB6B1343EB63EB6B1340039396
:1031BC00039B012300E7C04600100240FFFFFFFE07
:1031CC008C80C111FFFFFEEE38231F4A70B5916849
:1031DC001400194208D1012113681C489B045B0F91
:1031EC009940FCF79DFF70BD91681940082925D0C6
:1031FC0091681940102915D1D368D168DB437F221F
:10320C00E5684906490F2D0A013115409B0707D186
:10321C000F48FCF785FFE1686843490F0131E0E78F
:10322C000A48F6E791681940202909D092680020D5
:10323C001340182BD7D1FA20C001D4E70448D2E7A9
:10324C0080200002CFE7C046001002400024F400AA
:10325C0000127A00F7B505000E00002801D10120FC
:10326C00FEBD07274A4C23683B408B422AD3296872
:10327C008B073BD4CB0748D4072723683B409E429F
:10328C000AD22368BB4333432360FEF71DF8019039
:10329C0023683B409E426BD12B683E4C5B076FD43E
:1032AC00FFF792FFA3683C4A1B051B0F9B009B5822
:1032BC001F221340D840394B1860394B1868FDF762
:1032CC00BBFFCDE72368BB430B432360FDF7FCFF3B
:1032DC00019023683B409E42C9D0FDF7F5FF019B4E
:1032EC00C01A304B9842F4D90320B9E7294A4B074E
:1032FC0004D5E0239068DB010343936093682A486C
:10330C000340A86803439360B4E76A68214F012A1D
:10331C0019D13B689B03A2D50721BB688B43134390
:10332C00BB60FDF7D1FF01903823BA681A406B6877
:10333C00DB009A42A0D0FDF7C7FF019BC01A194BC6
:10334C009842F1D9D0E7022A03D13B689B01E3D420
:10335C0085E7002A03D13B685B05DDD47FE70223B8
:10336C00032A03D1396E1942D6D178E7F96DFAE701
:10337C00FDF7AAFF019BC01A0A4B984288D9B3E704
:10338C00A3680A4A1340EA681343A36088E7C0465F
:10339C000020024000100240586D00081000002070
:1033AC000400002088130000FFF0FFFFFF8FFFFFD9
:1033BC00064B074A9B685B045B0F9B009B581F22C4
:1033CC001340044A1068D8407047C04600100240B1
:1033DC00986D000810000020F0B505002B6885B032
:1033EC0000209B0350D580226F4C5205E36B00905C
:1033FC00134208D1E36B1343E363E36B1340039372
:10340C00039B012300938027684E7F0033683B4366
:10341C003360FDF759FF019033683B4226D0C0233F
:10342C00E26D9B0013400FD02A6B93420CD0E26DDF
:10343C005F4BE16D1340802252020A43E265E26D5C
:10344C005C490A40E265E365DB0707D5FDF73CFF05
:10345C0002270600E36D3B4200D19DE0E36D544A28
:10346C00002013402A6B1343E36506E0FDF72CFFA5
:10347C00019BC01A0228CFD90320009B012B03D13A
:10348C00E36B4D4A1340E3632B68DA0706D503243C
:10349C0045494A6DA2436C6822434A659A0706D592
:1034AC000C2441494A6DA243AC6822434A659A06F2
:1034BC0006D53D49414C4A6D2240EC6822434A6591
:1034CC009A0506D538493E4C4A6D2240AC692243D8
:1034DC004A655A0506D534493A4C4A6D2240EC6986
:1034EC0022434A655A0606D52F49374C4A6D22406D
:1034FC002C6922434A655A040FD52B492C6A4A6D14
:10350C009200920822434A658022D205944204D14B
:10351C008022CC6852022243CA601A0306D540248A
:10352C0021494A6DA2436C6A22434A659A020FD51F
:10353C001D49264E4A6DAC6A324022434A658022B0
:10354C00D203944204D18022CC6852042243CA6034
:10355C005A020DD5144C1E4E616DEA6A314011436E
:10356C006165802149048A4202D1E1680A43E26024
:10357C001B050FD50C49174C4B6D6A69234013433F
:10358C004B658023DB019A4204D18023CA685B021D
:10359C001343CB6005B0F0BDFDF796FE0E4B801BC0
:1035AC00984200D856E767E70010024000700040D0
:1035BC00FFFCFFFFFFFFFEFFFFFFFFEFFFF3FFFF2F
:1035CC00FFFFF3FFFFFFCFFFFFCFFFFFFFFFBFFFAB
:1035DC00FFFFFFFEFF3FFFFF88130000F8B504005C
:1035EC000120002C4BD000232500A3625D352B78E5
:1035FC00DBB2002B05D122005C321370200001F0ED
:10360C00A1FC0223402221682B700B6800209343FD
:10361C000B60E023E268DB009A4231D9F0263601D8
:10362C00B24233D10600206B002803D19A422FD925
:10363C0002232363A7686368A0693B4327693B4364
:10364C0067693B43E7693B43276A3B43A76A3B43B4
:10365C008027BF0007403B430B60636A000C1A4392
:10366C00636B1A4304231840104306434E60CB6926
:10367C00084A00201340CB61012320662B70F8BD53
:10368C00802676019A42CED0A062CCE70600FBE7FA
:10369C000123CEE7FFF7FFFF012203680748D96833
:1036AC001143D96099680140062905D00738814239
:1036BC0002D019680A431A60002070470700010005
:1036CC0070477047704770470222036810B519693C
:1036DC00040011420ED0D96811420BD0053A1A6180
:1036EC009B69043202779B0700D186E0FFF7E9FF64
:1036FC0000232377042223681969114211D0D96859
:10370C0011420ED0093A1A61073222779A69C02306
:10371C009B0020001A4200D175E0FFF7D2FF002376
:10372C00237708222368196911420ED0D9681142F7
:10373C000BD0113A1A61DB690D32227720009B07FE
:10374C0067D0FFF7BEFF0023237710222368196987
:10375C00114210D0D96811420DD0213A1A61193298
:10376C002277DA69C0239B0020001A4257D0FFF75A
:10377C00A8FF00232377012223681969114207D07F
:10378C00D968114204D0033A1A61200001F0CEF935
:10379C00802223681969114208D0D968114205D0DA
:1037AC00023AFF3A1A61200000F0D9F923681A692D
:1037BC00D20507D5DA68120604D51C4A20001A6116
:1037CC0000F0CEF9402223681969114207D0D9685C
:1037DC00114204D0813A1A612000FFF774FF2022B5
:1037EC0023681969114207D0D968114204D0413AB3
:1037FC001A61200000F0B2F910BDFFF761FF200044
:10380C00FFF760FF74E7FFF75BFF2000FFF75AFF3D
:10381C0085E7FFF755FF2000FFF754FF93E7FFF70D
:10382C004FFF2000FFF74EFFA3E7C046FFFEFFFF50
:10383C00204A10B50368904206D08024E405A042CB
:10384C0002D01D4CA0420CD17024A3434C682343DE
:10385C00904212D08024E405A0420ED0164CA04217
:10386C000BD0164CA04208D0154CA04205D0154CDC
:10387C00A04202D0144CA04203D1144C2340CC687B
:10388C0023438024A3434C69234303608B68C362A6
:10389C000B688362904208D0094B984205D0094BC3
:1038AC00984202D0084B984201D10B690363012363
:1038BC00436110BD002C014000040040002000407A
:1038CC00004001400044014000480140FFFCFFFF64
:1038DC0070B504000120002C14D025003D352B7848
:1038EC00DBB2002B05D122003C321370200001F01A
:1038FC0007FE022320682B70211DFFF799FF01237F
:10390C0000202B7070BD000030B58468034D0A4355
:10391C001B022C4013432343836030BDFF00FFFF89
:10392C00F8B5050002233C352A7804001800012A5A
:10393C0016D02600012720683D362F70337083681F
:10394C003F4A134083600B68402B63D014D8102B74
:10395C000BD006D8002B08D0012300203370287020
:10396C00F8BD202B01D0302BF6D1364A816811409E
:10397C00072213430B4319E0602B34D018D8502B7B
:10398C00EAD14A68CB68016A046A1B01BC43F02780
:10399C0004628469BC4323430A24A1430A43836120
:1039AC0002628368274A1A40572313438360D3E784
:1039BC00702B0DD0802292019342CDD1CB684A68F6
:1039CC008968FFF7A1FF80232268DB01916807E07B
:1039DC00CB684A688968FFF797FF7723226891685C
:1039EC000B439360B8E710244B68CA68016A164F02
:1039FC00A1430162846912033C402243A024016A62
:103A0C001B01A1430B438261036283680D4A1A4078
:103A1C006723CAE74A68CB68016A046A1B01BC4386
:103A2C00F02704628469BC4323430A24A1430A435C
:103A3C00836102628368034A1A404723B5E7C04694
:103A4C008800CEFF8FFFCFFFFF0FFFFF70B5040084
:103A5C0002223C34257803001000012D1AD01D00E1
:103A6C003D352A700C4E1A6853689068B24203D1E7
:103A7C000A4E33404E6833437026B3430E68896850
:103A8C0033438026B04353600143012300209160EF
:103A9C002B70207070BDC046002C0140FFFF0FFF43
:103AAC0010B504003C34237802000220012B39D0DD
:103ABC00C8681D4B12680340886803431B480340C9
:103ACC00486803431A4803400868034319480340F5
:103ADC0008690343184803404869034317480340E7
:103AEC00086B0343164803408869000403431548D8
:103AFC00824214D114480340C86903431348184048
:103B0C008B6A1B05034312480340086A03431148A0
:103B1C000340486AC96A03430F4803400B43002023
:103B2C005364207010BDC046FFFCFFFFFFFBFFFF7E
:103B3C00FFF7FFFFFFEFFFFFFFDFFFFFFFBFFFFF01
:103B4C00FFFFF0FF002C0140FFFFFFEFFFFF0FFF17
:103B5C00FFFFFFFEFFFFFFFDFFFFFFDF704770471A
:103B6C0070470000F8B504000268C16983680069F9
:103B7C00656E0343606903430B4310682B43A44DEC
:103B8C002840034313605368A248A34D0340E068E8
:103B9C0003435360A069AA4201D0236A1843936877
:103BAC009E4E33400F2603439360D06A636AB04342
:103BBC001843D0629A48824217D10320994A526D19
:103BCC0002409948805C80221202914200D089E226
:103BDC0008282BD8FCF79AFA7D032A001A022A002F
:103BEC004E022A002A002A0051029048824205D136
:103BFC000C208C4A526D02408D48E3E78D4882427E
:103C0C0000D161E38C48824200D15DE31020AA42CE
:103C1C00D9D1C0218020834A0901526DC0000A40CD
:103C2C00824200D19CE00DD8002A4ED00122210006
:103C3C0001236A310B8002390B8000231000E366EC
:103C4C002367F8BD8020000182426ED08A42EDD1FC
:103C5C00002B00D1C7E0012B00D1C7E0022B00D113
:103C6C00C8E0032B00D1C8E0042B00D1C7E0052B22
:103C7C0000D1C7E0062B00D1C6E08021072B00D174
:103C8C00C4E0082B00D1F7E0092B00D1F6E00A2B99
:103C9C0000D1F5E00B2B00D0A6E0033B03206268BB
:103CAC0050438842C2D810038842BFD3082B00D996
:103CBC00A9E11800FCF72AFAE600A7013801A701D0
:103CCC006E01A701A701A7017101FFF771FB636AE0
:103CDC000121002B21D04918012B1ED00231022BBF
:103CEC001BD00231032B18D00231042B15D002311A
:103CFC00052B12D00231062B0FD00431072B0CD020
:103D0C001031082B09D02031092B06D040310A2B59
:103D1C0003D07F390B2B00D1FF31FCF701FA0023C4
:103D2C00010000229142B9D181E7002B59D0012B1F
:103D3C0043D0022B43D0032B43D0042B43D0052B71
:103D4C0043D0062B43D0072B43D0082B43D0092B51
:103D5C0043D00A2B43D00B2B43D1384902239DE788
:103D6C00FFF732FA636A0121002B21D04918012B8D
:103D7C001ED00231022B1BD00231032B18D0023182
:103D8C00042B15D00231052B12D00231062B0FD08B
:103D9C000431072B0CD01031082B09D02031092B02
:103DAC0006D040310A2B03D07F390B2B00D1FF31C9
:103DBC00FCF7B6F904230100B3E72149CEE721490A
:103DCC006CE72149CAE72149C8E72149C6E72149DF
:103DDC00C4E72149C2E72149C0E72149BEE721498F
:103DEC00BCE72149BAE78021090201E08021C90121
:103DFC00082353E780218901FAE71C49F8E7802161
:103E0C004901F5E71A49F3E71A49F1E70901EFE728
:103E1C00F369FFCFFFCFFFFF00800040FFF4FF11DD
:103E2C000038014000100240C05F00080044004010
:103E3C00C45F000800480040004C004024F400001F
:103E4C0000127A0000093D00AAB0280080841E00F0
:103E5C00006A18005558140040420F0020A10700BA
:103E6C0090D0030048E801000024F4005515000030
:103E7C00CC0C0000AA0A0000C9000FE78900B7E7C4
:103E8C004900B5E7FFF794FA616A01220023002983
:103E9C002ED00222002301292AD004220023022939
:103EAC0026D006220023032922D00822002304292D
:103EBC001ED00A22002305291AD00C220023062921
:103ECC0016D010220023072912D020220023082903
:103EDC000ED04022002309290AD0802200230A296F
:103EEC0006D0012200230B2902D18022002352008C
:103EFC000021FCF78BFA00276568060E0B02334392
:103F0C0002026E0892197B41100019002A003B0036
:103F1C00FCF77CFA3A00964B9649C3188B4200D9B1
:103F2C0084E62368D86082E6636A002B30D0012BCC
:103F3C001AD0022B1AD0032B1AD0042B1AD0052B13
:103F4C001AD0062B1AD0072B1AD0082B1AD0092BF3
:103F5C001AD00A2B1AD00B2B1AD187480021002714
:103F6C00560880197941D2E78448F7E78448F5E789
:103F7C008448F3E78448F1E78448EFE78448EDE7A9
:103F8C008448EBE78448E9E78448E7E78448E5E7B9
:103F9C008448E3E7FFF718F976E7636A002B18D03B
:103FAC00012B19D0022B1AD0032B1BD0042B1BD0A6
:103FBC00052B1CD0062B1CD08020072B1BD0082BCC
:103FCC001BD0092B1BD00A2B1BD00B2B02D10002B0
:103FDC00C4E780200004C1E78020C003BEE7802036
:103FEC008003BBE77048B9E780204003B6E76F4811
:103FFC00B4E76F48B2E70003B0E7C002AEE7800257
:10400C00ACE74002AAE70122002084E7002B2FD066
:10401C00012B19D0022B19D0032B19D0042B19D03A
:10402C00052B19D0062B19D0072B19D0082B19D01A
:10403C00092B19D00A2B19D00B2B19D15D486368A9
:10404C0061685B08181873E14B48F8E75A48F6E7C3
:10405C005A48F4E75A48F2E75A48F0E75A48EEE76C
:10406C005A48ECE75A48EAE75A48E8E75A48E6E77C
:10407C004B48E4E7FFF7A8F82DE1002B18D0012BF3
:10408C0019D0022B1AD0032B1BD0042B1BD0052BC1
:10409C001CD0062B1CD08020072B1BD0082B1BD030
:1040AC00092B1BD00A2B1BD00B2B02D14000C6E7CF
:1040BC0080204002C3E780200002C0E78020C001BE
:1040CC00BDE74648BBE780208001B8E74448B6E727
:1040DC004448B4E74001B2E70001B0E7C000AEE7E6
:1040EC008000ACE7082800D9EBE0FCF705F805EAFE
:1040FC007FEAB3EAEAEAB600FFF75AF9636A0121EC
:10410C00002B21D04918012B1ED00231022B1BD0C1
:10411C000231032B18D00231042B15D00231052BA0
:10412C0012D00231062B0FD00431072B0CD01031DA
:10413C00082B09D02031092B06D040310A2B03D093
:10414C007F390B2B00D1FF316568FBF7E9FF2900A4
:10415C006B08C018FBF7E4FF002283B21900224859
:10416C001039814200D961E52168CB605FE5C0461A
:10417C0000FDFFFFFFFC0F000024F4000000127A8A
:10418C000000093D00AAB0280080841E00006A18B7
:10419C00005558140040420F0020A1070090D00396
:1041AC000048E801000024F40055150000CC0C0078
:1041BC0000AA0A0048E8010000127A00546151007C
:1041CC0000093D0000D43000AAB0280080841E00F5
:1041DC0040420F0020A1070090D00300AA2A000043
:1041EC009819000054150000EFFF0000002B2FD091
:1041FC00012B19D0022B19D0032B19D0042B19D059
:10420C00052B19D0062B19D0072B19D0082B19D038
:10421C00092B19D00A2B19D00B2B19D14E486368D6
:10422C0061685B08181895E74C48F8E74C48F6E7C6
:10423C004C48F4E74C48F2E74C48F0E74C48EEE7C2
:10424C004C48ECE74C48EAE74C48E8E74C48E6E7D2
:10425C004C48E4E7FEF7B8FF50E7002B18D0012BD1
:10426C0018D0022B19D0032B1AD0042B1AD0052BE3
:10427C001BD0062B1BD08020072B1AD0082B1AD052
:10428C00092B1AD00A2B1AD00B2BC8D00002C6E768
:10429C008020FBE78020C001C1E780208001BEE7C1
:1042AC003948BCE780204001B9E73848B7E73848BF
:1042BC00B5E70001B3E7C000B1E78000AFE740000D
:1042CC00ADE70122002349E780231B02994200D06D
:1042DC0012E7FFF76DF8636A0121002B21D0491812
:1042EC00012B1ED00231022B1BD00231032B18D014
:1042FC000231042B15D00231052B12D00231062BC2
:10430C000FD00431072B0CD01031082B09D02031E1
:10431C00092B06D040310A2B03D07F390B2B00D14F
:10432C00FF31FBF7FDFE6568400029006B08C018E3
:10433C00FBF7F6FE80B20300164A103B934200D9FD
:10434C0074E40F2302009A43130000072268400F05
:10435C001843D06000226AE424F4000000127A00B2
:10436C0000093D00AAB0280080841E00006A1800D5
:10437C005558140040420F0020A1070090D00300B4
:10438C0048E801000024F40055150000CC0C000096
:10439C00AA0A0000EFFF0000836A30B5DA0706D5E1
:1043AC000168284C4A682240C46A22434A609A0732
:1043BC0006D50168244C4A682240046B22434A60AB
:1043CC005A0706D50168214C4A682240446B2243A7
:1043DC004A601A0706D501681D4C4A682240846B56
:1043EC0022434A60DA0606D501681A4C8A682240D4
:1043FC00C46B22438A609A0606D50168164C8A68FB
:10440C002240046C22438A605A0610D50168134D71
:10441C004A68446C2A4022434A60802252039442E8
:10442C0005D14A680E4C2240846C22434A601B061C
:10443C0006D502680B4953680B40C16C0B435360A3
:10444C0030BDC046FFFFFDFFFFFFFEFFFFFFFBFF80
:10445C00FF7FFFFFFFEFFFFFFFDFFFFFFFFFEFFF20
:10446C00FFFF9FFFFFFFF7FFF8B504000E001500DC
:10447C001F002268D36933409B1B59424B41AB420E
:10448C0001D000201EE0069B0133F3D0FCF71CFF8B
:10449C00069BC01B834201D3002BEAD1220008CA21
:1044AC0009481968014019609968A330FF308143AD
:1044BC0099602023D36722000832D36700237C3411
:1044CC0023700230F8BDC0465FFEFFFF030073B5DA
:1044DC000026040088331E60FCF7F6FE23680500F6
:1044EC001B681B0717D423681B685B070AD5802140
:1044FC000F4B00220093C9032B002000FFF7B4FFE1
:10450C00002813D120230020221DD3677C340432D1
:10451C00D36720700BE08021054B32000093890398
:10452C0003002000FFF7A0FF0028DCD0032076BD9D
:10453C00FFFFFF0170B5041E01D1012070BD051DE8
:10454C00EB6F002B04D102007C32137001F058F891
:10455C00242301212268EB67136820008B4313602E
:10456C00FFF700FB0128E8D0A36A002B02D0200043
:10457C00FFF712FF236808495A6820000A402A21D5
:10458C005A609A688A439A60012219680A431A6031
:10459C00FFF79CFFD2E7C046FFB7FFFF0123F0B542
:1045AC0087B002AA137053709370032202A9CA70C9
:1045BC0002250022072604AC8A71CA710E714B7158
:1045CC00A570042107000500083222702271426E8A
:1045DC006170E1706371A371E3716A376835002A09
:1045EC0003D13B802B8007B0F0BD03689A689B68B1
:1045FC0001925B0F02AAD05CE15CC000FBF71AFED3
:10460C00019B38805B0E1E4002AB985DA15DC00023
:10461C00FBF710FE2880E6E770B504007C342278A6
:10462C000223012A10D001260268051D2233EB67F4
:10463C0011681368B3431360044B1940002343669D
:10464C0011602022EA672370180070BDFFFFFFDFA6
:10465C00F8B505007C352B7804000220012B17D00F
:10466C00242322680138261D2870F3671768136805
:10467C008343136093682000DB00DB0819439160CF
:10468C00FFF78CFF236800201F602023F36728703E
:10469C00F8BD0000F8B505007C352B78040002202D
:1046AC00012B17D024230138261D2870F3672368AB
:1046BC001F681A6882431A609A68074802401143BF
:1046CC0099602000FFF76AFF236800201F602023F9
:1046DC00F3672870F8BDC046FFFFFFF130B585B019
:1046EC000C22002101A801F018F81A4C1A4B0422D4
:1046FC00236080230125DB0563600023626162195E
:10470C00D37722002C321370220020003C32A3609D
:10471C00E360236123766376A376E5616362A3622B
:10472C0023636363A3631370E364FCF7E9FD002860
:10473C0001D000F0DFFB002301A9200001950293BA
:10474C000393FDF725F8002801D000F0D3FB05B04A
:10475C0030BDC046C80400200024014010B5040040
:10476C0088B01422002103A800F0D7FF144B226854
:10477C009A4222D18020134B4003196C01431964D7
:10478C0001211A6C02400192019A5A6BA0200A4333
:10479C005A635B6BC0050B400293029B212303A958
:1047AC0003931E3B0493FDF743FB00220C201100E6
:1047BC00FDF77CF90C20FDF7A9F908B010BDC04637
:1047CC00002401400010024007B50120084A916BFB
:1047DC0001439163936B0022034001931100083055
:1047EC00019BFDF763F90920FDF790F907BDC04661
:1047FC0000100240F0B5012689B01422002103A854
:10480C0000F08BFF0221A027384B394D5A6BFF0566
:10481C0032435A635A6B380032400092009A5A6BFA
:10482C0000240A435A635A6B0A400192019A5A6B4C
:10483C0006310A435A635B6B00220B4002930A3128
:10484C00029BFDF7A3FB002228002A49FDF79EFBE3
:10485C0012233800032703A90393049605940694A6
:10486C00FDF7E6FA244B03A928000393049605945C
:10487C000697FDF7DDFA80239B010393022303A91E
:10488C00280005930494FDF7D3FA802303A9DB01D8
:10489C002800039304940594FDF7CAFA072303A98F
:1048AC001648039304940594FDF7C2FA102303935E
:1048BC00134B03A9280004930594FDF7B9FA2023A0
:1048CC0003A928000393049605940694FDF7B0FA07
:1048DC00C0239B000393112303A928000493059480
:1048EC000697FDF7A5FA09B0F0BDC04600100240CE
:1048FC0000040050261F0000061C0000000C005095
:10490C000000111010B5154B154C01222360154BEE
:10491C00200063600023E260A36023616361A361F4
:10492C00E3612362FDF782FC002801D000F0E2FA7B
:10493C0000212000FEF796F9002801D000F0DAFAE9
:10494C0000212000FEF7B4F9002801D000F0D2FAC3
:10495C0080204003FEF7D0F910BDC0460054004043
:10496C00880500201304100030B5050089B014220E
:10497C00002103A800F0D1FE224B2A689A423FD1B5
:10498C000221214C2148626B0A436263636B0B402A
:10499C000193019BC0230393AE3B0493113B0593FE
:1049AC0003A905330793FDF743FA8021E26B8903D2
:1049BC000A43E263E36B164C0B400293029B154BCC
:1049CC00802223600B2363600533A3600023E36024
:1049DC006361A361E361C02320009B012261236218
:1049EC00FDF7F4F8002801D000F084FA002217201B
:1049FC00AC631100A562FDF759F81720FDF786F896
:104A0C0009B030BD005400400010024000040050BA
:104A1C002C0500200800024030B5A1B0382200213E
:104A2C0012A800F07AFE1022002101A800F075FEF9
:104A3C003422002105A800F070FE80208000FEF7D3
:104A4C006FF980235B001593C03B1793383B1C9385
:104A5C0080239B021D9380239B041E9380230024A0
:104A6C0002259B0512A81F931295169419951A9559
:104A7C001B94FEF77FF907230193802301211B016F
:104A8C0001A8039302950494FEF7E4FB054B05A8DB
:104A9C000593089409940D940F94FEF79DFC21B096
:104AAC0030BDC0466040200010B5FCF7EDFBFFF7B1
:104ABC00B3FFFFF79FFEFFF787FEFFF70FFEFFF731
:104ACC0021FF00F065FD00F017FA00F051FD00F039
:104ADC00DBFC00F08DFC8021002249001048FDF722
:104AEC0055FA6420FCF7F6FB8021012249000C48A2
:104AFC00FDF74CFA8021012289000948FDF746FA9E
:104B0C00A02001220221C005FDF740FA00F0AEFA08
:104B1C000448FEF7C1FD0448FEF7BEFDFEE7C046A3
:104B2C0000040050880A0020C80A00208023F0B539
:104B3C00026889B00700DB059A4200D0B7E0DD4C73
:104B4C002000FCF781FF012120004942FCF710FDF9
:104B5C002000FCF769FDFCF703FB0022D64BFBF7AA
:104B6C0035FDD64AD64BFBF731FD0490059120005C
:104B7C00FCF76AFF012120004942FCF7F9FC2000F8
:104B8C00FCF752FDFCF7ECFA0022CB4BFBF71EFDB9
:104B9C00CA4ACB4BFBF71AFD06900791002000F098
:104BAC0031FAC84C002123780220DB43237000F03B
:104BBC009BFB2378C44AC54C1268C549200000F001
:104BCC006FFEC44D01236A682968200000F078FB51
:104BDC001421022000F088FBBF4EC049327820001F
:104BEC0000F05EFE6A6801232968200000F068FB73
:104BFC002821022000F078FB04980599FCF77CFA38
:104C0C00029006980799FCF777FA03900298FCF744
:104C1C00A7FA02000B0004980599FBF757FF002236
:104C2C00AF4BFBF7D3FCFCF767FA04900398FCF747
:104C3C0097FA02000B0006980799FBF747FF002232
:104C4C00A74BFBF7C3FCFCF757FA039B01900093AF
:104C5C00029A049BA349200000F022FE06CD0123FA
:104C6C00200000F02DFB002000F0DAF98022964B9A
:104C7C0052021B68134012D0A02000220221C00552
:104C8C00FDF784F93378013333703378632B0ED905
:104C9C00A02000220221C005FDF778F9FEE7A02034
:104CAC0001220221C0053370FDF770F9EDE78E4B40
:104CBC003A689A4200D0FBE0002202218B48FDF7B3
:104CCC0065F9012204218948FDF760F98021012250
:104CDC00C9008648FDF75AF9802101220901834851
:104CEC00FDF754F980210025012249017F48FDF789
:104CFC004DF9754C01217E482560FDF741F90221E3
:104D0C00474247417A48FDF73BF903005842584166
:104D1C004000074304217648FDF732F9030058425E
:104D2C005841236880003843184320600122022137
:104D3C006E48FDF72BF92A0004216C48FDF726F983
:104D4C0001216B48FDF71CF9022147424741684895
:104D5C00FDF716F90300584258414000074304215F
:104D6C006348FDF70DF90300584258418000236851
:104D7C003843C00018432060012204215B48FDF732
:104D8C0005F980212A00C9005848FDF7FFF80121D8
:104D9C005748FDF7F5F80221474247415448FDF7C3
:104DAC00EFF8030058425841400007430421504893
:104DBC00FDF7E6F803005842584180218000236833
:104DCC0038438001184320600122C9004748FDF791
:104DDC00DDF880212A0009014448FDF7D7F80121AC
:104DEC004348FDF7CDF80221474247414048FDF7C3
:104DFC00C7F80300584258414000074304213C487F
:104E0C00FDF7BEF80300584258418021800023680A
:104E1C003843400218432060012209013348FDF752
:104E2C00B5F880212A0049013048FDF7AFF801217F
:104E3C002F48FDF7A5F80221474247412C48FDF7C2
:104E4C009FF803005842584140000743042128486A
:104E5C00FDF796F8030058425841802180002368E2
:104E6C003843000318432060012249011F48FDF715
:104E7C008DF8A0202A000221C005FDF787F88021BB
:104E8C001A48C901FDF77CF88021060089011748F2
:104E9C00FDF776F87542754140000543A020236864
:104EAC00ED031D4301220221C0052560FDF76EF8BC
:104EBC0009B0F0BDC80400200000303F1CEBE23606
:104ECC001AC014401006002098000020D4050020C1
:104EDC00D15F00080800002094000020DD5F00086E
:104EEC0000005940E75F0008002C0140000400500E
:104EFC00000C0050704700001048114B10B50360B7
:104F0C008223C0225B00436000239200C260013AFE
:104F1C00FF3A8261FA3A836003614361C3610362C1
:104F2C0043628362FF3A03630833C2624363FEF752
:104F3C0055FB002801D0FFF7DDFF10BD1406002043
:104F4C000030014010B5040088B01422002103A8E1
:104F5C0000F0E3FB194B22689A422CD18020184BAD
:104F6C004001196C0224014319641A6C024001209F
:104F7C000092009A596B014359635A6B03A9024082
:104F8C000192019A5A6BA02022435A635B6BC005B5
:104F9C0023400293029BC02304940393FCF748FF25
:104FAC0008230393002303A906480494059306934E
:104FBC000793FCF73DFF08B010BDC0460030014020
:104FCC00001002400004005010B5034A13785C1C1A
:104FDC001470C15410BDC046B204002007B580B295
:104FEC0092B2019200910200012378210348FDF74F
:104FFC0073F90022024B1A7007BDC04688050020C9
:10500C00B2040020421E90418222002303494042F8
:10501C00D200585401339342FBD17047A2000020B8
:10502C00030001200D4A10B5107018400DD08222DB
:10503C004020591E49105143094B5918FFF7CEFF18
:10504C00084A13780133137010BD07495B08503BB5
:10505C000B70102348708B700322EFE7B304002011
:10506C00A2000020B40400207806002010B56420B3
:10507C00FCF730F9444CAE212000FFF7A5FF2021AE
:10508C002000FFF7A1FF10212000FFF79DFFB021AA
:10509C002000FFF799FFC8212000FFF795FF0021A2
:1050AC002000FFF791FF10212000FFF78DFF40211A
:1050BC002000FFF789FF81212000FFF785FFFF21EA
:1050CC002000FFF781FFA1212000FFF77DFFA62123
:1050DC002000FFF779FFA8212000FFF775FF3F2183
:1050EC002000FFF771FFA4212000FFF76DFFD321F3
:1050FC002000FFF769FF00212000FFF765FFD52195
:10510C002000FFF761FFF0212000FFF75DFFD921A0
:10511C002000FFF759FF34212000FFF755FFDA215B
:10512C002000FFF751FF12212000FFF74DFFDB217C
:10513C002000FFF749FF20212000FFF745FF8D21BC
:10514C002000FFF741FF14212000FFF73DFFAF21A6
:10515C002000FFF739FF0D4B21001A780020FFF7D4
:10516C003DFF0B48FCF760FE0228FAD00020FFF749
:10517C0049FF0020FFF754FF0022064B1A805A808B
:10518C0001325A7110BDC04678060020B2040020CE
:10519C002C0500209C000020094B026810B59A4297
:1051AC0009D1084B1A78012A05D1074908780F282C
:1051BC0002D8FFF735FF10BD00220A701A70FAE70B
:1051CC0000540040B3040020B404002030B5812802
:1051DC0015D83F2913D80D4B1B79002B02D0534205
:1051EC005A41D2B28223CD086B4318180723084CBE
:1051FC001940012A04D18A40235C1A43225430BD41
:10520C0001228A40235C93432354F8E79C0000203E
:10521C00A2000020F0B58BB00593CBB20393274BC3
:10522C000891099203991A88060002925218812A51
:10523C0041DC08AA527804925C88A3183F2B3ADC14
:10524C003300203B5A4300230792E4B20193019BA5
:10525C00049A934208D3039A029B9446174A6344D8
:10526C00138030000BB0F0BD079A019B00279B18F0
:10527C00099A5B009B5A06936B461D7A039B9F42CF
:10528C0005D3019B013401330193E4B2DFE7069BA4
:10529C008022BB401202134208D0059A280021003C
:1052AC000135FFF793FF0137EDB2E7E7059A53425B
:1052BC005A41D2B2F2E70026D3E7C0469C00002048
:1052CC0037B504001D00009101922078002800D110
:1052DC003EBD2B000099019AFFF79CFF030020783C
:1052EC008342F5D10134F0E7014B188059807047A7
:1052FC009C00002001200D4B82B0196C01431964F5
:10530C0080211A6C490502400092009ADA6B0A431C
:10531C00DA63DB6B064A0B400193019B8023116817
:10532C00DB000B43136002B07047C0460010024014
:10533C00000001407047FEE77047704710B5FBF75F
:10534C00B7FF10BD10B50248FCF71AFD10BDC046E2
:10535C002C05002010B50248FCF76CF910BDC046B6
:10536C00C804002010B50248FEF7AEF910BDC046C7
:10537C00880A002010B5FFF7F5FF10BD10B50248E4
:10538C00FEF7A2F910BDC046C80A0020064810B5A9
:10539C0003689A69E023DB001A4202D0FDF722FC75
:1053AC0010BDFDF73FF8FBE7880500200A4B10B550
:1053BC0019680200002901D108491960694618686A
:1053CC0082188A4206D900F075F90C23036001207B
:1053DC00404210BD1A60FCE7B8040020980B002076
:1053EC008022024B12059A607047C04600ED00E027
:1053FC0030B595B01022002103A800F08EF90C22D4
:10540C000021684600F089F93422002107A800F039
:10541C0084F91B4C1B4B642223601F236360002305
:10542C002000A360E26023616361A361FEF750FA80
:10543C00002801D0FFF75EFD802303A95B0120004B
:10544C000393FEF76DFA002801D0FFF753FD0025FA
:10545C0069462000009501950295FEF7F7FAA842DF
:10546C0001D0FFF747FD07A920000E951295FEF716
:10547C0017FB002801D0FFF73DFD15B030BDC0462D
:10548C00880A0020002C014010B588B010220021A1
:10549C0004A800F042F90C22002101A800F03DF90B
:1054AC008023154CDB0523604023FF33636000230E
:1054BC00124A2000A360E2602361A361FEF708FAA0
:1054CC00002801D0FFF716FD802304A95B01200002
:1054DC000493FEF725FA002801D0FFF70BFD0023FB
:1054EC0001A9200001930393FEF7B0FA002801D024
:1054FC00FFF700FD08B010BDC80A0020C819000055
:10550C0007B50368184A93421AD18020174A000144
:10551C00116C01431164136C0022034011000093C1
:10552C000D20009BFCF7C2FA0D20FCF7EFFA0022CD
:10553C000E201100FCF7BAFA0E20FCF7E7FA07BDB3
:10554C008022D2059342FAD10120084AD16B014343
:10555C00D163D36B0022034001930E301100019BE9
:10556C00FCF7A4FA0F20E8E7002C014000100240E1
:10557C008020064A8004D16B82B00143D163D36B87
:10558C0003400193019B02B07047C04600100240DB
:10559C0010B5184B184C0C222360184B200063607C
:1055AC0080235B05A36000236261E3602361A36138
:1055BC0023626362A3626366FEF7BCFF002801D01E
:1055CC00FFF798FC00212000FFF742F8002801D0DB
:1055DC00FFF790FC00212000FFF75CF8002801D0B9
:1055EC00FFF788FC2000FFF717F8002801D0FFF721
:1055FC0081FC10BD00800040080B00202433030008
:10560C0010B5040088B01422002103A800F085F81E
:10561C00114B22689A421CD18020104B4003D96B4D
:10562C000143D9630121DA6B02400192019A5A6B52
:10563C00A0200A435A635B6BC0050B400293029B8C
:10564C000C2303930A3B049303A904330793FCF73D
:10565C00EFFB08B010BDC0460080004000100240B7
:10566C000D488546002103E00C4B5B584350043138
:10567C000B480C4B42189A42F6D30B4A02E000231B
:10568C0013600432094B9A42F9D3FFF7A9FE00F0DC
:10569C0017F8FFF709FAFEE700900020FC6D0008F0
:1056AC00000000207800002078000020980B0020DB
:1056BC00FEE70000014B18687047C046140000203C
:1056CC0070B500260C4D0D4C641BA410A64209D1DC
:1056DC00002600F043FC0A4D0A4C641BA410A642A1
:1056EC0005D170BDB300EB5898470136EEE7B30017
:1056FC00EB5898470136F2E7F46D0008F46D00089A
:10570C00F46D0008F86D0008002310B59A4200D122
:10571C0010BDCC5CC4540133F8E7030082189342EB
:10572C0000D1704719700133F9E7000070B505001E
:10573C00002910D00C1F2368002B00DAE418280075
:10574C0000F0D0F81D4A1368002B05D1636014607B
:10575C00280000F0C8F870BDA34209D92168601870
:10576C008342F3D118685B6841182160EEE713009F
:10577C005A68002A01D0A242F9D919685818A042D7
:10578C000BD120680918581819608242E0D11068B2
:10579C005268411819605A60DAE7A04202D90C230A
:1057AC002B60D5E721686018824203D110685268DB
:1057BC004118216062605C60CAE7C046BC040020EE
:1057CC00032370B5CD1C9D43083506000C2D1ED24D
:1057DC000C25A9421DD8300000F084F8254A146825
:1057EC002100002919D1244C2368002B03D130004F
:1057FC0000F044F820602900300000F03FF8431C12
:10580C002CD10C233000336000F06DF803E0002D38
:10581C00DFDA0C233360002070BD0B685B1B1AD4DD
:10582C000B2B03D90B60CC18256003E08C420ED1F6
:10583C0063681360300000F056F8200007220B302C
:10584C00231D9043C31AE7D05A42E250E4E74B6859
:10585C0063600C00EEE70C004968C2E70323C41C2C
:10586C009C43A042E0D0211A300000F007F8431C02
:10587C00DAD1C6E7BC040020C0040020002370B5B8
:10588C00064C050008002360FFF790FD431C03D174
:10589C002368002B00D02B6070BDC046940B0020F9
:1058AC000EB410B59DB002A9029008610B48822479
:1058BC0088604861012040421FABC881084804CB76
:1058CC00A400006801938C8100F070F80023029A08
:1058DC0013701DB010BC08BC03B01847FFFFFF7F4E
:1058EC001400002070477047F0B58E6885B0070033
:1058FC000C00039201939E4239D890238A89DB00D5
:10590C001A4234D00325096923685B1A0293636930
:10591C0002985D43EB0F5D19019B6D1001331B1851
:10592C00AB4200D91D00530532D529003800FFF7D2
:10593C0047FF061E09D10C233B6040230120A2899E
:10594C0040421343A38105B0F0BD029A2169FFF7D1
:10595C00DBFEA389144A1A4080231343A381029BC4
:10596C002661F61826606561019EED1AA560019B03
:10597C00B34200D21E0032000399206800F0ADFA49
:10598C00A36800209B1BA36023689E192660DAE79E
:10599C002A00380000F0B3FA061EE0D12169380065
:1059AC00FFF7C4FEC7E7C0467FFBFFFFF0B59FB013
:1059BC00029005938B890F0016001B0611D50B69FD
:1059CC00002B0ED14021FFF7FBFE38603861002818
:1059DC0005D10C23029A013813601FB0F0BD40238F
:1059EC007B61002306AD6B6120336B761033AB7695
:1059FC0034002378002B47D1A31B04930DD0A31B99
:105A0C00320039000298FFF76FFF431C00D1B5E05C
:105A1C006A69049B944663446B612378002B00D124
:105A2C00ACE00122002352426A6002A9543252189F
:105A3C0001342B60EB60AB601370AB65584E0522E4
:105A4C002178300000F03EFA621C002820D1296831
:105A5C00CB0604D5532302AE20309B1918700B07CC
:105A6C0004D553232B2002AE9B19187023782A2BB4
:105A7C0016D000200A21099B2278303A092A55D9E0
:105A8C00002815D0099313E0252BB5D00134B0E7CD
:105A9C000123801B8340296814000B432B60CDE746
:105AAC00059B181D1B680590002B39DB099314000E
:105ABC0023782E2B0BD16378621C2A2B3ED1059BAD
:105ACC0002341A1D1B680592002B34DB0793354EEC
