:020000040800F2
:10000000009000208D5A0008015600080356000891
:1000100000000000000000000000000000000000E0
:10002000000000000000000000000000055600086D
:1000300000000000000000000756000809560008F4
:10004000DD5A0008DD5A0008DD5A0008DD5A0008B4
:10005000DD5A0008DD5A0008DD5A0008DD5A0008A4
:10006000DD5A00081156000821560008DD5A000824
:1000700039560008595600084956000861560008CC
:1000800071560008DD5A0008DD5A0008DD5A0008E4
:10009000DD5A0008DD5A0008DD5A000881560008C4
:1000A000DD5A0008DD5A0008DD5A0008DD5A000854
:0C00B000A1560008DD5A0008DD5A0008C7
:1000BC0010B5064C2378002B07D1054B002B02D032
:1000CC00044800E000BF0123237010BD680200202B
:1000DC0000000000DC630008044B10B5002B03D0BB
:1000EC000349044800E000BF10BDC04600000000FA
:1000FC006C020020DC63000802780B78002A03D025
:10010C00013001319A42F7D0D01A70470023C25CFB
:10011C000133002AFBD1581E7047000002B471460F
:10012C0049084900095C49008E4402BC7047C0462E
:10013C0003B47146490840004900095A49008E44ED
:10014C0003BC7047002243088B4274D303098B42D3
:10015C005FD3030A8B4244D3030B8B4228D3030C8B
:10016C008B420DD3FF22090212BA030C8B4202D32D
:10017C001212090265D0030B8B4219D300E0090A55
:10018C00C30B8B4201D3CB03C01A5241830B8B425E
:10019C0001D38B03C01A5241430B8B4201D34B0347
:1001AC00C01A5241030B8B4201D30B03C01A5241AC
:1001BC00C30A8B4201D3CB02C01A5241830A8B4231
:1001CC0001D38B02C01A5241430A8B4201D34B021A
:1001DC00C01A5241030A8B4201D30B02C01A52417E
:1001EC00CDD2C3098B4201D3CB01C01A5241830932
:1001FC008B4201D38B01C01A524143098B4201D36C
:10020C004B01C01A524103098B4201D30B01C01A96
:10021C005241C3088B4201D3CB00C01A5241830810
:10022C008B4201D38B00C01A524143088B4201D33D
:10023C004B00C01A5241411A00D20146524110469D
:10024C007047FFE701B5002000F0F0F802BDC04692
:10025C000029F7D076E7704703460B437FD4002282
:10026C0043088B4274D303098B425FD3030A8B423E
:10027C0044D3030B8B4228D3030C8B420DD3FF22A8
:10028C00090212BA030C8B4202D31212090265D076
:10029C00030B8B4219D300E0090AC30B8B4201D329
:1002AC00CB03C01A5241830B8B4201D38B03C01A70
:1002BC005241430B8B4201D34B03C01A5241030BE7
:1002CC008B4201D30B03C01A5241C30A8B4201D398
:1002DC00CB02C01A5241830A8B4201D38B02C01A43
:1002EC005241430A8B4201D34B02C01A5241030ABA
:1002FC008B4201D30B02C01A5241CDD2C3098B429F
:10030C0001D3CB01C01A524183098B4201D38B011B
:10031C00C01A524143098B4201D34B01C01A5241BE
:10032C0003098B4201D30B01C01A5241C3088B4203
:10033C0001D3CB00C01A524183088B4201D38B00EE
:10034C00C01A524143088B4201D34B00C01A524190
:10035C00411A00D201465241104670475DE0CA0F67
:10036C0000D04942031000D34042534000229C4627
:10037C0003098B422DD3030A8B4212D3FC22890131
:10038C0012BA030A8B420CD3890192118B4208D307
:10039C00890192118B4204D389013AD0921100E069
:1003AC008909C3098B4201D3CB01C01A524183097D
:1003BC008B4201D38B01C01A524143098B4201D3AA
:1003CC004B01C01A524103098B4201D30B01C01AD5
:1003DC005241C3088B4201D3CB00C01A524183084F
:1003EC008B4201D38B00C01A5241D9D243088B42A5
:1003FC0001D34B00C01A5241411A00D20146634648
:10040C0052415B10104601D34042002B00D54942AB
:10041C00704763465B1000D3404201B5002000F0EA
:10042C0005F802BD0029F8D016E770477047C046A2
:10043C00002B11D1002A0FD1002900D1002802D0A5
:10044C000021C943081C07B4024802A140180290BD
:10045C0003BDC046D9FFFFFF03B4684601B502983F
:10046C0000F006F8019B9E4602B00CBC7047C046DB
:10047C00F0B557464E464546DE46E0B5040083B01F
:10048C000D00924699468B422FD82CD049465046A7
:10049C0000F0AEF829000600200000F0A9F8331A8D
:1004AC009846203B9B4600D574E053465A469340F1
:1004BC001F005346424693401E00AF4229D826D017
:1004CC005B46A41BBD41002B00DA79E0002200231F
:1004DC000092019301235A46934001930123424613
:1004EC009340009319E08242D0D90022002300925D
:1004FC0001930C9B002B01D01C605D60009801994E
:10050C0003B03CBC90469946A246AB46F0BDA34214
:10051C00D6D900220023009201934346002BE8D049
:10052C00FB0772081A4346467B080EE0AB4201D12A
:10053C00A2420CD8A41A9D41012024196D4100211E
:10054C00013E24184D41002E06D0AB42EED9013E9F
:10055C0024196D41002EF8D15B46009801990019C1
:10056C006941002B22DB2B005A46D3402A0044461B
:10057C00E2401C005B461500002B2CDB26009E4045
:10058C00330026004746BE403200801A9941009045
:10059C000191AEE7424620239B1A5246DA4041466F
:1005AC0013004A468A4017001F4382E74246202325
:1005BC009B1A2A0046469A402300F3401343D5E782
:1005CC004246202300219B1A002200910192012215
:1005DC00DA40019282E74246202326009B1ADE4035
:1005EC002F00B446974066463B003343C9E7C046EC
:1005FC0010B5002903D100F007F8203002E0081CE8
:10060C0000F002F810BDC0461C2101231B049842C7
:10061C0001D3000C10391B0A984201D3000A083987
:10062C001B09984201D30009043902A2105C40183E
:10063C007047C046040302020101010100000000E2
:10064C0000000000104B70B519680500002901D19D
:10065C00012070BDFA208000FFF774FD0B4B0100E8
:10066C001868FFF76FFD00F097FB041EF0D1032D07
:10067C00EED8020001202900404200F051FB044B4F
:10068C0020001D60E5E7C0460000002000020020AD
:10069C00040000208023084A5B00116810B50B434E
:1006AC0013600020FFF7CEFF041E03D104F082FF7D
:1006BC00200010BD0124FBE700200240034A04493E
:1006CC00136809685B1813607047C046AC060020BD
:1006DC0000000020014B18687047C046AC06002093
:1006EC0070B50400FFF7F6FF0500631C02D0044B45
:1006FC001B68E418FFF7EEFF401B8442FAD870BD6C
:10070C000000002080684007C00F70470023F0B540
:10071C0085B0040003930125984200D19AE0856DC1
:10072C009D4205D103F022FD23005433E5651D7075
:10073C00802326685B05B2681A4200D1D0E0B3680A
:10074C000025DB0000D4D8E03000FFF7DBFF1023DE
:10075C00A66D1E4000D0BEE0002800D0BBE0A36D0B
:10076C007C4A1A4002231343A36523689A68D20774
:10077C0000D4CBE0276B217E781E8741627E380344
:10078C00D20389030190E0681143A27E01432069E2
:10079C00944652031143002866DA47007F08220072
:1007AC002C32127852000A4301990A4317430197DD
:1007BC00621CD27F012A07D16146002957D18022C1
:1007CC003900520211430191626A002A07D0E021DC
:1007DC0049000A40A16A0A43019911430191616CD5
:1007EC00226C0A43A16C0A43E16C0A4321003C31A0
:1007FC000978012900D10A43D968574F3940019F24
:10080C003943D9601969554F39400A43072170277C
:10081C001A615A698A43616B0A435A615A69A16B1E
:10082C00BA4309010A435A6100282AD11022996A55
:10083C0052420A439A624A4ADB681340019A9A422E
:10084C003DD100230322E365A36D93431A000123DA
:10085C001343A365280005B0F0BD039B013B039334
:10086C00039B002BF9D16AE78027BF0397E7A16DA3
:10087C008C46202167463943A165E16D0A43E26548
:10088C00A2E7802292039042D5D10F20216E0F0057
:10089C00B200D7403A0002400F2A0DD00136082E84
:1008AC00F5D130489A6AE26912181C209200024075
:1008BC002C3890400200BCE7012EB7D0F1E7122291
:1008CC00A36D012593431A0010231343A365E36D15
:1008DC002B43E365BEE7A26D01251343A365B9E77E
:1008EC00B26821490A401343B360204B2049186871
:1008FC00FFF728FC40000390B2E710230125A26DFE
:10090C001343A365E36D2B43E3651DE71821DA68F8
:10091C008A43A1680A43DA6061681A69880F9200F9
:10092C0080079208024380201A614A005208C005D1
:10093C00824200D11EE780221206914200D119E7B3
:10094C000C480D4F02683A40F027BF0339400A4368
:10095C0002600FE7FDFEFFFF1902FEFF02FCFFDF46
:10096C00E7FF3F83FFFFFF3FE8FFFF6F0002002020
:10097C00400D030008270140FFFFC3FF704770477D
:10098C0070470000F8B5036804001D685E68022318
:10099C001D420FD01E420DD0836DDB0604D4802384
:1009AC00826D1B0113438365200000F0B7F902220E
:1009BC0023681A6004231D4201D01E4204D108236F
:1009CC001D422AD01E4228D0A36DDB0604D48023FE
:1009DC00A26D9B001343A365C02320681B01C26852
:1009EC001A4214D1A37E002B11D103681B070ED51C
:1009FC00FFF788FE00285AD10C21226853688B43DC
:100A0C005360A36D354A1A4001231343A36520009C
:100A1C00FFF7B4FF0C2223681A6080273D420BD0ED
:100A2C003E4209D08023A26D5B021343A3652000D4
:100A3C00FFF7A5FF23681F6080277F003D420BD086
:100A4C003E4209D08023A26D9B021343A365200074
:100A5C0000F062F923681F608027BF003D420BD075
:100A6C003E4209D08023A26DDB021343A365200014
:100A7C0000F053F923681F6010231D420BD01E4257
:100A8C0009D0236B002B1BD02368DB689B0717D185
:100A9C00102223681A608027BF013D4206D03E42D7
:100AAC0004D0200000F03BF923681F60F8BD202320
:100ABC00A26D1343A3650123E26D1343E365A6E71F
:100ACC008023A26DDB001343A3650223E26D20009B
:100ADC001343E365FFF754FFDAE7C046FEFEFFFF62
:100AEC000023F0B589B00793030054331A7805003E
:100AFC000F000224012A00D1C1E0012600681E70FB
:100B0C00FFF700FE0390002800D0EFE004228021C4
:100B1C007B689446019301982B6909063A68A042B8
:100B2C0000D1B6E0604683438B4213D1296853034E
:100B3C00886A5B0B03438B622868BB686E49446907
:100B4C001940614013020B4063404361002A65DB8E
:100B5C00002491E01F21019B0B4002930F2302986C
:100B6C008340DB43049304982B6E0340059350039E
:100B7C001300002815D1900E084002998840059961
:100B8C000843019928668908E86901318142D3D864
:100B9C00029C29689B001B0F886AA340049C204080
:100BAC00C8E703983242E8D130002242E5D16146D1
:100BBC0020000A42E1D103201107DED46046D106A1
:100BCC00DBD405209106D8D401305106D5D40130A0
:100BDC001106D2D40130D105CFD401309105CCD43B
:100BEC0001305105C9D401301105C6D40130D104EE
:100BFC00C3D401309104C0D401305104BDD40130B0
:100C0C001104BAD40130D103B7D401309103B4D458
:100C1C008020C0021040B0D01220AEE7E021374B4C
:100C2C0037481C6849042140824217D180200004B7
:100C3C0004428DD11A68334C22400A4302431A6095
:100C4C00314B32491868FFF77DFA0790079B002B50
:100C5C0000D17DE7079B013B0793F7E72C488242C5
:100C6C0010D180204004044000D071E71A68254E52
:100C7C0032400A4302431A60002354352B70200083
:100C8C0009B0F0BD2348824200D061E78020C00348
:100C9C00E9E7604683438B4205D128685103836A98
:100CAC00490B8B438362002A00DB51E7134B144939
:100CBC0018688A4208D1A0221C68520411490240CB
:100CCC0021400A431A6043E711498A4203D1C022EA
:100CDC001C681204F2E70F498A4200D038E7C022A0
:100CEC0052041968024007480140EAE72023AA6D24
:100CFC0034001343AB65BFE700FFFF070827014033
:100D0C00001000B0FFFF3FFE00020020400D03006A
:100D1C00004000B8002000B470477047704770471F
:100D2C0070B58901002812DB8308134A03249B0049
:100D3C009B18FF222040A0401400C0258440114085
:100D4C008140AD005E59A6433143595170BD032417
:100D5C000F23C0B203402040A040FC3425002140AA
:100D6C0085408140083B054A9B089B009B18DA692B
:100D7C00AA431143D961E9E700E100E000ED00E08E
:100D8C00002805DB1F2318401E3B8340014A1360DB
:100D9C007047C04600E100E0094A431E012093421F
:100DAC000DD8C021074A08485360036A09061B0284
:100DBC001B0A0B43036200200723906013607047EB
:100DCC00FFFFFF0010E000E000ED00E0F0B5846CE8
:100DDC00C56C6560046D002C02D0446D856D65603A
:100DEC001C25046C084E25400124AC4077683C431C
:100DFC007460046863608368102B02D1A260E160A8
:100E0C00F0BDA160E260FBE70000024010B50400F9
:100E1C00007814210838FFF795F9236C064A9B08D3
:100E2C009B189B006364054BA3641C2318401B3B5D
:100E3C008340E36410BDC04600820010800802406D
:100E4C0070B504000120002C48D02568264B1421D5
:100E5C00E818FFF777F902238000A61D2064F377CA
:100E6C002B68224AE16813402B60A3682A680B4365
:100E7C00216920000B4361690B43A1690B43E169B4
:100E8C000B43216A0B4313432B60FFF7BFFF8023F7
:100E9C00A268DB019A4201D1002363606268616C35
:100EAC00D3B20B60E06CA16C013A4860032A16D8EF
:100EBC000F4A104899180322013B1340023A9A40FA
:100ECC00A265130000228900216560650A604360F9
:100EDC0000200123E0630534F377E07770BD002335
:100EEC0023656365A365F3E7F8FFFDBF0F80FFFF84
:100EFC003F82001040090240F8B5461DF57F040002
:100F0C000220012D30D00125A71DF577FD7FEDB214
:100F1C00012D27D1F87700202768E0633868A843B3
:100F2C0038602000FFF752FF226B2368002A1CD088
:100F3C000E2219680A431A60626C1168C90304D541
:100F4C0080211068490001431160226D002A04D0F1
:100F5C0080211068490001431160012200201968AA
:100F6C000A431A600023F377F8BD04211A688A43F8
:100F7C001A6019680A22DDE70300F0B50120002B86
:100F8C0009D0981DC27F5C1D022A05D00422DA63A9
:100F9C0000230120E377F0BD0E2519685E6C0A680A
:100FAC00AA430A603268114D2A40326001220E6851
:100FBC00944696430E601C211A6C0D4E11406246ED
:100FCC008A4077683A437260D96C9A6C51601A6D9A
:100FDC00002A05D01168294011605A6D9B6D536031
:100FEC000123C3770020E077D5E7C046FFFEFFFF63
:100FFC0000000240F8B50123411DCB77841DE27F30
:10100C00022A03D00422C2631800F8BD0E2602681F
:10101C001568B54315601568466C9D4315603268BC
:10102C00114D2A4032601C22AC46056C0F4E2A40F2
:10103C00934077683B437360C26C836C5A60036D5A
:10104C00002B06D065461A682A401A60436D826DE3
:10105C005A600123E3770024826BCC771300A24201
:10106C00D2D090472300CFE7FFFEFFFF00000240E5
:10107C00F8B51C210427046C264B21403C008C4005
:10108C001E680268156834420FD03D420DD01168BD
:10109C00890602D41168B94311605A6814435C6024
:1010AC00036B002B1BD0984719E002273C008C40A7
:1010BC00344215D03D4213D01168890606D40A2556
:1010CC001168A94311600121821DD1775A6814431C
:1010DC0000225C60431DDA77C36A9342E3D1F8BD0A
:1010EC00082427008F403E42F9D02542F7D00E2528
:1010FC001468AC431460012215008D4029005C6813
:10110C0021435960831DC263DA770022431DDA77CD
:10111C00436BE2E7000002400630C07FC0B270476C
:10112C00C06B7047F0B50B6885B00293002301913A
:10113C00029ADA4001D105B0F0BD01229A40039227
:10114C000399029A0A40009200D185E0019A10217D
:10115C00526816008E43022E0ED107251D40AD009D
:10116C000139A940DC08A4000419276A8F430199AE
:10117C000969A9400F43276203245F00BC40E44384
:10118C000568013E2540AC4603251540BD4061462F
:10119C000D430560012E0FD801998668CD68264055
:1011AC00BD40354385604668039915098E4301217E
:1011BC000D409D4035434560C56801992C408D68B4
:1011CC008021BD4049052C43C4600A4244D003260B
:1011DC000F2422499D081E40AD00F6006D18B44046
:1011EC00A0212F6EC905A743002488420CD01C49AE
:1011FC000134884208D01B490134884204D01A4972
:10120C000334884200D1023CB44000993C430E00A8
:10121C002C66164CCD43E76F3E43D10301D43E0000
:10122C002E40E667124E009FF46F2743910301D4C2
:10123C002C402700094CF7672768009E3E43D102DB
:10124C0001D43E002E4026606668009F3743920210
:10125C0001D42E4037006760013369E70018024063
:10126C000004005000080050000C0050041802400C
:10127C000818024000690840411E8841C0B27047FE
:10128C00002A01D0816170478162FCE703689A698A
:10129C00920701D500229A6201229969114202D16A
:1012AC0099690A439A61704770B5049E8905334366
:1012BC00890D194380230468DB00700D1840044B22
:1012CC00656812041843854311432943616070BD5E
:1012DC00FF63FF0310B5436B164C0422A34202D0EC
:1012EC00154CA34214D10023114200D0B833112263
:1012FC000A40112A01D17F3213431222114091422C
:10130C0001D14E321343026811680B43136010BDB8
:10131C000023114200D0B833CA0701D5F22213437F
:10132C008A0701D5F4221343122211409142EAD1CB
:10133C000E32E7E76D1D00088D1C000810B5002368
:10134C00CA0708D5030041331A7828231A401A33E8
:10135C00282A00D0B0338A0708D50200282441324D
:10136C0012782240A24216D1442213434A0701D5D7
:10137C00B822134311220A40112A01D17F321343A0
:10138C0012221140914201D14E32134301680A6876
:10139C009A430A6010BDF422E7E7F8B504000E008A
:1013AC0017001D002268936933409B1B59424B4127
:1013BC00BB4201D0002017E06B1CF4D0FFF78AF978
:1013CC00069BC01A854201D3002DEBD12022636C01
:1013DC00012013436364230041331A70220000235D
:1013EC004232403413702370F8BD0000F8B5036826
:1013FC000400986910230E001700184020250028BF
:10140C0018D1F8BD721C16D0FFF764F9C01B8642C8
:10141C0001D3002E0ED12022636C1343636423008E
:10142C0041331A70220000234232403413700120E1
:10143C002370E6E723689A692A42E3D01022200041
:10144C00DA61DD61FFF722FF2268064953680B4021
:10145C0053600423626C13436364230041331D7097
:10146C00E0E7C04600E800FEF8B504000D001600E9
:10147C00022723689B693B4201D00020F8BD320053
:10148C0029002000FFF7B2FF002815D16B1CF0D00B
:10149C00FFF720F9801B854201D3002DE9D12022D2
:1014AC00636C13436364230041331A7022000023DE
:1014BC0042324034137023700120DFE773B51400FF
:1014CC001E00DAB2154B0500009380235B04FFF776
:1014DC00EBFE079A06992800FFF7C6FF002801D0FB
:1014EC00012076BD2B68012E0DD1E4B29C62079BC6
:1014FC00002200938021069B2800FFF74EFF431E1D
:10150C009841C0B2EDE7220A9A620699079A280020
:10151C00FFF7AAFF0028E3D12B68E6E70020008044
:10152C0070B504000120002C3FD0250041352B78EC
:10153C00DBB2002B05D1220040321370200003F0E7
:10154C0055F8242301212B702368E0681A68A668DB
:10155C008A431A6061681A4A0A401A619968194AE2
:10156C0011409960012821D18021090231439960F1
:10157C005868154901435960D96800200A40DA605F
:10158C00616922690A43A16909020A43DA60216A86
:10159C00E2690A431A60012219680A431A6020237F
:1015AC0060642B7020634234207070BD842109026A
:1015BC00314399600228DBD1802109015960D7E7BA
:1015CC00FFFFFFF0FF7FFFFF00800002F0B5070078
:1015DC0089B007930EAB069204CB05911B8802923F
:1015EC00049341373B7804000225202B71D1002A4B
:1015FC0002D0049B002B04D180239B006364012543
:10160C0067E003689E6980231B021E4061D10300C2
:10161C0040331A78012A5CD001221A70FFF75AF86D
:10162C0021233B702300423303934023039A13700E
:10163C00029B666463626B461B8A6385324BE36272
:10164C00324B6363638DFF2B15D9FF2323858023D6
:10165C005B040493192301900093069A079B059948
:10166C002000FFF72BFF270006004037002807D08B
:10167C0000233B70C3E7638D238580239B04E8E73D
:10168C00A06B002828D0224B2268C362214B066332
:10169C0043638663238D28320299FFF72DFC051EC8
:1016AC0026D1228D0090D2B2049B05992000FFF721
:1016BC00FBFD638D228D11219B1A9BB2638520004B
:1016CC003D70FFF707FE80232268DB0111680B4396
:1016DC001360280009B0F0BD2300202241331A709A
:1016EC00039B18708023626C13436364387086E725
:1016FC002300202241331A70039B1E701023626C4E
:10170C00134363643E707AE70000FFFF6D1D000811
:10171C00951E00087D1E0008036810B599691A68AB
:10172C00436B002B00D0984710BD704770470300E7
:10173C0070B500252022060042331D70013B19783C
:10174C00040040361A7021290AD111234563036322
:10175C002039FFF7F3FD35702000FFF7E6FF70BD71
:10176C001223456303630221FFF7E8FD3570200067
:10177C00FFF7DCFFF3E770477047030070B50025F7
:10178C0042331D70013B1A780400292A0DD1013A0D
:10179C001A70212301210363FFF7D0FD230040338E
:1017AC001D702000FFF7E7FF70BD1A782A2AFBD1C5
:1017BC00023A1A70222302210363FFF7BFFD2300B4
:1017CC0040331D702000FFF7D7FFEDE77047030093
:1017DC00F7B541331A78282304001A400368282AE5
:1017EC0037D1FE279D699E699A68D968ED030191EE
:1017FC00C168360CED0F3E40022921D19205920DA5
:10180C00D1094E4006210E4010D1816C013181640A
:10181C00816C022909D106318664D96103004033F9
:10182C001E7029002000FFF7D1FFF7BD0421FFF740
:10183C0085FD2300002240331A70019A3A40F0E7EC
:10184C000421FFF77BFD2300002240331A70320085
:10185C00E7E70822DA61002340342370E5E770479C
:10186C00184B10B5C3620023020003630400202050
:10187C0041321070537004226363114212D02368FA
:10188C00616A5B6A0B70636A01336362238D002BA0
:10189C0008D0013B2385638D013B9BB26385636C50
:1018AC001A43626407212000FFF748FD10222368C9
:1018BC002000DA612300002240331A70FFF7CFFFBB
:1018CC0010BDC0460000FFFF704770477047000016
:1018DC0070B5020005000026423241352B78167097
:1018EC002F4A283BC2624685426C04001143416476
:1018FC00022B22D80321FFF721FD28232B70294B23
:10190C002663802263632368D201196811401A6828
:10191C001ED02549A06B0A401A6000280CD0234B1E
:10192C0000228363230040331A70FFF763FB002807
:10193C0002D0A06B836B984770BD0721FFF7FEFCAC
:10194C002B78602B01D020232B7000232363D8E746
:10195C0080200002024011D01A6815480240E06B4A
:10196C001A600028E8D0114B8363230040331970B0
:10197C00FFF740FB0028DFD0E06BDBE72300297882
:10198C004033602906D14039297020001A70FFF7C6
:10199C009DFFD1E71A702000FFF797FFCCE7C046F8
:1019AC000000FFFFB51A0008FFBFFFFF3D1F000836
:1019BC00FF7FFFFF2022F8B50400802503680F008D
:1019CC001E680721DA61FFF7B9FC23682D025A68FB
:1019DC0033492A435A605A6820000A405A60FFF77C
:1019EC0055FC730438D5A36B002B03D01B685B68C4
:1019FC009BB2638504231F4210D09F432368626A05
:101A0C005B6A1370636A01336362238D002B05D00C
:101A1C00013B2385638D013B9BB26385638D002B5A
:101A2C0003D00423626C134363642200002325005B
:101A3C00423223631370666C636341359E420FD050
:101A4C00616C2000FFF744FF2B78282B03D1390061
:101A5C002000FFF705FFF8BD2E42CBD0E36BC3E7A8
:101A6C002700E36A0F4A403793420BD02000FFF760
:101A7C0084FE0C4B2000E36220232B703E70FFF79A
:101A8C00EEFEE8E720232A7820002B703E70222AF5
:101A9C0002D1FFF771FEDEE7FFF76DFEDBE7C04614
:101AAC0000E800FE0000FFFFF8B507004037160005
:101ABC003A780400C36A0D000220012A21D00122C9
:101ACC003A700F3211423BD0164239D0618D002949
:101ADC0028D1220041321178282913D18021890480
:101AEC008B420FD129002000FFF7BAFE20231D42A4
:101AFC0005D01E4203D029002000FFF75BFF002019
:101B0C003870F8BD102110782268D1612928EDD1E8
:101B1C002C488342EAD02000FFF7B8FB2000FFF7E7
:101B2C002CFEE3E72168CA610422616C0A436264FB
:101B3C00254A1342DAD1616C2000FFF7C9FED5E7C4
:101B4C00042215421AD0164218D0618D00290ED0ED
:101B5C0095432268616A526A0A70626A0132626253
:101B6C00228D013A2285628D013A92B26285628D94
:101B7C00002ABBD1134A9342D0D1B7E708221542B1
:101B8C0005D0164203D02000FFF721FEAEE702225B
:101B9C001542ABD01642A9D0628D002A0DD0636AD3
:101BAC0022681978013391626362638D013B9BB2A9
:101BBC006385238D013B238598E7034A134200D0AC
:101BCC0094E7ABE70000FFFFFFFFFFFE2022036856
:101BDC0010B5DA615A680400274802405A600022A6
:101BEC0022636263254AE2621022114204D0DA6158
:101BFC000423626C134363642000FFF747FB03214B
:101C0C002000FFF79BFB22004132636C11786029A6
:101C1C0001D0002B04D0616C2000FFF759FE10BDE1
:101C2C001178212912D10139117022002100423280
:101C3C001078403113700B70402803D1200003F052
:101C4C000BFCECE72000FFF770FDE8E71178222988
:101C5C00E5D1023911702200210042321078403156
:101C6C0013700B70402803D12000FFF72DFED6E730
:101C7C002000FFF75BFDD2E700E800FE0000FFFF4D
:101C8C00F8B5050040352B780400C66A0220012BFC
:101C9C002DD001232B700F3319424BD01A4249D04F
:101CAC00C0200002024242D0E06B031E06D000238B
:101CBC00170403D503685B6858424341A06B0028A6
:101CCC0005D0520403D502685268002A01D0012BBA
:101CDC001ED1230041331A78282A09D1802292047C
:101CEC00964205D12000FFF7BBFD00202870F8BDFF
:101CFC00102219782368DA612929F6D116498E4207
:101D0C00F3D02000FFF7C2FA2000FFF736FDECE716
:101D1C0010222368DA610423626C134363640F4B53
:101D2C001E42E2D1616C2000FFF7D2FDDDE7226894
:101D3C00D361DAE70823194205D01A4203D02000F8
:101D4C00FFF745FDD1E720231942CED01A42CCD063
:101D5C002000FFF72FFEC8E70000FFFFFFFFFFFE8C
:101D6C0037B5050040352B7804000220012B15D027
:101D7C0001232B700F33194211D01A420FD0226855
:101D8C002000D361626C0C3B134363641221FFF798
:101D9C00A1FA2000FFF77AFA002028703EBD4023FC
:101DAC00080644D51A4242D0226811689943116042
:101DBC00638D002B2FD05168638D8905890DFF2B06
:101DCC001BD9FF23238580235B040020228D0090E8
:101DDC00D2B22000FFF768FA638D228D9B1A9BB25A
:101DEC006385230041331A7823681968222A0FD19E
:101DFC00802212020A431A60CEE7638DE26A2385C1
:101E0C001A4B9A4201D0E36ADFE780239B04DCE79C
:101E1C008022D201EEE753689B0103D42000FFF728
:101E2C0086FCB9E740212000FFF752FDB4E71942C8
:101E3C0012D01A4210D0638D002BF3D123685A684C
:101E4C009201A9D4E16A094A9142E7D180225968EA
:101E5C00D2010A435A609FE7202319429CD01A42B0
:101E6C0000D199E72000FFF7B1FE95E70000FFFFD6
:101E7C008023806A10B502681B0251680B435360C3
:101E8C001021FFF725FD10BD10B5846A1149226899
:101E9C0013680B401360638D002B04D112212000BA
:101EAC00FFF718FA13E0636A218D5918638D61628C
:101EBC00FF2B0DD9FF232385238D2832A06BFFF731
:101ECC001BF80028EAD010212000FFF701FD10BDFF
:101EDC00638DF0E7FFBFFFFF70B5802503686D00D1
:101EEC0099691A68294206D0140604D50124466C57
:101EFC0034434464DD618025ED00294206D014068C
:101F0C0004D50824466C34434464DD618024A40069
:101F1C00214206D0120604D50222416C0A434264C7
:101F2C00DC610B23416C194201D0FFF7D1FC70BD71
:101F3C000023806A10B5826B9363C26B93630300BA
:101F4C0041331A78602A04D1403A1A70FFF7BEFC6C
:101F5C0010BDFFF7BAFCFBE7F0B504004134227862
:101F6C000300D2B20220202A18D11D0040352E7851
:101F7C00012E13D01B68223020701E682338864334
:101F8C001E601E68064F3E401E601E68314319607D
:101F9C00196808431860002022702870F0BDC046F4
:101FAC00FFEFFFFFF0B5050041352A780300D2B2F0
:101FBC000220202A17D11C0040342678012E12D082
:101FCC001B68223028701E68233886431E601E68EA
:101FDC00054F09023E4031431960196808431860E7
:101FEC0000202A702070F0BDFFF0FFFF13B5012414
:101FFC00064A116C21431164136C054A234001936A
:10200C00019B13681843106013BDC04600100240BA
:10201C000000014010B5104C1049236802000B4021
:10202C0003432360802300209B009A420CD10C4B6D
:10203C000C49186806235843FEF784F88022431C89
:10204C00D2006069104000D110BD002B01D0013BC3
:10205C00F7E70320F8E7C04600700040FFF9FFFFE8
:10206C000002002040420F00F0B5040085B00028AB
:10207C0002D1012005B0F0BD0368DB0710D4236842
:10208C009B075CD423681B0700D5C2E023685B0761
:10209C0000D5F4E0E269002A00D073E10020E9E702
:1020AC003822AC4DAB681340EA68102B09D1D243EF
:1020BC00930708D12B689B03E1D56368002BDED115
:1020CC00D7E7082BF6D0802263685202934211D1D5
:1020DC002A6813432B60FEF7FDFA80260700B60230
:1020EC002B683342CBD1FEF7F5FAC01B6428F7D925
:1020FC000320BFE7A021C9028B4208D180232968A5
:10210C00DB020B432B602B681A432A60E3E72A6837
:10211C0091490A402A602A6890490A402A60002B9B
:10212C00D9D1FEF7D7FA80260700B6022B683342C6
:10213C00A5D0FEF7CFFAC01B6428F7D9D8E738230F
:10214C00844DAA681340EA68102B29D103210A4058
:10215C00022A27D12A68520503D5E268002A00D149
:10216C0087E7696862697E48120201400A436A6027
:10217C00002B0DD12B687B4A1340226913432B6033
:10218C002B68794A9B045B0FDA401300774A136083
:10219C00774B1868FEF756FA002800D172E768E70B
:1021AC00002BD7D0E368002B20D02B686D4A8026FB
:1021BC0013402269F60013432B6080232A685B00CE
:1021CC0013432B60FEF786FA07002B68334207D0C7
:1021DC006A68636962491B020A4013436B6051E7EA
:1021EC00FEF778FAC01B0228EFD981E72B68614A09
:1021FC00802613402B60FEF76DFA0700F6002B6863
:10220C00334200D13EE7FEF765FAC01B0228F6D92F
:10221C006EE738214F4B9A681D000A40182A08D1E6
:10222C001B6E9B0700D431E7A369002B00D02DE770
:10223C001FE7A2690123002A10D02A6E022613433D
:10224C002B66FEF747FA07002B6E334200D01DE7D2
:10225C00FEF740FAC01B0228F6D949E72A6E02267F
:10226C009A432A66FEF736FA07002B6E334200D1EA
:10227C000CE7FEF72FFAC01B0228F6D938E73821F5
:10228C00344B9A681D000A40202A08D1DB6D9B074D
:10229C0000D4FFE6A368002B00D0FBE6E9E6802221
:1022AC00DB6B5205134200D1F6E000238027324E3F
:1022BC00009333687F003B4215D0A368012B22D1D9
:1022CC00EA6D1343EB65FEF705FA02270600EB6D8A
:1022DC003B4238D0009B012B00D0DBE6EB6B274A4E
:1022EC001340EB63D6E633683B433360FEF7F2F9F9
:1022FC00019033683B42E0D1FEF7ECF9019BC01A28
:10230C000228F6D9F4E6EA6D052B05D1013B1343FF
:10231C00EB65EA6D0123D4E701218A43EA65EA6D96
:10232C0003318A43EA65002BCDD1FEF7D3F902279E
:10233C000600EB6D3B42CDD0FEF7CCF9104B801B69
:10234C009842F6D9D4E6FEF7C5F90D4B801B98429E
:10235C00BDD9CDE600100240FFFFFEFFFFFFFBFFE3
:10236C00FF80FFFFFFC7FFFF0024F40000020020E6
:10237C0004000020FFFEFFFF00700040FFFFFFEF96
:10238C00881300003820494B99681D000140102922
:10239C0054D01B6846490B402B60022A37D1FEF7FC
:1023AC0099F980260700B6042B68334229D1616A5B
:1023BC00236AEA680B433F490A401343E26A13431A
:1023CC00226B1343626B1343A26A802412021343E1
:1023DC00EB6080232A685B0413432B608023EA683C
:1023EC005B051343EB60FEF775F90600A4042B683C
:1023FC00234200D052E6FEF76DF9801B0228F6D975
:10240C0076E6FEF767F9C01B0228CDD970E60322E9
:10241C00EB6880249343EB60EB68274AA4041340D9
:10242C00EB60FEF757F906002B68234200D135E626
:10243C00FEF750F9801B0228F6D959E6012A00D183
:10244C0017E6D8680323226A0340934200D010E6B3
:10245C007023626A0340934200D00AE6FE22A36A0C
:10246C00D20102401B029A4200D002E6F823E26A33
:10247C009B030340934200D0FBE5E023226B1B053A
:10248C000340934200D0F4E5636B400F4007C01A41
:10249C00431E9841C0B2EDE5EB6B1343EB63EB6B62
:1024AC0013400393039B012300E7C0460010024036
:1024BC00FFFFFFFE8C80C111FFFFFEEE38231F4A89
:1024CC0070B591681400194208D1012113681C4899
:1024DC009B045B0F9940FDF735FE70BD9168194068
:1024EC00082925D091681940102915D1D368D168D5
:1024FC00DB437F22E5684906490F2D0A013115405F
:10250C009B0707D10F48FDF71DFEE1686843490F93
:10251C000131E0E70A48F6E791681940202909D013
:10252C00926800201340182BD7D1FA20C001D4E7B1
:10253C000448D2E780200002CFE7C04600100240DA
:10254C000024F40000127A00F7B505000E000028F4
:10255C0001D10120FEBD07274A4C23683B408B422A
:10256C002AD329688B073BD4CB0748D40727236889
:10257C003B409E420AD22368BB4333432360FEF7A1
:10258C00A9F8019023683B409E426BD12B683E4CCE
:10259C005B076FD4FFF792FFA3683C4A1B051B0F28
:1025AC009B009B581F221340D840394B1860394B65
:1025BC001868FEF747F8CDE72368BB430B4323604D
:1025CC00FEF788F8019023683B409E42C9D0FEF785
:1025DC0081F8019BC01A304B9842F4D90320B9E71B
:1025EC00294A4B0704D5E0239068DB010343936031
:1025FC0093682A480340A86803439360B4E76A6869
:10260C00214F012A19D13B689B03A2D50721BB6836
:10261C008B431343BB60FEF75DF801903823BA6817
:10262C001A406B68DB009A42A0D0FEF753F8019B6E
:10263C00C01A194B9842F1D9D0E7022A03D13B6852
:10264C009B01E3D485E7002A03D13B685B05DDD40D
:10265C007FE70223032A03D1396E1942D6D178E7DA
:10266C00F96DFAE7FEF736F8019BC01A0A4B98424F
:10267C0088D9B3E7A3680A4A1340EA681343A360F6
:10268C0088E7C0460020024000100240F07A0008A3
:10269C00000200200400002088130000FFF0FFFF60
:1026AC00FF8FFFFF064B074A9B685B045B0F9B0089
:1026BC009B581F221340044A1068D8407047C046EC
:1026CC0000100240307B000800020020F0B505002D
:1026DC002B6885B000209B0350D580226F4C52058F
:1026EC00E36B0090134208D1E36B1343E363E36B9A
:1026FC0013400393039B012300938027684E7F00B4
:10270C0033683B433360FDF7E5FF019033683B4290
:10271C0026D0C023E26D9B0013400FD02A6B93424E
:10272C000CD0E26D5F4BE16D1340802252020A43E4
:10273C00E265E26D5C490A40E265E365DB0707D5BB
:10274C00FDF7C8FF02270600E36D3B4200D19DE078
:10275C00E36D544A002013402A6B1343E36506E0F3
:10276C00FDF7B8FF019BC01A0228CFD90320009BAC
:10277C00012B03D1E36B4D4A1340E3632B68DA075B
:10278C0006D5032445494A6DA2436C6822434A6529
:10279C009A0706D50C2441494A6DA243AC682243E2
:1027AC004A659A0606D53D49414C4A6D2240EC6873
:1027BC0022434A659A0506D538493E4C4A6D22405B
:1027CC00AC6922434A655A0506D534493A4C4A6DE0
:1027DC002240EC6922434A655A0606D52F49374CEC
:1027EC004A6D22402C6922434A655A040FD52B4965
:1027FC002C6A4A6D9200920822434A658022D205C7
:10280C00944204D18022CC6852022243CA601A033B
:10281C0006D5402421494A6DA2436C6A22434A657D
:10282C009A020FD51D49264E4A6DAC6A324022439E
:10283C004A658022D203944204D18022CC6852048F
:10284C002243CA605A020DD5144C1E4E616DEA6AC1
:10285C00314011436165802149048A4202D1E1680B
:10286C000A43E2601B050FD50C49174C4B6D6A6986
:10287C00234013434B658023DB019A4204D1802310
:10288C00CA685B021343CB6005B0F0BDFDF722FFB5
:10289C000E4B801B984200D856E767E700100240A9
:1028AC0000700040FFFCFFFFFFFFFEFFFFFFFFEF8C
:1028BC00FFF3FFFFFFFFF3FFFFFFCFFFFFCFFFFF94
:1028CC00FFFFBFFFFFFFFFFEFF3FFFFF881300006E
:1028DC00A0210268F8B5D36804008B43D360FDF7E0
:1028EC00F9FEFA2706002025BF002368DB682B427F
:1028FC0001D00020F8BDFDF7EDFE801BB842F4D9E5
:10290C000320F7E7F8B5402703680500DA680024D0
:10291C003A420CD18022D9680A43DA60FDF7DAFE1C
:10292C0006002B68DB683B4201D1032C01D120004F
:10293C00F8BDFDF7CFFEFA23801B9B009842F0D91F
:10294C002B00032429331C70EBE70000802270B5A8
:10295C000F4C0500E3689343E360A369603A1342AC
:10296C0007D1FFF7B5FF002802D0032029352870C6
:10297C0070BDA3699343A361FFF7AAFF002802D09F
:10298C000320293528702023A2691343A361EFE7A4
:10299C000028004070B504000120002C47D0250011
:1029AC0029352B78DBB2002B08D12200283213708A
:1029BC0088231B026360200002F0E4FB0223CA227E
:1029CC002B70236820005A62773A5A62FFF79AFFFD
:1029DC00002825D1236816499A6960690A409A61D2
:1029EC00A26899690243E06902430A439A61226929
:1029FC0020001A61E268196912040A431A61FFF790
:102A0C00A5FF00280CD12268266A9369DB00DB083D
:102A1C009361636A91693343A66933430B439361B2
:102A2C00FF2223685A62002801D101232B7070BD4C
:102A3C00BFFF8FFB0A23020953430F2210401818C3
:102A4C00C0B2704770B50C007F2501688B6863605D
:102A5C000B695B045B0CA3600B680D490B4098027F
:102A6C001E0A2E40800E1D409B0D20706670A570B6
:102A7C00E370002A0AD1FFF7DDFF20703000FFF76A
:102A8C00D9FF60702800FFF7D5FFA070002070BD43
:102A9C007F7F7F0070B53F250C0003680D495B6894
:102AAC000B40180CDE041D401B04F60E5B0FE0708F
:102ABC006670A5702370002A0AD1FFF7BBFFE07087
:102ACC003000FFF7B7FF60702800FFF7B3FFA0706E
:102ADC00002070BD3FFFFF00F8B504000120002C62
:102AEC004BD000232500A3625D352B78DBB2002B85
:102AFC0005D122005C321370200002F083FB02230C
:102B0C00402221682B700B68002093430B60E0235C
:102B1C00E268DB009A4231D9F0263601B24233D159
:102B2C000600206B002803D19A422FD9022323637D
:102B3C00A7686368A0693B4327693B4367693B43CC
:102B4C00E7693B43276A3B43A76A3B438027BF00A7
:102B5C0007403B430B60636A000C1A43636B1A43D8
:102B6C0004231840104306434E60CB69084A0020EA
:102B7C001340CB61012320662B70F8BD80267601B3
:102B8C009A42CED0A062CCE70600FBE70123CEE749
:102B9C00FFF7FFFF012203680748D9681143D9608A
:102BAC0099680140062905D00738814202D019687E
:102BBC000A431A60002070470700010001210368D6
:102BCC00DA688A43DA60186A054A104206D1186A34
:102BDC00044A104202D11A688A431A6000207047D6
:102BEC001111000044040000704770477047704793
:102BFC000222036810B51969040011420ED0D9687D
:102C0C0011420BD0053A1A619B69043202779B077B
:102C1C0000D186E0FFF7E9FF002323770422236825
:102C2C001969114211D0D96811420ED0093A1A61B2
:102C3C00073222779A69C0239B0020001A4200D1E8
:102C4C0075E0FFF7D2FF0023237708222368196968
:102C5C0011420ED0D96811420BD0113A1A61DB69BE
:102C6C000D32227720009B0767D0FFF7BEFF0023B1
:102C7C002377102223681969114210D0D9681142A8
:102C8C000DD0213A1A6119322277DA69C0239B00E0
:102C9C0020001A4257D0FFF7A8FF00232377012208
:102CAC0023681969114207D0D968114204D0033A3C
:102CBC001A61200001F06EFD80222368196911420F
:102CCC0008D0D968114205D0023AFF3A1A612000A7
:102CDC0000F0D9F923681A69D20507D5DA6812060B
:102CEC0004D51C4A20001A6100F0CEF9402223685A
:102CFC001969114207D0D968114204D0813A1A617E
:102D0C002000FFF774FF202223681969114207D0B5
:102D1C00D968114204D0413A1A61200000F0B2F98E
:102D2C0010BDFFF761FF2000FFF760FF74E7FFF7AE
:102D3C005BFF2000FFF75AFF85E7FFF755FF2000E8
:102D4C00FFF754FF93E7FFF74FFF2000FFF74EFF0D
:102D5C00A3E7C046FFFEFFFF204A10B50368904270
:102D6C0006D08024E405A04202D01D4CA0420CD118
:102D7C007024A3434C682343904212D08024E40572
:102D8C00A0420ED0164CA0420BD0164CA04208D03C
:102D9C00154CA04205D0154CA04202D0144CA042B8
:102DAC0003D1144C2340CC6823438024A3434C69A7
:102DBC00234303608B68C3620B688362904208D024
:102DCC00094B984205D0094B984202D0084B9842C7
:102DDC0001D10B6903630123436110BD002C014039
:102DEC00000400400020004000400140004401402D
:102DFC0000480140FFFCFFFF70B504000120002CCF
:102E0C0014D025003D352B78DBB2002B05D12200E8
:102E1C003C321370200002F02DFD022320682B7031
:102E2C00211DFFF799FF012300202B7070BD0000BE
:102E3C0030B58468034D0A431B022C4013432343D3
:102E4C00836030BDFF00FFFFF8B5050002233C3561
:102E5C002A7804001800012A16D0260001272068C1
:102E6C003D362F70337083683F4A134083600B6884
:102E7C00402B63D014D8102B0BD006D8002B08D0C5
:102E8C000123002033702870F8BD202B01D0302B8B
:102E9C00F6D1364A81681140072213430B4319E0DF
:102EAC00602B34D018D8502BEAD14A68CB68016A11
:102EBC00046A1B01BC43F02704628469BC432343AE
:102ECC000A24A1430A43836102628368274A1A4099
:102EDC00572313438360D3E7702B0DD080229201CC
:102EEC009342CDD1CB684A688968FFF7A1FF802354
:102EFC002268DB01916807E0CB684A688968FFF7B4
:102F0C0097FF7723226891680B439360B8E71024EE
:102F1C004B68CA68016A164FA143016284691203A7
:102F2C003C402243A024016A1B01A1430B43826154
:102F3C00036283680D4A1A406723CAE74A68CB6864
:102F4C00016A046A1B01BC43F02704628469BC4318
:102F5C0023430A24A1430A43836102628368034A20
:102F6C001A404723B5E7C0468800CEFF8FFFCFFF3E
:102F7C00FF0FFFFF70B5040002223C3425780300DC
:102F8C001000012D1AD01D003D352A700C4E1A6808
:102F9C0053689068B24203D10A4E33404E683343B3
:102FAC007026B3430E68896833438026B043536060
:102FBC0001430123002091602B70207070BDC0462E
:102FCC00002C0140FFFF0FFF10B504003C342378A8
:102FDC0002000220012B39D0C8681D4B1268034037
:102FEC00886803431B480340486803431A4803405E
:102FFC000868034319480340086903431848034011
:10300C004869034317480340086B034316480340C1
:10301C008869000403431548824214D114480340C4
:10302C00C8690343134818408B6A1B0503431248B5
:10303C000340086A034311480340486AC96A0343C2
:10304C000F4803400B4300205364207010BDC04652
:10305C00FFFCFFFFFFFBFFFFFFF7FFFFFFEFFFFF93
:10306C00FFDFFFFFFFBFFFFFFFFFF0FF002C014062
:10307C00FFFFFFEFFFFF0FFFFFFFFFFEFFFFFFFD57
:10308C00FFFFFFDF70477047704700000368074978
:10309C001A680A401A609A6805490A409A60030047
:1030AC0020220833DA670023C3667047DFFEFFFF78
:1030BC00FEFFFFEFF7B5051D1300EA6F04000220B9
:1030CC00202A3AD10138002937D0002B35D0802264
:1030DC00A6685201964204D12269002A01D101420C
:1030EC002BD122007C32019212780220012A24D0AA
:1030FC00019A0138107022002700543221650026F5
:10310C00138053802122606F88373E60EA67B0429B
:10311C0014D0104A8663C2620F4A02630F4A42639C
:10312C0022682832FDF7E8FEB04207D010233B603E
:10313C00019B01201E702023EB67FEBD4022002066
:10314C0023687C341A62996892180A4320709A603A
:10315C00F3E7C046BD320008EF3200084D330008DB
:10316C00F8B5130002000832D56F04000220202DA0
:10317C003AD10138002937D0002B35D08025A668EC
:10318C006D01AE4204D12569002D01D101422BD134
:10319C0025007C352E780220012E25D00138287090
:1031AC00200027005C30A165002603802220883790
:1031BC003E60D067A06FB04217D0144A8663C262DB
:1031CC00134A0263134A42632268243294460A006B
:1031DC006146FDF791FEB04207D0102301203B6001
:1031EC000434DB182E70E367F8BD802200202368BE
:1031FC005200196828700A431A60012299680A4320
:10320C009A60402299680A439A60EDE7F932000807
:10321C003F3300084D3300080300802170B508339C
:10322C00061DF26FDD6F036804009868084220D019
:10323C00212A1ED19A68606F8A439A6000280DD0AB
:10324C00FDF79AFE002809D0606FFDF769FF202872
:10325C0004D11023883423601D3870BDC02123682D
:10326C001A688A431A609A6810490A409A602023A7
:10327C00F3674021236800209A680A42EDD0222D82
:10328C00EBD19A68A06F8A439A60002808D0FDF7AA
:10329C0073FE002804D0A06FFDF742FF2028D8D081
:1032AC002000FFF7F3FE0020D7E7C046FFFF7FFFAB
:1032BC002021036810B51B68826A0B400CD11100E9
:1032CC0056310B80802113689A688A439A60402299
:1032DC0019680A431A6010BD100001F0EFFAFAE702
:1032EC00704710B5806AFFF7FBFF10BD0368826A58
:1032FC0020201B6810B5034013D111005E310B80E8
:10330C0013680A4C19682140196099680334FF341A
:10331C00A143996099683F34A14399601300083325
:10332C00D867100001F0AEFA10BDC046FFFEFFFFDB
:10333C00704710B5806AFFF7FBFF10BD70470000A7
:10334C0070B5846A2300211D0833CA6FD86F2368B7
:10335C009D682D060FD5212A0DD12200002556324D
:10336C0015801A68C035AA431A609A680D4D2A4018
:10337C009A602022CA679B685B0608D5222806D172
:10338C00230000225E331A802000FFF77FFE22000C
:10339C0010238832116820000B431360FFF7CEFF17
:1033AC0070BDC046FFFF7FFFF7B502680400D3690C
:1033BC00116890681D070DD120252B4200D180E0AB
:1033CC00294202D1C50000D47BE0E36E2000002B23
:1033DC006DD16DE0554D0540009504D12135FF357B
:1033EC00294200D16DE0250001268835334205D0F5
:1033FC00CF0503D516622F683E432E60022633425A
:10340C000CD0C7070AD52700166288373E6801978B
:10341C00B446042667463E43019F3E600426334271
:10342C000CD0C7070AD52700166288373E6801976B
:10343C00B446022667463E43019F3E601E0709D5EF
:10344C008E0602D4009E002E04D0082616622A682E
:10345C0016432E602A68002A2AD02022134208D054
:10346C00114201D1C30004D5E36E002B01D0200022
:10347C00984723682E689B6820005B0602D40823BB
:10348C001E401AD0FFF702FE402123689A680A42B8
:10349C000FD09A68A06F8A439A60002809D0244BF9
:1034AC008363FDF7A7FD002802D0A06F836B9847BC
:1034BC00F7BD2000FFF742FFFAE7FFF73FFF2E6052
:1034CC00F6E780256D032B4206D0460204D5156223
:1034DC00200000F09BFDEBE780252B4205D0294214
:1034EC0001D1000201D5236F70E7402003420DD0BB
:1034FC0001420BD01368834313602022231DDA672B
:10350C0000232000236701F0D9F9D1E71A0205D571
:10351C004A0003D5200000F07BFDC9E7DB01C7D5CD
:10352C000029C5DA200000F072FDC1E7010000108F
:10353C0041350008806A0023020010B55E3213800A
:10354C00083A1380FFF7FAFE10BD031D0830DA6F3E
:10355C00C06F104370470000F8B504000268C169E1
:10356C0083680069656E0343606903430B4310680D
:10357C002B43A44D2840034313605368A248A34D2A
:10358C000340E06803435360A069AA4201D0236A58
:10359C00184393689E4E33400F2603439360D06AC2
:1035AC00636AB0431843D0629A48824217D1032011
:1035BC00994A526D02409948805C802212029142D5
:1035CC0000D089E208282BD8FCF7B2FD7D032A0035
:1035DC001A022A004E022A002A002A0051029048A0
:1035EC00824205D10C208C4A526D02408D48E3E793
:1035FC008D48824200D161E38C48824200D15DE368
:10360C001020AA42D9D1C0218020834A0901526DD1
:10361C00C0000A40824200D19CE00DD8002A4ED056
:10362C000122210001236A310B8002390B80002317
:10363C001000E3662367F8BD8020000182426ED043
:10364C008A42EDD1002B00D1C7E0012B00D1C7E09D
:10365C00022B00D1C8E0032B00D1C8E0042B00D111
:10366C00C7E0052B00D1C7E0062B00D1C6E08021B6
:10367C00072B00D1C4E0082B00D1F7E0092B00D1B7
:10368C00F6E00A2B00D1F5E00B2B00D0A6E0033BB3
:10369C000320626850438842C2D810038842BFD3CB
:1036AC00082B00D9A9E11800FCF742FDE600A701A0
:1036BC003801A7016E01A701A701A7017101FEF74F
:1036CC00F1FF636A0121002B21D04918012B1ED078
:1036DC000231022B1BD00231032B18D00231042BE8
:1036EC0015D00231052B12D00231062B0FD004312C
:1036FC00072B0CD01031082B09D02031092B06D008
:10370C0040310A2B03D07F390B2B00D1FF31FCF752
:10371C0019FD0023010000229142B9D181E7002B51
:10372C0059D0012B43D0022B43D0032B43D0042B75
:10373C0043D0052B43D0062B43D0072B43D0082B6B
:10374C0043D0092B43D00A2B43D00B2B43D1384900
:10375C0002239DE7FEF7B2FE636A0121002B21D004
:10376C004918012B1ED00231022B1BD00231032B26
:10377C0018D00231042B15D00231052B12D0023196
:10378C00062B0FD00431072B0CD01031082B09D08D
:10379C002031092B06D040310A2B03D07F390B2B5B
:1037AC0000D1FF31FCF7CEFC04230100B3E7214923
:1037BC00CEE721496CE72149CAE72149C8E72149ED
:1037CC00C6E72149C4E72149C2E72149C0E721499D
:1037DC00BEE72149BCE72149BAE78021090201E093
:1037EC008021C901082353E780218901FAE71C498C
:1037FC00F8E780214901F5E71A49F3E71A49F1E79F
:10380C000901EFE7F369FFCFFFCFFFFF0080004016
:10381C00FFF4FF110038014000100240F46300086F
:10382C0000440040F863000800480040004C004091
:10383C0024F4000000127A0000093D00AAB0280010
:10384C0080841E00006A18005558140040420F0076
:10385C0020A1070090D0030048E801000024F400E8
:10386C0055150000CC0C0000AA0A0000C9000FE797
:10387C008900B7E74900B5E7FEF714FF616A01223A
:10388C00002300292ED00222002301292AD0042251
:10389C000023022926D006220023032922D0082245
:1038AC00002304291ED00A22002305291AD00C2239
:1038BC000023062916D010220023072912D020221B
:1038CC00002308290ED04022002309290AD0802287
:1038DC0000230A2906D0012200230B2902D18022C1
:1038EC00002352000021FCF7A3FD00276568060E9B
:1038FC000B02334302026E0892197B41100019002F
:10390C002A003B00FCF794FD3A00964B9649C318ED
:10391C008B4200D984E62368D86082E6636A002B68
:10392C0030D0012B1AD0022B1AD0032B1AD0042B17
:10393C001AD0052B1AD0062B1AD0072B1AD0082B0D
:10394C001AD0092B1AD00A2B1AD00B2B1AD1874854
:10395C0000210027560880197941D2E78448F7E7FF
:10396C008448F5E78448F3E78448F1E78448EFE7B7
:10397C008448EDE78448EBE78448E9E78448E7E7C7
:10398C008448E5E78448E3E7FEF798FD76E7636A49
:10399C00002B18D0012B19D0022B1AD0032B1BD0C3
:1039AC00042B1BD0052B1CD0062B1CD08020072BE6
:1039BC001BD0082B1BD0092B1BD00A2B1BD00B2B7D
:1039CC0002D10002C4E780200004C1E78020C003BC
:1039DC00BEE780208003BBE77048B9E78020400336
:1039EC00B6E76F48B4E76F48B2E70003B0E7C00230
:1039FC00AEE78002ACE74002AAE70122002084E790
:103A0C00002B2FD0012B19D0022B19D0032B19D03E
:103A1C00042B19D0052B19D0062B19D0072B19D034
:103A2C00082B19D0092B19D00A2B19D00B2B19D113
:103A3C005D48636861685B08181873E14B48F8E7E8
:103A4C005A48F6E75A48F4E75A48F2E75A48F0E77A
:103A5C005A48EEE75A48ECE75A48EAE75A48E8E78A
:103A6C005A48E6E74B48E4E7FEF728FD2DE1002B2A
:103A7C0018D0012B19D0022B1AD0032B1BD0042BDE
:103A8C001BD0052B1CD0062B1CD08020072B1BD049
:103A9C00082B1BD0092B1BD00A2B1BD00B2B02D1B4
:103AAC004000C6E780204002C3E780200002C0E748
:103ABC008020C001BDE74648BBE780208001B8E705
:103ACC004448B6E74448B4E74001B2E70001B0E728
:103ADC00C000AEE78000ACE7082800D9EBE0FCF7AB
:103AEC001DFB05EA7FEAB3EAEAEAB600FEF7DAFD67
:103AFC00636A0121002B21D04918012B1ED0023101
:103B0C00022B1BD00231032B18D00231042B15D001
:103B1C000231052B12D00231062B0FD00431072BAA
:103B2C000CD01031082B09D02031092B06D0403194
:103B3C000A2B03D07F390B2B00D1FF316568FCF7C2
:103B4C0001FB29006B08C018FCF7FCFA002283B2B9
:103B5C00190022481039814200D961E52168CB60F7
:103B6C005FE5C04600FDFFFFFFFC0F000024F400E2
:103B7C000000127A0000093D00AAB0280080841EC3
:103B8C0000006A18005558140040420F0020A1078D
:103B9C000090D0030048E801000024F40055150003
:103BAC0000CC0C0000AA0A0048E8010000127A00C0
:103BBC005461510000093D0000D43000AAB0280027
:103BCC0080841E0040420F0020A1070090D003000B
:103BDC00AA2A00009819000054150000EFFF0000FD
:103BEC00002B2FD0012B19D0022B19D0032B19D05D
:103BFC00042B19D0052B19D0062B19D0072B19D053
:103C0C00082B19D0092B19D00A2B19D00B2B19D131
:103C1C004E48636861685B08181895E74C48F8E7EC
:103C2C004C48F6E74C48F4E74C48F2E74C48F0E7D0
:103C3C004C48EEE74C48ECE74C48EAE74C48E8E7E0
:103C4C004C48E6E74C48E4E7FEF738FC50E7002B1D
:103C5C0018D0012B18D0022B19D0032B1AD0042BFF
:103C6C001AD0052B1BD0062B1BD08020072B1AD06B
:103C7C00082B1AD0092B1AD00A2B1AD00B2BC8D010
:103C8C000002C6E78020FBE78020C001C1E780204E
:103C9C008001BEE73948BCE780204001B9E73848CD
:103CAC00B7E73848B5E70001B3E7C000B1E78000DB
:103CBC00AFE74000ADE70122002349E780231B0258
:103CCC00994200D012E7FEF7EDFC636A0121002B4C
:103CDC0021D04918012B1ED00231022B1BD00231EE
:103CEC00032B18D00231042B15D00231052B12D026
:103CFC000231062B0FD00431072B0CD01031082BBE
:103D0C0009D02031092B06D040310A2B03D07F3942
:103D1C000B2B00D1FF31FCF715FA65684000290028
:103D2C006B08C018FCF70EFA80B20300164A103B61
:103D3C00934200D974E40F2302009A431300000746
:103D4C002268400F1843D06000226AE424F400007B
:103D5C0000127A0000093D00AAB0280080841E00E1
:103D6C00006A18005558140040420F0020A10700AB
:103D7C0090D0030048E801000024F4005515000021
:103D8C00CC0C0000AA0A0000EFFF0000836A30B5DB
:103D9C00DA0706D50168284C4A682240C46A2243D7
:103DAC004A609A0706D50168244C4A682240046B85
:103DBC0022434A605A0706D50168214C4A682240C2
:103DCC00446B22434A601A0706D501681D4C4A68A9
:103DDC002240846B22434A60DA0606D501681A4CED
:103DEC008A682240C46B22438A609A0606D5016811
:103DFC00164C8A682240046C22438A605A0610D5FD
:103E0C000168134D4A68446C2A4022434A60802260
:103E1C005203944205D14A680E4C2240846C2243D2
:103E2C004A601B0606D502680B4953680B40C16CEF
:103E3C000B43536030BDC046FFFFFDFFFFFFFEFF8D
:103E4C00FFFFFBFFFF7FFFFFFFEFFFFFFFDFFFFF2A
:103E5C00FFFFEFFFFFFF9FFFFFFFF7FFF8B5040029
:103E6C000E0015001F002268D36933409B1B59427A
:103E7C004B41AB4201D000201EE0069B0133F3D036
:103E8C00FCF728FC069BC01B834201D3002BEAD114
:103E9C00220008CA09481968014019609968A330C2
:103EAC00FF30814399602023D36722000832D36707
:103EBC0000237C3423700230F8BDC0465FFEFFFF48
:103ECC00030073B50026040088331E60FCF702FC67
:103EDC00236805001B681B0717D423681B685B0746
:103EEC000AD580210F4B00220093C9032B00200020
:103EFC00FFF7B4FF002813D120230020221DD36725
:103F0C007C340432D36720700BE08021054B3200E7
:103F1C000093890303002000FFF7A0FF0028DCD0EA
:103F2C00032076BDFFFFFF0170B5041E01D10120F7
:103F3C0070BD051DEB6F002B04D102007C32137099
:103F4C0001F02CFD242301212268EB67136820006B
:103F5C008B431360FFF700FB0128E8D0A36A002B0A
:103F6C0002D02000FFF712FF236808495A6820008E
:103F7C000A402A215A609A688A439A600122196879
:103F8C000A431A60FFF79CFFD2E7C046FFB7FFFF5A
:103F9C000123F0B587B002AA1370537093700322FB
:103FAC0002A9CA7002250022072604AC8A71CA71C4
:103FBC000E714B71A57004210700050008322270A8
:103FCC002271426E6170E1706371A371E3716A37A3
:103FDC006835002A03D13B802B8007B0F0BD036805
:103FEC009A689B6801925B0F02AAD05CE15CC000EE
:103FFC00FCF732F9019B38805B0E1E4002AB985DDA
:10400C00A15DC000FCF728F92880E6E770477047EF
:10401C007047000070B504007C3422780223012A1A
:10402C0010D001260268051D2233EB671168136856
:10403C00B3431360044B19400023436611602022E4
:10404C00EA672370180070BDFFFFFFDFF8B50500AD
:10405C007C352B7804000220012B17D024232268F6
:10406C000138261D2870F3671768136883431360A3
:10407C0093682000DB00DB0819439160FFF788FF91
:10408C00236800201F602023F3672870F8BD000010
:10409C00F8B505007C352B7804000220012B17D0D5
:1040AC0024230138261D2870F36723681F681A68BB
:1040BC0082431A609A6807480240114399602000B5
:1040CC00FFF766FF236800201F602023F36728702A
:1040DC00F8BDC046FFFFFFF11FB50C22002101A85F
:1040EC0001F035FD1F4C204B80222360802392036E
:1040FC0022610422DB05636000236261023AE26103
:10410C00621CD37722002C321370220020003C3228
:10411C00A360E36023766376A3766362A362236372
:10412C006363A3631370E364FCF7F0FA002801D017
:10413C0000F0C5FB01230193002301A92000029389
:10414C000393FCF7CDFC002801D000F0B8FB04234E
:10415C0001A920000293FCF7C3FC002801D000F059
:10416C00AEFB1FBDB00600200024014010B50400BA
:10417C0088B01422002103A801F0E9FC144B22683A
:10418C009A4222D18020134B4003196C01431964CD
:10419C0001211A6C02400192019A5A6BA0200A4329
:1041AC005A635B6BC0050B400293029B212303A94E
:1041BC0003931E3B0493FCF7B5FF00220C20110067
:1041CC00FCF7AEFD0C20FCF7DBFD08B010BDC046C3
:1041DC000024014000100240F8B507001E4DFF22DC
:1041EC000E002800002101F0B2FC3800FBF78EFF16
:1041FC001A4C82B239002000FEF75CFF002801D077
:10420C000020F8BD1648FCF787FF0228FAD02000E2
:10421C00FFF79BF92128FAD03000FBF777FF290034
:10422C0082B22000FEF79CFF0028E9D10D48FCF774
:10423C0073FF0228FAD02000FFF787F92228FAD062
:10424C002000FEF7E9FF3100280001F06DFD431E50
:10425C009841C0B2D5E7C046541900207421002003
:10426C0018210020BC20002070B52C4D2C4C0822AD
:10427C0029002000FEF774FF021E01D0002070BD43
:10428C00802128484900FCF7FBFF8021012289008E
:10429C002448FCF7F5FF0A20FCF722FA802121487C
:1042AC0001224900FCF7ECFF6420FCF719FA1E48C8
:1042BC00FCF732FF0228FAD029001C48FBF71CFF40
:1042CC000028DBD12000FEF7A7FF19491948FFF79A
:1042DC0083FF0028D2D018491848FFF77DFF184CEF
:1042EC00002813D021001748FFF776FF0028C5D00F
:1042FC0021001548FFF770FF0028BFD0210013489C
:10430C00FFF76AFF431E9841C0B2B8E7210010487E
:10431C00FFF762FF0028E5D1B0E7C0465419002032
:10432C007421002000040050BC2000201B640008F5
:10433C004764000824640008286400083E640008F0
:10434C00426400084D640008676400086E6400084D
:10435C0054640008F7B51B4D009101920021FF2217
:10436C000600280001F0F3FB0222174B174C1A70C1
:10437C000023174F013A174920003B70FEF7F0FE5F
:10438C00002801D00020FEBD3000FBF7BFFE31003D
:10439C0082B22000FEF78EFE0028F3D1009928008F
:1043AC0001F0C2FC3A78002802D1FF2AFDD1E9E7DE
:1043BC002900019801F0C2FB2000FEF72DFF01201F
:1043CC00E1E7C04654190020A816002074210020F3
:1043DC00B01600204519002010B5114CCCB0114975
:1043EC00206801F099FC96220021520001A801F0EE
:1043FC00AEFB0D49206801F08FFC01AA0B490C485B
:10440C00FFF7A8FF002808D00A4B0B491A78206840
:10441C0001F060FC00F080FE01204CB010BDC046E5
:10442C00AC16002005640008076400080964000845
:10443C000D640008441900201164000807B5012020
:10444C000C4A916B01439163936B00220340110062
:10445C0001930830019BFCF763FC0920FCF790FCEE
:10446C0000220A201100FCF75BFC0A20FCF788FCF8
:10447C0007BDC04600100240F0B5012689B01422D9
:10448C00002103A801F063FB0221A027384B394D12
:10449C005A6BFF0532435A635A6B38003240009214
:1044AC00009A5A6B00240A435A635A6B0A400192D1
:1044BC00019A5A6B06310A435A635B6B00220B401C
:1044CC0002930A31029BFCF7DBFE002228002A49EA
:1044DC00FCF7D6FE12233800032703A90393049696
:1044EC0005940694FCF71EFE244B03A928000393A5
:1044FC00049605940697FCF715FE80239B01039305
:10450C00022303A9280005930494FCF70BFE8023D7
:10451C0003A9DB012800039304940594FCF702FE25
:10452C00072303A91648039304940594FCF7FAFD9A
:10453C0010230393134B03A9280004930594FCF751
:10454C00F1FD202303A928000393049605940694F7
:10455C00FCF7E8FDC0239B000393112303A928005B
:10456C00049305940697FCF7DDFD09B0F0BDC04639
:10457C000010024000040050261F0000061C000022
:10458C00000C00500000111010B5154B154C0122F9
:10459C002360154B200063600023E260A36023615D
:1045AC006361A361E3612362FCF7BAFF002801D0C9
:1045BC0000F085F900212000FDF7CEFC002801D089
:1045CC0000F07DF900212000FDF7ECFC002801D063
:1045DC0000F075F980204003FDF708FD10BDC046C2
:1045EC0000540040B81A00201304100030B5050028
:1045FC0089B01422002103A801F0A9FA224B2A68E1
:10460C009A423FD10221214C2148626B0A436263DA
:10461C00636B0B400193019BC0230393AE3B04934C
:10462C00113B059303A905330793FCF77BFD802110
:10463C00E26B89030A43E263E36B164C0B40029373
:10464C00029B154B802223600B2363600533A36010
:10465C000023E3606361A361E361C02320009B013D
:10466C0022612362FCF7ECFB002801D000F027F953
:10467C0000221720AC631100A562FCF751FB172038
:10468C00FCF77EFB09B030BD005400400010024026
:10469C00000400505C1A002008000240F0B580268F
:1046AC00A1B03822002112A801F051FA10220021E9
:1046BC0001A801F04CFAB6003422002105A801F043
:1046CC0046FA3000FDF7A6FC0A231293F633159335
:1046DC00C03B1793383B1C9380239B021D93802374
:1046EC009B041E9380230024022501279B0512A8FE
:1046FC001F931694189719951A951B94FDF7B4FCF3
:10470C0007230193802339001B0101A80393029511
:10471C000494FDF719FF064B05A80593079409941B
:10472C000D940F941196FDF7D1FF21B0F0BDC0464A
:10473C004240220010B5FBF7ADFFFFF7AFFFFFF7CC
:10474C009BFEFFF77BFEFFF7C7FCFFF71DFF00F09A
:10475C0033FD01F0DDF801F013F800F0C5FF00F0B7
:10476C00F5FC01F049F801F0E3F8A0200122022148
:10477C00C005FCF785FD0548FEF70CF900F070FA52
:10478C000348FEF707FAFFF76FFDFEE75C1B0020FE
:10479C003C2000208023026810B5DB0504009A42FF
:1047AC0001D100F0B9FC2C4B22689A421BD100F0CD
:1047BC0087F82A4A537C002B15D0117B284B0029F3
:1047CC0035D019680139196026491868096801390A
:1047DC00814232DC1960137C002B02D00121224B68
:1047EC00196000235374214B22689A421ED1204A2F
:1047FC00204B1168002927D01F48204C01682468E1
:10480C00A1421EDC013101601968022908D11A4944
:10481C00086800281CDD0020106000221A600A6065
:10482C00174A1368022B15DC0133136010BD517B42
:10483C000029C9D019680131C5E70028CBDA00215D
:10484C00C8E700211160DFE7196801311960DBE767
:10485C000120E1E70023E8E7002C01400C1B0020BD
:10486C00481900204C190020F813002000040040C7
:10487C001807002050190020541A0020200700208F
:10488C00A416002010B5084B1B78022B0BD1074A3D
:10489C001378591C11700649064A0878D054012225
:1048AC000548FEF75DFC10BDA8160020B0160020D0
:1048BC0045190020541900207421002070477047BE
:1048CC00F8B5002202219B48FCF7DAFC01220421F6
:1048DC009848FCF7D5FC80210122C9009548FCF7CB
:1048EC00CFFC8021012209019248FCF7C9FC8021F0
:1048FC000025012249018F48FCF7C2FC8E4C012196
:10490C008E482560FCF7B6FC0221474247418B4894
:10491C00FCF7B0FC03005842584140000743042107
:10492C008648FCF7A7FC03005842584123688000D6
:10493C00384318432060012202217E48FCF7A0FC7A
:10494C002A0004217B48FCF79BFC01217B48FCF7E7
:10495C0091FC0221474247417848FCF78BFC03004D
:10496C00584258414000074304217448FCF782FC2C
:10497C00030058425841800023683843C000184354
:10498C002060012204216B48FCF77AFC80212A006C
:10499C00C9006848FCF774FC01216848FCF76AFC04
:1049AC000221474247416548FCF764FC030058422A
:1049BC0058414000074304216048FCF75BFC0300AE
:1049CC0058425841802180002368384380011843A5
:1049DC0020600122C9005748FCF752FC80212A00B4
:1049EC0009015448FCF74CFC01215448FCF742FCEB
:1049FC000221474247415148FCF73CFC0300584216
:104A0C0058414000074304214C48FCF733FC030099
:104A1C005842584180218000236838434002184393
:104A2C002060012209014348FCF72AFC80212A005E
:104A3C0049014048FCF724FC01214048FCF71AFCD2
:104A4C000221474247413D48FCF714FC0300584201
:104A5C0058414000074304213848FCF70BFC030085
:104A6C005842584180218000236838430003184382
:104A7C002060012249012F48FCF702FCA0202A00EB
:104A8C000221C005FCF7FCFB80212A48C901FCF778
:104A9C00F1FB8021060089012648FCF7EBFB7542EF
:104AAC00754140000543A0202368ED031D43C0055C
:104ABC00012202212560FCF7E3FB2068204C2368CF
:104ACC00984236D001221F4B8108114019704108C1
:104ADC001140597001001140997041091140D97071
:104AEC00010911401971C10811405971010A114095
:104AFC009971C1091140D971810911401972C10A0A
:104B0C0011409972810A11405972010C1140D972ED
:104B1C00410A11401973810B11405973410B11401B
:104B2C009973010B1140D973C10B114019745A744C
:104B3C002060F8BD00040050041B0020000C005045
:104B4C00081B00200C1B00200322F8B5214B04008D
:104B5C001A60FBF7DBFA03000B20404258438B3002
:104B6C0040080126C0B20F2100F01EFD20002124B8
:104B7C00194A01231168526800F002FD23212A20F2
:104B8C0000F012FD154F164D386833003040201AD6
:104B9C006A682968C0B200F09DFC2321402000F017
:104BAC0003FD3B68296858103040201A33006A68AE
:104BBC00C0B200F08FFC2321562000F0F5FC06CD8E
:104BCC003868330080103040201AC0B200F082FCEC
:104BDC00F8BDC04664080020E8010020A41600209F
:104BEC00F8010020F7B50400164D160028000091BE
:104BFC000193FDF7E3FF2000FBF788FA013000F08A
:104C0C0093FF114B72091860104B070020001A60BB
:104C1C00FBF77CFA2100421C380000F08FFF3200B9
:104C2C0000990B4800F08AFF019A0A4B28001A6081
:104C3C000122094B52421A60084B03321A60FDF7ED
:104C4C00A9FFF7BD7C200020401900204C19002042
:104C5C00B80D0020341900203819002064080020F9
:104C6C0010B500F063FB0023A0220D490D48FFF79F
:104C7C00B9FF0D48FDF78EFF0C48FDF78BFF322076
:104C8C0000F052FF0A4B012118600023094A4942E7
:104C9C001360094A1160094A1360094A136010BD78
:104CAC0068000020746400087C200020FC1F002099
:104CBC00AC1600204819002038190020501900208B
:104CCC001807002070B50A4C060020000D00FDF7F7
:104CDC0075FF0022074B20001A60074B03321E6041
:104CEC00064B1D60064B1A60FDF754FF70BDC046A5
:104CFC007C200020A41600203C190020581A00200B
:104D0C0064080020F0B53A4FC1B03D68040028009B
:104D1C00FBF7FCF92900421C684600F00FFF354EEA
:104D2C0028003100FBF7E8F9002827D1042C09D81A
:104D3C002000FBF7F3F90307141B1E002E492F4824
:104D4C00FFF7C0FF00242E4B694638681C60FBF748
:104D5C00D3F9A04201D02B4B1C6041B0F0BD012314
:104D6C00602229492948FFF73DFFEBE7FFF734FBA9
:104D7C00E8E70123802226492648F4E72549280044
:104D8C00FBF7BAF9031E0CD1002C05D0032CD9D19A
:104D9C00A02221493000E6E7012360221F49204868
:104DAC00E1E71F492800FBF7A7F9031E0CD1002CE3
:104DBC0002D0022CDED0C5E71A4B1B491A781B48CF
:104DCC00013252012300CEE718492800FBF794F971
:104DDC00031E04D1134A12789442B3D1DDE70B4978
:104DEC002800FBF789F9031EACD1022CAAD1CFE71E
:104DFC0040190020746400087D640008554B0008BD
:104E0C00F8130020481900200801002085640008D0
:104E1C00680100208F640008680000200800002052
:104E2C009C640008A9160020B4160020AA6400088F
:104E3C00F0B5AC4B8DB01B68002B03D0AA4B186897
:104E4C00FFF760FFA94C002207A92000FDF7FAFD2F
:104E5C00002203A92000FDF71DFE0021022000F016
:104E6C00A3FBA34AA348116801235268006800F011
:104E7C0087FB00242000013401220D21E4B200F054
:104E8C0005FB812CF6D1984E9B4F33685C01009347
:104E9C00E35918000193FBF739F9092814D9974DF8
:104EAC00009B2A6893420FD00022954B01981A6000
:104EBC00FBF72CF90022934B0A381860009B2B60EF
:104ECC00914B1A60914B1A60914B00991B685A1EBA
:104EDC00914274D03C1901273168009B4A1C9342C3
:104EEC000DDD3368002B00DDD3E02921752000F0A7
:104EFC005BFB0123874A116852682320D7E0009B93
:104F0C008B424AD16760009B0D20591A1223013144
:104F1C0059430331C9B200F047FB25682800FBF761
:104F2C00F5F809283FD963680193002B38D0092282
:104F3C00734B1968691804A800F000FE2800FBF7F1
:104F4C00E5F80200112002AB093A0021C01800F06C
:104F5C00FEFD3B00A26804A81168526800F010FB2B
:104F6C00009B32680220991A1223013159430331F4
:104F7C00C9B200F019FBE1686368664A00291AD0CF
:104F8C00002B16D0207D3B001168526800F0A2FA6D
:104F9C00009B2034013300939EE700226260B2E74D
:104FAC0009222900C7E7A2683B0011682800526853
:104FBC00D4E7207CE7E72120C01AC0B2E3E71C3C11
:104FCC003C190127023B00933168009B8B4288DC23
:104FDC00009B8B424BD12760009B0D20591A12234A
:104FEC00023159430331C9B200F0DEFA231F1D68A8
:104FFC002800FBF78BF809283FD923680193002B75
:10500C0038D009223E4B1968691804A800F096FDA7
:10501C002800FBF77BF80200112002AB093A0021B3
:10502C00C01800F094FD3B00626804A81168526837
:10503C0000F0A6FA009B32680220991A1223023162
:10504C0059430331C9B200F0AFFAA168314A236861
:10505C0000291AD0002B16D0207C3B001168526816
:10506C0000F038FA009B203401330093ACE70022A7
:10507C002260B1E709222900C7E762683B0011688A
:10508C0028005268D4E7207BE7E72120C01AC0B281
:10509C00E3E71F4A1268511E8B420FD11321752072
:1050AC0000F082FA012322201A4A1168526800F09B
:1050BC0011FA002000F014F90DB0F0BD9342F8DAAB
:1050CC001321752000F070FA124C012321686268DC
:1050DC00222000F0FFF92921752000F065FA06CC9A
:1050EC0001230AE7F8130020481900205C1B00205C
:1050FC00F0010020AC160020B80D0020381900205B
:10510C00541A0020200700205019002018070020F6
:10511C004C190020F801002010B5002000F0D2F846
:10512C00074B1B68022B02D1FFF782FE10BD032B2D
:10513C00FCD1044A044B10681B689847F6E7C0463C
:10514C0064080020581A00203C1900207F220B48CC
:10515C0010B50B4BC26080320261802203600023C9
:10516C00D205836043618361C36102624362FDF7D0
:10517C0011FC002801D0FFF7A2FB10BD5C1B002026
:10518C00002800400A4B026882B09A420ED180225D
:10519C00084B1202D96D0A438021DA65DA6BC9001B
:1051AC000A43DA63DB6B0B400193019B02B070473F
:1051BC0000280040001002401048114B10B503604D
:1051CC008223C0225B00436000239200C260013A3C
:1051DC00FF3A8261FA3A836003614361C3610362FF
:1051EC0043628362FF3A03630833C2624363FDF791
:1051FC0073FC002801D0FFF762FB10BD881B002058
:10520C000030014010B5040088B01422002103A81E
:10521C0000F09DFC194B22689A422CD18020184B2F
:10522C004001196C0224014319641A6C02400120DC
:10523C000092009A596B014359635A6B03A90240BF
:10524C000192019A5A6BA02022435A635B6BC005F2
:10525C0023400293029BC02304940393FBF762FF49
:10526C0008230393002303A906480494059306938B
:10527C000793FBF757FF08B010BDC0460030014044
:10528C00001002400004005010B5034A13785C1C57
:10529C001470C15410BDC0469A06002007B580B2E8
:1052AC0092B2019200910200012378210348FCF78D
:1052BC008DF90022024B1A7007BDC046B81A0020A7
:1052CC009A060020421E904182220023034940424C
:1052DC00D200585401339342FBD170478A0200200C
:1052EC00030001200D4A10B5107018400DD0822219
:1052FC004020591E49105143094B5918FFF7CEFF56
:10530C00084A13780133137010BD07495B08503BF2
:10531C000B70102348708B700322EFE79B06002064
:10532C008A0200209C060020EC1B002010B5642093
:10533C00FBF7D6F9444CAE212000FFF7A5FF202146
:10534C002000FFF7A1FF10212000FFF79DFFB021E7
:10535C002000FFF799FFC8212000FFF795FF0021DF
:10536C002000FFF791FF10212000FFF78DFF402157
:10537C002000FFF789FF81212000FFF785FFFF2127
:10538C002000FFF781FFA1212000FFF77DFFA62160
:10539C002000FFF779FFA8212000FFF775FF3F21C0
:1053AC002000FFF771FFA4212000FFF76DFFD32130
:1053BC002000FFF769FF00212000FFF765FFD521D2
:1053CC002000FFF761FFF0212000FFF75DFFD921DE
:1053DC002000FFF759FF34212000FFF755FFDA2199
:1053EC002000FFF751FF12212000FFF74DFFDB21BA
:1053FC002000FFF749FF20212000FFF745FF8D21FA
:10540C002000FFF741FF14212000FFF73DFFAF21E3
:10541C002000FFF739FF0D4B21001A780020FFF711
:10542C003DFF0B48FBF778FE0228FAD00020FFF76F
:10543C0049FF0020FFF754FF0022064B1A805A80C8
:10544C0001325A7110BDC046EC1B00209A06002098
:10545C005C1A002084020020094B026810B59A42A5
:10546C0009D1084B1A78012A05D1074908780F2869
:10547C0002D8FFF735FF10BD00220A701A70FAE748
:10548C00005400409B0600209C06002030B581286B
:10549C0015D83F2913D80D4B1B79002B02D0534242
:1054AC005A41D2B28223CD086B4318180723084CFB
:1054BC001940012A04D18A40235C1A43225430BD7E
:1054CC0001228A40235C93432354F8E78402002092
:1054DC008A020020F0B58BB00593CBB20393274B17
:1054EC000891099203991A88060002925218812A8F
:1054FC0041DC08AA527804925C88A3183F2B3ADC52
:10550C003300203B5A4300230792E4B20193019BE2
:10551C00049A934208D3039A029B9446174A634415
:10552C00138030000BB0F0BD079A019B00279B182D
:10553C00099A5B009B5A06936B461D7A039B9F420C
:10554C0005D3019B013401330193E4B2DFE7069BE1
:10555C008022BB401202134208D0059A2800210079
:10556C000135FFF793FF0137EDB2E7E7059A534298
:10557C005A41D2B2F2E70026D3E7C046840200209B
:10558C0037B504001D00009101922078002800D14D
:10559C003EBD2B000099019AFFF79CFF0300207879
:1055AC008342F5D10134F0E7014B188059807047E4
:1055BC008402002001200D4B82B0196C0143196448
:1055CC0080211A6C490502400092009ADA6B0A435A
:1055DC00DA63DB6B064A0B400193019B8023116855
:1055EC00DB000B43136002B07047C0460010024052
:1055FC00000001407047FEE77047704710B5FBF79D
:10560C005DF810BD10B50248FBF732FD10BDC04669
:10561C005C1A002010B50348FBF72AFD0248FBF783
:10562C0027FD10BDBC2000201821002010B5024819
:10563C00FBF7A8F910BDC046B006002010B5024813
:10564C00FDF7D6FA10BDC0463C20002010B5FFF780
:10565C00F5FF10BD10B50248FDF7CAFA10BDC046E3
:10566C007C20002010B50248FDF7C2FA10BDC046E0
:10567C00FC1F0020064810B503689A69E023DB0084
:10568C001A4202D0FCF728FC10BDFCF745F8FBE7EA
:10569C00B81A002010B50248FDF786FE10BDC046B2
:1056AC00742100200A4B10B519680200002901D1A1
:1056BC00084919606946186882188A4206D900F0B0
:1056CC0009FA0C2303600120404210BD1A60FCE76C
:1056DC00A0060020042200208022024B12059A60B2
:1056EC007047C04600ED00E030B595B010220021A7
:1056FC0003A800F02CFA0C220021684600F027FACF
:10570C003422002107A800F022FA1B4C1B4B642208
:10571C0023601F23636000232000A360E2602361E9
:10572C006361A361FDF768FB002801D0FFF7C7F8A0
:10573C00802303A95B0120000393FDF785FB002860
:10574C0001D0FFF7BCF800256946200000950195B3
:10575C000295FDF70FFCA84201D0FFF7B0F807A99E
:10576C0020000E951295FDF72FFC002801D0FFF7B5
:10577C00A6F815B030BDC0463C200020002C0140DE
:10578C0010B588B01022002104A800F0E0F90C221A
:10579C00002101A800F0DBF98023154CDB05236008
:1057AC004023FF3363600023124A2000A360E260B1
:1057BC002361A361FDF720FB002801D0FFF77FF8E0
:1057CC00802304A95B0120000493FDF73DFB002816
:1057DC0001D0FFF774F8002301A920000193039373
:1057EC00FDF7C8FB002801D0FFF769F808B010BD21
:1057FC007C200020C819000010B588B010220021B0
:10580C0004A800F0A4F90C22002101A800F09FF9D3
:10581C00154C164BFA222360154B92006360002343
:10582C002000A360E2602361A361FDF7E5FA002884
:10583C0001D0FFF744F8802304A95B0120000493F6
:10584C00FDF702FB002801D0FFF739F8002301A96E
:10585C00200001930393FDF78DFB002801D0FFF787
:10586C002EF808B010BDC046FC1F002000040040FC
:10587C00FF7C00001FB50368224A93421BD1802095
:10588C00214A0001116C01431164136C0022034086
:10589C00110001930D20019BFBF742FA0D20FBF741
:1058AC006FFA00220E201100FBF73AFA0E20FBF7DC
:1058BC0067FA05B000BD8022D20593420FD10120BA
:1058CC00114AD16B0143D163D36B00220340029385
:1058DC000E301100029BFBF723FA0F20E7E70B4A6F
:1058EC009342E6D10220084AD16B0143D163D36BBA
:1058FC000022034003930E301100039BFBF710FAB8
:10590C001020D4E7002C014000100240000400409D
:10591C008020064A8004D16B82B00143D163D36BE3
:10592C0003400193019B02B07047C0460010024037
:10593C0010B5184B184C0C222360E1235B026360FA
:10594C0000232000A360E36023616261A361E36133
:10595C0023626362A362FEF7E7FA002801D0FEF728
:10596C00AEFF00212000FEF771FB002801D0FEF7EE
:10597C00A6FF00212000FEF78BFB002801D0FEF7CC
:10598C009EFF2000FEF746FB002801D0FEF797FF94
:10599C0010BDC046004400407421002030B5050005
:1059AC0089B01422002103A800F0D1F82E4B2A68EC
:1059BC009A4256D180202D4B8002D96B0143D9637A
:1059CC00DA6B02400192019A0122596BA02011431B
:1059DC0059635B6BC00513400293029B0C2303A914
:1059EC0003930A3B04930792FBF79CFB204C214B3F
:1059FC0080222360342363600023A360E36063612F
:105A0C00A361E361802320005B0122612362FBF729
:105A1C0017FA002801D0FEF752FF174BAC67A562AE
:105A2C00164C8022236035236360253BA360002342
:105A3C00E3606361A361E361C02320009B012261E9
:105A4C002362FBF7FDF9002801D0FEF738FF002296
:105A5C001C206C671100A562FBF762F91C20FBF798
:105A6C008FF909B030BDC046004400400010024020
:105A7C00BC2000201C0002403000024018210020F5
:105A8C000D488546002103E00C4B5B584350043114
:105A9C000B480C4B42189A42F6D30B4A02E00023F7
:105AAC0013600432094B9A42F9D3FFF715FE00F04C
:105ABC0017F8FEF73FFEFEE700900020F47B00088D
:105ACC000000002068020020680200200422002050
