:020000040800F2
:1000000000900020F99A00085596000857960008BD
:1000100000000000000000000000000000000000E0
:1000200000000000000000000000000059960008D9
:1000300000000000000000005B9600085D960008CC
:10004000499B0008499B0008499B0008499B000800
:10005000499B0008499B0008499B000865960008D9
:10006000499B000879960008499B0008499B0008B5
:1000700089960008A996000899960008B19600088C
:10008000C1960008D1960008499B0008499B0008CA
:10009000499B0008499B0008499B0008E19600081D
:1000A000499B0008499B0008499B0008499B0008A0
:0C00B00001970008499B0008499B0008CC
:1000BC0010B5064C2378002B07D1054B002B02D032
:1000CC00044800E000BF0123237010BDE0030020B2
:1000DC000000000014C00008044B10B5002B03D026
:1000EC000349044800E000BF10BDC04600000000FA
:1000FC00E403002014C0000802780B78002A03D017
:10010C00013001319A42F7D0D01A70470023C25CFB
:10011C000133002AFBD1581E7047000002B471460F
:10012C0049084900095C49008E4402BC7047C0462E
:10013C0003B47146490840004900095A49008E44ED
:10014C0003BC7047002243088B4274D303098B42D3
:10015C005FD3030A8B4244D3030B8B4228D3030C8B
:10016C008B420DD3FF22090212BA030C8B4202D32D
:10017C001212090265D0030B8B4219D300E0090A55
:10018C00C30B8B4201D3CB03C01A5241830B8B425E
:10019C0001D38B03C01A5241430B8B4201D34B0347
:1001AC00C01A5241030B8B4201D30B03C01A5241AC
:1001BC00C30A8B4201D3CB02C01A5241830A8B4231
:1001CC0001D38B02C01A5241430A8B4201D34B021A
:1001DC00C01A5241030A8B4201D30B02C01A52417E
:1001EC00CDD2C3098B4201D3CB01C01A5241830932
:1001FC008B4201D38B01C01A524143098B4201D36C
:10020C004B01C01A524103098B4201D30B01C01A96
:10021C005241C3088B4201D3CB00C01A5241830810
:10022C008B4201D38B00C01A524143088B4201D33D
:10023C004B00C01A5241411A00D20146524110469D
:10024C007047FFE701B5002000F0F0F802BDC04692
:10025C000029F7D076E7704703460B437FD4002282
:10026C0043088B4274D303098B425FD3030A8B423E
:10027C0044D3030B8B4228D3030C8B420DD3FF22A8
:10028C00090212BA030C8B4202D31212090265D076
:10029C00030B8B4219D300E0090AC30B8B4201D329
:1002AC00CB03C01A5241830B8B4201D38B03C01A70
:1002BC005241430B8B4201D34B03C01A5241030BE7
:1002CC008B4201D30B03C01A5241C30A8B4201D398
:1002DC00CB02C01A5241830A8B4201D38B02C01A43
:1002EC005241430A8B4201D34B02C01A5241030ABA
:1002FC008B4201D30B02C01A5241CDD2C3098B429F
:10030C0001D3CB01C01A524183098B4201D38B011B
:10031C00C01A524143098B4201D34B01C01A5241BE
:10032C0003098B4201D30B01C01A5241C3088B4203
:10033C0001D3CB00C01A524183088B4201D38B00EE
:10034C00C01A524143088B4201D34B00C01A524190
:10035C00411A00D201465241104670475DE0CA0F67
:10036C0000D04942031000D34042534000229C4627
:10037C0003098B422DD3030A8B4212D3FC22890131
:10038C0012BA030A8B420CD3890192118B4208D307
:10039C00890192118B4204D389013AD0921100E069
:1003AC008909C3098B4201D3CB01C01A524183097D
:1003BC008B4201D38B01C01A524143098B4201D3AA
:1003CC004B01C01A524103098B4201D30B01C01AD5
:1003DC005241C3088B4201D3CB00C01A524183084F
:1003EC008B4201D38B00C01A5241D9D243088B42A5
:1003FC0001D34B00C01A5241411A00D20146634648
:10040C0052415B10104601D34042002B00D54942AB
:10041C00704763465B1000D3404201B5002000F0EA
:10042C0005F802BD0029F8D016E770477047C046A2
:10043C008446101C62468C46191C634600E0C0467C
:10044C001FB501F059F8002801D40021C8421FBD86
:10045C0010B500F0B3FF4042013010BD10B501F0F3
:10046C004BF8002801DB002010BD012010BDC04658
:10047C0010B501F041F8002801DD002010BD01206D
:10048C0010BDC04610B500F0D3FF002801DC0020E1
:10049C0010BD012010BDC04610B500F0C9FF0028EA
:1004AC0001DA002010BD012010BDC046002B11D177
:1004BC00002A0FD1002900D1002802D00021C94305
:1004CC00081C07B4024802A14018029003BDC046A4
:1004DC005DFFFFFF03B4684601B5029800F024F8F5
:1004EC00019B9E4602B00CBC7047C04670B5002202
:1004FC000C4B04000D00FFF7CFFF002804D12000A7
:10050C00290001F011FE70BD064B002220002900CD
:10051C0001F0D4FA01F008FE80231B069C466044CF
:10052C00F1E7C0460000E041F0B557464E4645465F
:10053C00DE46E0B5040083B00D00924699468B422E
:10054C002FD82CD04946504601F0D4FE2900060085
:10055C00200001F0CFFE331A9846203B9B4600D575
:10056C0074E053465A4693401F005346424693400C
:10057C001E00AF4229D826D05B46A41BBD41002BE0
:10058C0000DA79E0002200230092019301235A46FD
:10059C0093400193012342469340009319E0824219
:1005AC00D0D900220023009201930C9B002B01D088
:1005BC001C605D600098019903B03CBC9046994664
:1005CC00A246AB46F0BDA342D6D90022002300922E
:1005DC0001934346002BE8D0FB0772081A434646AA
:1005EC007B080EE0AB4201D1A2420CD8A41A9D416B
:1005FC00012024196D410021013E24184D41002E8B
:10060C0006D0AB42EED9013E24196D41002EF8D133
:10061C005B460098019900196941002B22DB2B00E5
:10062C005A46D3402A004446E2401C005B46150063
:10063C00002B2CDB26009E40330026004746BE4094
:10064C003200801A994100900191AEE74246202376
:10065C009B1A5246DA40414613004A468A4017001C
:10066C001F4382E7424620239B1A2A0046469A40A3
:10067C002300F3401343D5E74246202300219B1A65
:10068C000022009101920122DA40019282E7424657
:10069C00202326009B1ADE402F00B4469740664666
:1006AC003B003343C9E7C04610B5041E27D001F008
:1006BC0003FE9E231B1A962B0ADC9622D21A944018
:1006CC006402640ADBB26402DB05600A184310BDE5
:1006DC00992B17DC9922D21A002A27DD944022008C
:1006EC00134C1440510704D00F210A40042A00D0A7
:1006FC000434620112D4A401640ADBB2E3E70023E0
:10070C000024E0E7B9222100D21A91400A00511EC0
:10071C008A410521091ACC401443DBE7044B1C40E9
:10072C009F23A4011B1A640ADBB2CCE72200D7E793
:10073C00FFFFFFFBF8B54546DE4657464E460C0319
:10074C00E0B54E00C90F88460D00610A440F0C43FA
:10075C00C70019035800DB0F9B464B0A510F0B4384
:10076C00760D400D1900D200D84500D1AEE0351AF7
:10077C00002D00DCF6E000280FD1134300D1DBE0A4
:10078C006B1E002B00D037E1BA1A9742BF41641A96
:10079C007F42E41B0126170024E0C64B9E424DD03D
:1007AC0080231B041943382D00DD07E11F2D00DDCC
:1007BC0038E12020431B9A460B0050468340994653
:1007CC0013004846EB401843030050468240501E2D
:1007DC008241E9401A43BA1A611A9742A4411700A0
:1007EC0064420C1B230262D56402650A002D00D101
:1007FC00DFE0280001F060FD0300083B1F2B00DD4B
:10080C00D2E020223C00D21A9D40D4409F40254388
:10081C009E4200DDC4E09E1B731C1F2B00DDF1E02B
:10082C00202238002900D21AD840914097402C0041
:10083C000143781E8741DC4000260F437B0709D01B
:10084C000F233B40042B05D03B1DBB42BF417F42D5
:10085C00E4191F0023022CD5964B01369E4200D181
:10086C009AE04546944BFF081C40600776056402ED
:10087C000743240B760D00212403230B0C0D8F4A08
:10088C0024051C431440330523435B00ED075B0830
:10089C002B43380019003CBC90469946A246AB4607
:1008AC00F8BD6446044300D111E2040067467B079F
:1008BC00C6D145466007FF080743E4087D4B9E42BE
:1008CC0030D024037605240B760DD4E7331A9A46E0
:1008DC00002B78DD002831D076488642AED08020BF
:1008EC00000401435346382B00DCE9E00A43511E57
:1008FC008A410021D219BA42BF4109197C42170022
:10090C000C192302D3D56B4B01369E4200D13AE130
:10091C000120694B1C407B0807401F43E00707433D
:10092C0064088BE723003B4300D1CBE18022120308
:10093C0014432403240B9EE72E007FE7080010438A
:10094C0000D1B4E0581E002800D0DEE0BA18BA423C
:10095C009B4164185B42E418170001262302A6D5BC
:10096C000226D5E7002D6ED1701C4005400D0128E4
:10097C0000DCF9E0B81A844687428041E51A40420F
:10098C002D1A280200D489E0D71BBA4292411C1BB5
:10099C005242A51AD84629E74546002400276AE7A3
:1009AC00454CF61A2C4049E73D0028388540002775
:1009BC002EE7380001F080FC20301DE70A43511E61
:1009CC008A41002107E7002B00D0F3E0701C43059F
:1009DC005B0D012B00DCADE0364B984200D1D1E031
:1009EC00BA18BA42BF4164187F42E419E7075208AB
:1009FC0017436408060021E72E48854200D193E096
:100A0C001D00D0E629001F3EF140202B00D18DE0C7
:100A1C004022D31A9D402F437D1EAF4100240F432B
:100A2C00002644E72B000800203BD8400300202D73
:100A3C0000D17DE04020451BA9400A43511E8A414C
:100A4C0000211A43C7E6002E50D01A4EB04257D0A0
:100A5C0080266B429946360434434B46382B00DDD6
:100A6C00D6E01F2B00DD35E12026F51A2600AE401E
:100A7C00B2463E00DE40AC46350056462E43654637
:100A8C00AF407D1EAF41DC403743D71BBA42924189
:100A9C000C1B5242A41A0600D846A3E664466746CD
:100AAC002C4300D0A2E600250026002706E71E00F6
:100ABC00C4E6C046FF070000FFFF7FFFFFFF0F806B
:100ACC001F2B63DC2020C31A080098409C468346E9
:100ADC0053461000D84003005846184363469A40CA
:100AEC00531E9A4153460243D94003E726003E4326
:100AFC0006D0EB439946002BC7D0944EB042ACD1F4
:100B0C000C0017000600D84698E6904B9A450BD07F
:100B1C008246E7E6002800D09EE01800104300D182
:100B2C00E9E01C001700D846884E87E6002572E7DE
:100B3C00002182E723003B43002E00D0ABE0002BCA
:100B4C0000D1E7E00B00134300D177E6BA18BA42A4
:100B5C00BF4164187F42E419230200D4F2E07C4BBD
:100B6C0017001C40060069E620003843002ED1D146
:100B7C0000285BD11C00144300D1A8E01C00170016
:100B8C00D8465BE606000024002797E650460B008B
:100B9C002038C34099465346202B00D195E0402382
:100BAC0050461B1A99400A43511E8A414B4600215C
:100BBC001A439FE6002E30D126003E4367D0DB431C
:100BCC009A46002B1CD0614EB04260D05346382B55
:100BDC0000DD96E01F2B00DD9FE02026F31A260097
:100BEC009E409C46B34653463E00DE4033005E4674
:100BFC001E4363469F407B1E9F415346DC40374358
:100C0C00BF189742924164185242A418060078E625
:100C1C0027437C1EA741002437E74C4EB04236D008
:100C2C0080265B4236049A463443CFE718001043C3
:100C3C0000D103E6B81A84466745AD41E01A6D420F
:100C4C00401B050200D42CE6D71BBA4292411C1B58
:100C5C005242A41AD846F1E51800104300D163E7BC
:100C6C00F808670707438020E4080003044208D013
:100C7C00DD08054205D1D208590711430F002C009D
:100C8C00D8467B0FE4001C43FF00304ED6E50C0029
:100C9C0017000600D2E5002B38D00B00134300D10F
:100CAC0042E7F808670707438020E4080003044282
:100CBC00E7D0CB080342E4D1D208490711430F0017
:100CCC001C00DEE700270024D5E500216BE700259A
:100CDC000027F3E54E462500203EF5404B462E00FE
:100CEC00202B2DD04025ED1AAC4027437C1EA7416C
:100CFC0000243743C9E6802400252403134E002723
:100D0C00DCE527437C1EA741002479E70C00170083
:100D1C000E4E93E50C00170090E556462300203E3E
:100D2C00F34099465346202B0ED0402356469B1B2E
:100D3C009C4027437C1EA7414B4600241F435FE782
:100D4C000024D2E71700B2E50024F2E7FF07000009
:100D5C00FFFF7FFFF0B557464546DE464E46E0B5F1
:100D6C004C000E0387B0834692461D008046360B1E
:100D7C00640DCF0F002C4FD06F4B9C4235D080238D
:100D8C00420F1B04F600134333439946C3009846A5
:100D9C006A4B00269C460023644403932B031B0BD5
:100DAC009B466B00ED0F50465B0D01955ED0624A81
:100DBC00934253D05A46D1008022400F1204024372
:100DCC000A4393465246D1005C4A9446002263443F
:100DDC003800684084460290E41A16430F2E00D95E
:100DEC00B4E0574BB6009B599F46030033439946DA
:100DFC006CD100239846023308260393CEE7CB46EA
:100E0C004146039A0197022A65D1019B4A4C9C46A4
:100E1C000023002298466BE00300334399464ED0E2
:100E2C00002E00D1BCE1300001F046FA03000B3B70
:100E3C001C2B00DDACE11D22D31A5A460100DA400E
:100E4C0008398E401300334399465B468B409846D5
:100E5C0000233C4C0026241A03939FE751465A4624
:100E6C00114329D1002293460232B1E7594601437E
:100E7C001ED05B46002B00D19EE1584601F01CFAB7
:100E8C0003000B3B1C2B00DD8FE102005946083A96
:100E9C0091408B461D21CB1A5146D9400B00594627
:100EAC000B4351469B469140264B00221B1A8FE761
:100EBC00002301229B468BE75146032288E700233F
:100ECC009846013304260024039367E70323B146B5
:100EDC0003930C2662E7032A00D15CE2019B012AF2
:100EEC0000D0E4E113409C460023002400229846E5
:100EFC0000211203130B0A0D12051A432305124C81
:100F0C0040462240134362465B00D2075B08134302
:100F1C00190007B03CBC90469946A246AB46F0BDC2
:100F2C00002380229C4612039846034CE0E70023E2
:100F3C00014C00229846DBE7FF07000001FCFFFF95
:100F4C003CC000080DFCFFFFFFFF0F80D94500D906
:100F5C0039E100D134E1002346464D469A46013C26
:100F6C005B460A0E1B021A430B02170C0393130465
:100F7C001B0C3900280090460193FFF7E3F80200A0
:100F8C00019B83465A43280039009146FFF760F9CC
:100F9C00350C09040D43A9450DD95B464544013B6D
:100FAC00A84500D93AE1A94500D837E102235B42B4
:100FBC009C464544E3444B46EB1A39001800049315
:100FCC00FFF7C0F8019B050043433900049899468C
:100FDC00FFF73EF9330409041B0C0B43994509D95F
:100FEC0043446A1E984500D91AE1994500D817E187
:100FFC00023D43444A469B1A5A4612042A4303991B
:10100C009346100C0A0C914609045A46090C4E469C
:10101C000D001204120C4543059151437243704369
:10102C0052190E0CB218954203D980256D02AC46AC
:10103C006044150C09041204090C28185218834238
:10104C0000D2CEE000D1C8E01D1A53469E1AB2451C
:10105C0092415242AB1A9A46984500D117E1390099
:10106C001800FFF76FF8019B050043433900504609
:10107C000493FFF7EDF804980B04310C19438842E4
:10108C0009D941446B1E884500D907E1884200D834
:10109C0004E1023D4144049BCB1A1800390004932F
:1010AC00FFF750F8019B82464343390004980193A3
:1010BC00FFF7CEF801980B043104090C1943884250
:1010CC000DD953464144013B884500D9E8E088429C
:1010DC0000D8E5E002235B429C464144E244019B7C
:1010EC002D04CE1A51462943059D4F462A000B0468
:1010FC00080C1B0C5A4345437B4378435B19170C74
:10110C00FB189D4203D980256D02AC4660441D0C32
:10111C0012041B04120C28189B18864200D293E070
:10112C0000D18EE001231943A04BE318002B00DC07
:10113C0099E04A0700D09EE05A46D20106D55A469D
:10114C009B4B1A4080239346DB00E318994A934249
:10115C0068DD0123029A984C1A4000239446984665
:10116C000022C5E680224B46120313420AD05B468E
:10117C00134206D11A431203120BAC4688468E4C0E
:10118C00B6E64B461A431203120BBC468A4CAFE62A
:10119C0003005A46283B9A4000239146984657E64E
:1011AC00584601F089F8203040E603005246283BAF
:1011BC009A400021934677E601F07EF820305FE6F6
:1011CC00884500D2C7E64B46DE075D0843465B0800
:1011DC001E434346DB079A46C2E60025924500D3E0
:1011EC0033E7039E5946B446E244B245AD416D42E5
:1011FC004544EB180139984507D2984200D97FE055
:10120C0000D1BCE01D1A8B461FE79845FAD1039D0F
:10121C005545F2D943468B461D1A16E79B46CAE63E
:10122C001500E7E65A46C90852070A435B05904683
:10123C005C0D5A460123029952021940120B8C463E
:10124C0056E6002B00D16FE746444A1EB04529D91B
:10125C001100864200D065E7039A934200D061E703
:10126C0062E7012149420120C21A382A21DD029B82
:10127C0003409C4638E60F220A40042A00D15BE763
:10128C000A00111D914292415242934454E7474B3C
:10129C00E318002BE5DD01225242F2E71D00FAE6CD
:1012AC009A461CE7B04239D86ED011003AE7029347
:1012BC003AE71F2A3CDC20239B1A0C005846994025
:1012CC0098404B1E99415B46D440D3402043084381
:1012DC001A00430709D00F230340042B05D001004B
:1012EC00081D88429B415B42D21813023AD5012358
:1012FC00029A01241A400023944698460022F7E5EE
:10130C00022149428C46039DE344AC46E244AA4583
:10131C00AD416D424544ED182D1A96E68A1E03998F
:10132C004D008D42894149424144761803958FE71F
:10133C001F204042C31A5846D8400300202A28D008
:10134C0040205D46821A954029434A1E914119431B
:10135C00072300220B4009D00F2300220B4008006A
:10136C00042BBDD1010053075202120BC9081943BB
:10137C00012388460299002419408C46B8E5524551
:10138C00BED88B46002560E6039D9D42C6D3110056
:10139C0062E70025D8E780225B4612031A43019BC3
:1013AC001203120B9C468846034CA1E5FF03000078
:1013BC00FFFFFFFEFE070000FF070000F0B54F46E1
:1013CC004646D6465C00C0B51F03DB0F9A46174B4A
:1013DC000E034D0084468046360B6D0DC90F9146A9
:1013EC003F0B640D01209D4208D09C4201D0A542C8
:1013FC000BD01CBC90469946A246F0BD63463343C5
:10140C00F7D1AC42F5D13A43F3D10120BE42F0D131
:10141C00C845EED1514507D0002DEAD163461E4395
:10142C003000461EB041E4E70020E2E7FF07000071
:10143C00F0B54546DE4657464E46E0B51F033D0B1C
:10144C002C4F0E034C00AB465D008446360B640DEE
:10145C00C90F90466D0DDB0FBC422AD0254FBD4203
:10146C002DD0002C0FD130430700814678427841B3
:10147C00C0B2002D17D15F463A4314D14B46002021
:10148C00002B0AD006E0002D02D15846024301D0B1
:10149C00994218D04842012108433CBC90469946D9
:1014AC00A246AB46F0BD0028F2D00120013B184308
:1014BC00F3E737000743D1D002204042EDE75F4607
:1014CC001743CED0F8E7AC42E4DC03DA481E012126
:1014DC000843E2E75E45DDD806D000205E45DCD24D
:1014EC000123481E1843D8E7C445D3D80020C4456F
:1014FC00F6D3D2E7FF070000F0B54E464546DE4670
:10150C0057465C00E0B51F03DB0F99462A4B0E03D0
:10151C004D00C90F8446360B6D0D8B4690463F0B24
:10152C00640D9D4220D0244B9C4222D0002D12D120
:10153C00304343424341DBB2002C1FD0002B0CD074
:10154C004B460120013B034318003CBC9046994696
:10155C00A246AB46F0BD002C16D0CB4517D05B464F
:10156C00594201230B43EFE7310002230143EBD136
:10157C00D9E7390002231143E6D1D7E73A43DDD14D
:10158C0000230028E0D0EAE73A43E6D1E7E7A5429A
:10159C00E5DC05DBBE42E2D807D00023BE42D3D245
:1015AC005946012301390B43CEE7C445D7D8002354
:1015BC00C445F5D3C8E7C046FF070000F0B5574651
:1015CC004546DE464E46E0B50C0398464E00230BCE
:1015DC0087B0070092469B46760DCD0F002E6BD040
:1015EC006D4B9E4235D080245B46420F2404DB00B9
:1015FC0014431C43C3009946684BA3469C460023E6
:10160C0000276644029343461C035A00DB0F5046E6
:10161C00240B520D984600D176E05F4B9A426DD068
:10162C008023410F1B040B435C49E4008C461C4394
:10163C00C300002062444146B6186940721C0191F7
:10164C00944607430F2F00D9B0E0554ABF00D2593A
:10165C0097465B460343994600D087E000239B46A0
:10166C00023308270293CEE742460192022867D044
:10167C00032800D10EE2012800D062E100230024EF
:10168C000022994601990140CDB2002112030B0DA5
:10169C00120B1B051343434A240513401C436400DF
:1016AC00ED0764082C434846210007B03CBC90462B
:1016BC009946A246AB46F0BD034399464FD05B46D4
:1016CC00002B00D189E1584600F0F6FD03000B3BDE
:1016DC001C2B00DD7AE11D22D31A3A0001005C4676
:1016EC00DA4008398C4013008F4023439B46B9469F
:1016FC0000232D4E0027361A029384E753462343CA
:10170C002AD10024022096E75346234320D0002CF4
:10171C0000D157E1200000F0CFFD03000B3B1C2B48
:10172C0000DD49E11D21CB1A51460200D940534638
:10173C00083A944093400C431B4A121A00207AE753
:10174C000125019B144C1D400023002299469CE767
:10175C000024002201206EE7534603206BE7002390
:10176C009B4601330427002602934CE70323814652
:10177C000C27029347E78022002300251203994689
:10178C00054C82E75C464B4602986FE75C464B463D
:10179C00019502986AE7C046FF07000001FCFFFFB5
:1017AC007CC00008FFFF0F800DFCFFFF4A46494636
:1017BC00170C1A0C1B041B0C08041900000C4143D9
:1017CC001500884619007D43794303958946290005
:1017DC00150045434D44029545462D0CAA46029DE5
:1017EC005544A94506D98A46802149028946CA44EE
:1017FC0051460391290C0491414609042D04090C0E
:10180C0088462900250C24044144240C0591210010
:10181C0041438846210079438A46684341465044F7
:10182C008146080C48446F43824503D98021490204
:10183C0089464F44010C894639004944029141467E
:10184C000F0404993F0C88460004C019804441469B
:10185C00049159460F0C0904090C884659438A46D1
:10186C0039005143894641464A435146090C8B463F
:10187C007B43D2185A44934203D980235B029B4684
:10188C00D94451460904090C8A46414661437C43BC
:10189C00130C12044B445244A1468A463C00414668
:1018AC006C434D4351464D440F0C7D19A94503D94A
:1018BC008021490288464444049F0399B846414418
:1018CC008B468345804141428846514608042F048B
:1018DC00000C3F18584602991018894690429241C4
:1018EC004F44BA46524299469346C244D144CB44E3
:1018FC008F42BF41C245894199459B4193459241D5
:10190C007F4249422D0C52420F435B4213437F19D5
:10191C00FF185B463C19DB0D059A64021C4343021D
:10192C0013435D1EAB415A46C00D03435202134391
:10193C00E20156D501205A0803401343E207134332
:10194C0064085A48604400284DDD5A0709D00F221C
:10195C001A40042A05D01A1D9A429B415B42E41896
:10196C001300E20104D58020514AC00014406044A9
:10197C00504A904200DDE3E60125DB0862071A437A
:10198C006402019B9146220B4405640D1D407CE6CC
:10199C00802259461203114208D0144206D1224328
:1019AC001203120B45469946434C6EE65B461A43AE
:1019BC001203120B404C68E603005446283B9C4033
:1019CC000023B9E600F078FC2030A6E60300283BA3
:1019DC009F400023BB4699468AE600F06DFC203000
:1019EC0074E6B446ADE701252A1A382A06DD019BB8
:1019FC0000241D4000230022994646E61F2A21DCC4
:101A0C0020252000AD1A1E00AB40A840D6405D1E1C
:101A1C00AB4130431843D440430709D00F23034054
:101A2C00042B05D00300181D98429B415B42E4181F
:101A3C00230221D50125019B01241D4000230022F6
:101A4C00994622E61F2521006D42281AC140080044
:101A5C00202A1DD05F35AA1A944023435C1EA34153
:101A6C00072503431D400022002D09D00F2200241E
:101A7C001A401800042AD6D1030065076402220B11
:101A8C00DB082B4301259946019B00241D40FCE5F6
:101A9C000024E2E78022012512032243019912035C
:101AAC00120B0D409946044CEFE5C046FF030000B5
:101ABC00FFFFFFFEFE070000FF070000F0B54646E3
:101ACC00D6464F460C03C0B5CD0F4E00610A440FED
:101ADC000C43C1005800400D84468A460F00190380
:101AEC00500F490A0143C648760DA846DB0FD200B9
:101AFC00844500D1D8E001204340AB4200D1A6E0A0
:101B0C006046351A002D00DC05E1002810D10B00D1
:101B1C00134300D1D7E06B1E002B00D04BE1534692
:101B2C009F1ABA458041641A4042241A01261EE0CD
:101B3C00B34B9E4248D080231B041943382D00DD43
:101B4C0019E11F2D00DD4CE120230F005B1B100061
:101B5C009A409F40E840531E9A41E940074317437F
:101B6C005346DF1B611ABA45A44164420C1B230285
:101B7C0000D4C5E06402650A002D00D1F6E028000F
:101B8C0000F09AFB0300083B1F2B00DDE9E020224C
:101B9C003C00D21A9D40D4409F4025439E4200DD1C
:101BAC00DBE09E1B731C1F2B00DD0AE1202238009A
:101BBC00D21A290097402C009140D8407A1E9741A8
:101BCC00DC40002601430F437B0709D00F233B4029
:101BDC00042B05D03B1DBB42BF417F42E4191F00C3
:101BEC00230225D5864B01369E4200D1AFE0854BB2
:101BFC0001251C4043466207FF0864027605174323
:101C0C00240B760D1D4000212403230B0C0D7E4A62
:101C1C0024051C431440330523435B00ED075B088C
:101C2C002B43380019001CBC90469946A246F0BDC7
:101C3C00012543466207FF081743E4081D40704B1B
:101C4C009E4236D024037605240B760DDBE76346E3
:101C5C00F31A002B00DC94E06046002835D068486D
:101C6C008642B1D080273F043943382B00DCFDE09D
:101C7C000A43170000217A1E97415744574580416B
:101C8C00091944420C1923023AD55D4B01369E4288
:101C9C0000D14BE101225B4B1C407B0817401F43DA
:101CAC00E207174364088FE70800104300D024E7CD
:101CBC0021E723003B4300D1B9E1802212031443F6
:101CCC002403240B9FE72E007EE70800104300D16D
:101CDC00CAE0581E8446002800D0E7E05244524522
:101CEC00804164184042241817000126230207D5AE
:101CFC000226CFE764462C4300D1B3E12C006746A3
:101D0C007B0700D062E76307FF081F4301254346AA
:101D1C00E4081D4093E7002D78D1751C6D056D0D01
:101D2C00012D00DCF2E05046801A8245BF41651A55
:101D3C007F42ED1B8446280200D48CE05046171AD3
:101D4C00BA4292410C1B5542651B984614E701257B
:101D5C00434600241D40002755E72A4CF61A2C4018
:101D6C0032E73D0028388540002717E7380000F09F
:101D7C00A3FA203006E70A43170000217A1E974188
:101D8C00EEE6002B00D0E5E0731C9C465B055B0D7A
:101D9C00012B00DC9FE01A4B9C4500D1C5E052445E
:101DAC0052458041641840422418E70752081743F3
:101DBC006408664608E71248854200D185E01D009C
:101DCC00BCE629001F3EF140202B00D17FE04022D1
:101DDC00D31A9D402F437D1EAF4100240F43002694
:101DEC008EE72B000F00203BDF40202D71D04023CD
:101DFC005D1BA9400A43511E8A4100211743AFE6DF
:101E0C00FF070000FFFF7FFFFFFF0F80002E3ED07B
:101E1C00B34EB44545D0802636046D423443382D3C
:101E2C0000DDA8E01F2D00DD1FE120262700504615
:101E3C00761BB740E84007435046B040461EB041C1
:101E4C00EC403843171ABA4292410C1B5242A41A66
:101E5C00664698468BE6644667462C4300D08BE674
:101E6C00002500260027EAE61E00ADE61F2B60DCED
:101E7C002027F81A0F00844687401000D8400743EB
:101E8C0060468240501E8241D9401743F5E6260039
:101E9C005046064305D0ED43002DD3D0904EB445AB
:101EAC00BDD10C001700664698468DE68C488342DF
:101EBC000BD06346D9E6002D00D096E00800104305
:101ECC0000D1E2E00C0017009846854E7CE6002518
:101EDC0080E700218EE7230050460343002E00D0FC
:101EEC00A8E0002B00D1DEE00B00134300D16BE621
:101EFC005244524580416418404224181700230272
:101F0C0000D4FDE6774B66461C405DE62500504646
:101F1C000543002ECFD1002D4FD10C00144300D11E
:101F2C00A0E00C00170098464EE6664600240027F9
:101F3C0085E61F000800203FF8400700202B00D149
:101F4C008EE04020C31A99400A43511E8A41002159
:101F5C00174392E6002E14D126005046064362D059
:101F6C00DB43002B5CD18718974292416418524294
:101F7C00A418664687E650462043441EA041002420
:101F8C0060E7574EB4454ED0802636045B4234434E
:101F9C00382B00DD7FE01F2B00DD8BE02026270097
:101FAC005046F61AB740D84007435046B040461E3C
:101FBC00B0410743DC40BF18D6E70D00154300D1F4
:101FCC0002E65046801A8245BF41651A7F42ED1BDE
:101FDC008446280200D48DE65046171ABA42924124
:101FEC000C1B5242A41A9846EEE50D00154300D185
:101FFC006BE750466707C00807438020E4080003DE
:10200C00044207D0CD08054204D12C009846D708CD
:10201C0049070F437B0FE4001C43FF00304ED3E510
:10202C002F4EB445B4D10C0017006646CCE5002702
:10203C000024E8E5002B39D00B00134300D144E712
:10204C00C008670707438020E40800030442E1D07E
:10205C00CB080342DED1D70849070F431C00D9E750
:10206C00002171E700250027E9E52E002700203E1E
:10207C00F740202D2FD04026751BAC4050462043F6
:10208C00441EA04100243843DCE6802400252403B0
:10209C00134E0027D3E5504620430700781E874196
:1020AC000024BF1860E70C0017008DE50C0017002A
:1020BC000B4E89E51E002700203EF740202B0CD04C
:1020CC004026F31A9C4050462043441EA04107432F
:1020DC000024BF1848E70024D0E70024F3E7C046EB
:1020EC00FF070000FFFF7FFF70B50E4E0D031C03B2
:1020FC0049005B002D0B490D240B5B0DB14204D044
:10210C00084900208B4208D070BD05430120002DEA
:10211C00FAD1044900208B42F6D114432000441E0E
:10212C00A041F1E7FF07000030B5134D0A034B0047
:10213C00120B5B0DC90F0024AB4210DD0F4CA342F8
:10214C000FDC80240E4D64032243ED1A1F2D0BDD92
:10215C000C48C31ADA405442002900D11400200064
:10216C0030BD094BCC18FAE7084CE840A446634450
:10217C009A400243EFE7C046FE0300001D04000036
:10218C003304000013040000FFFFFF7FEDFBFFFF93
:10219C0070B5002830D0C317C4185C40C50F2000A0
:1021AC0000F08AF8174B184A1B1AD21A1F2A18DD8E
:1021BC00164AD21A9440002224035B05240B5B0DB3
:1021CC000021100024030A0D240B12052243104C8D
:1021DC001B05224013435B00ED075B082B431900E2
:1021EC0070BD210091400A000B21081AC4405B0508
:1021FC002403240B5B0DE3E70025002300240022BD
:10220C00DEE7C0461E040000330400001304000087
:10221C00FFFF0F804100090E4B1C70B5DBB246026C
:10222C00750AC40F012B14DDE0239B006D07360BE0
:10223C00CB1800210A0D280012051C4D32435B05FA
:10224C002A405B0813435B00E4075B082343190037
:10225C0070BD002914D1002D1ED0280000F02CF8E0
:10226C000A281CDC0B232A001B1ADA400300153346
:10227C009D400F4B12031B1A5B05160B5B0DD8E729
:10228C00002D06D0320B802636036D071643094B02
:10229C00CFE7084B0026CCE700230026C9E7030054
:1022AC002A000B3B9A400025E3E7C046FFFF0F8056
:1022BC0089030000FF0700001C2101231B04984226
:1022CC0001D3000C10391B0A984201D3000A0839BB
:1022DC001B09984201D30009043902A2105C401872
:1022EC007047C04604030202010101010000000016
:1022FC000000000010B5002903D1FFF7DDFF2030EE
:10230C0002E0081CFFF7D8FF10BDC046104B70B59B
:10231C0019680500002901D1012070BDFA20800048
:10232C00FDF710FF0B4B01001868FDF70BFF00F0D9
:10233C00A7FB041EF0D1032DEED8020001202900CA
:10234C00404200F051FB044B20001D60E5E7C04605
:10235C000000002008020020040000208023084A0E
:10236C005B00116810B50B4313600020FFF7CEFF24
:10237C00041E03D107F048F9200010BD0124FBE72F
:10238C0000200240034A0449136809685B18136073
:10239C007047C0462808002000000020014B186838
:1023AC007047C0462808002070B50400FFF7F6FF00
:1023BC000500631C02D0044B1B68E418FFF7EEFF0A
:1023CC00401B8442FAD870BD000000208068400792
:1023DC00C00F70470023F0B585B0040003930125AE
:1023EC00984200D19AE0856D9D4205D103F026FEFE
:1023FC0023005433E5651D70802326685B05B268A5
:10240C001A4200D1D0E0B3680025DB0000D4D8E03C
:10241C003000FFF7DBFF1023A66D1E4000D0BEE09E
:10242C00002800D0BBE0A36D7C4A1A400223134362
:10243C00A36523689A68D20700D4CBE0276B217E72
:10244C00781E8741627E3803D20389030190E068CD
:10245C001143A27E01432069944652031143002884
:10246C0066DA47007F0822002C32127852000A43A9
:10247C0001990A4317430197621CD27F012A07D1A5
:10248C006146002957D18022390052021143019133
:10249C00626A002A07D0E02149000A40A16A0A4377
:1024AC00019911430191616C226C0A43A16C0A439E
:1024BC00E16C0A4321003C310978012900D10A431F
:1024CC00D968574F3940019F3943D9601969554F25
:1024DC0039400A43072170271A615A698A43616B94
:1024EC000A435A615A69A16BBA4309010A435A61FA
:1024FC0000282AD11022996A52420A439A624A4A07
:10250C00DB681340019A9A423DD100230322E36514
:10251C00A36D93431A0001231343A365280005B050
:10252C00F0BD039B013B0393039B002BF9D16AE79E
:10253C008027BF0397E7A16D8C462021674639435E
:10254C00A165E16D0A43E265A2E780229203904205
:10255C00D5D10F20216E0F00B200D7403A000240B7
:10256C000F2A0DD00136082EF5D130489A6AE2694F
:10257C0012181C20920002402C3890400200BCE73C
:10258C00012EB7D0F1E71222A36D012593431A0057
:10259C0010231343A365E36D2B43E365BEE7A26DE4
:1025AC0001251343A365B9E7B26821490A401343D7
:1025BC00B360204B20491868FDF7C4FD4000039020
:1025CC00B2E710230125A26D1343A365E36D2B43E2
:1025DC00E3651DE71821DA688A43A1680A43DA60CB
:1025EC0061681A69880F9200800792080243802064
:1025FC001A614A005208C005824200D11EE78022AF
:10260C001206914200D119E70C480D4F02683A406E
:10261C00F027BF0339400A4302600FE7FDFEFFFFBE
:10262C001902FEFF02FCFFDFE7FF3F83FFFFFF3FC6
:10263C00E8FFFF6F08020020400D0300082701404F
:10264C00FFFFC3FF7047704770470000F8B5036881
:10265C0004001D685E6802231D420FD01E420DD07F
:10266C00836DDB0604D48023826D1B0113438365C9
:10267C00200000F0B7F9022223681A6004231D42DF
:10268C0001D01E4204D108231D422AD01E4228D05C
:10269C00A36DDB0604D48023A26D9B001343A365BA
:1026AC00C02320681B01C2681A4214D1A37E002BE0
:1026BC0011D103681B070ED5FFF788FE00285AD1ED
:1026CC000C21226853688B435360A36D354A1A4022
:1026DC0001231343A3652000FFF7B4FF0C222368EA
:1026EC001A6080273D420BD03E4209D08023A26D58
:1026FC005B021343A3652000FFF7A5FF23681F604F
:10270C0080277F003D420BD03E4209D08023A26D32
:10271C009B021343A365200000F062F923681F603D
:10272C008027BF003D420BD03E4209D08023A26DD2
:10273C00DB021343A365200000F053F923681F60EC
:10274C0010231D420BD01E4209D0236B002B1BD033
:10275C002368DB689B0717D1102223681A60802737
:10276C00BF013D4206D03E4204D0200000F03BF9B0
:10277C0023681F60F8BD2023A26D1343A3650123BA
:10278C00E26D1343E365A6E78023A26DDB001343E0
:10279C00A3650223E26D20001343E365FFF754FFAA
:1027AC00DAE7C046FEFEFFFF0023F0B589B00793C1
:1027BC00030054331A7805000F000224012A00D1BB
:1027CC00C1E0012600681E70FFF700FE0390002890
:1027DC0000D0EFE0042280217B689446019301989D
:1027EC002B6909063A68A04200D1B6E060468343E3
:1027FC008B4213D129685303886A5B0B03438B62AA
:10280C002868BB686E4944691940614013020B404B
:10281C0063404361002A65DB002491E01F21019B8A
:10282C000B4002930F2302988340DB4304930498DC
:10283C002B6E0340059350031300002815D1900E06
:10284C00084002998840059908430199286689082F
:10285C00E86901318142D3D8029C29689B001B0F87
:10286C00886AA340049C2040C8E703983242E8D110
:10287C0030002242E5D1614620000A42E1D103201A
:10288C001107DED46046D106DBD405209106D8D4DE
:10289C0001305106D5D401301106D2D40130D10506
:1028AC00CFD401309105CCD401305105C9D40130BD
:1028BC001105C6D40130D104C3D401309104C0D465
:1028CC0001305104BDD401301104BAD40130D1030C
:1028DC00B7D401309103B4D48020C0021040B0D0E2
:1028EC001220AEE7E021374B37481C6849042140E1
:1028FC00824217D18020000404428DD11A68334CD7
:10290C0022400A4302431A60314B32491868FDF7E2
:10291C0019FC0790079B002B00D17DE7079B013B1F
:10292C000793F7E72C48824210D1802040040440E2
:10293C0000D071E71A68254E32400A4302431A60F0
:10294C00002354352B70200009B0F0BD234882427F
:10295C0000D061E78020C003E9E7604683438B42E7
:10296C0005D128685103836A490B8B438362002A83
:10297C0000DB51E7134B144918688A4208D1A02296
:10298C001C6852041149024021400A431A6043E773
:10299C0011498A4203D1C0221C681204F2E70F4984
:1029AC008A4200D038E7C022520419680240074816
:1029BC000140EAE72023AA6D34001343AB65BFE75F
:1029CC0000FFFF0708270140001000B0FFFF3FFE8B
:1029DC0008020020400D0300004000B8002000B4A5
:1029EC00704770477047704770B58901002812DB3B
:1029FC008308134A03249B009B18FF222040A0400D
:102A0C001400C025844011408140AD005E59A6439E
:102A1C003143595170BD03240F23C0B203402040F1
:102A2C00A040FC342500214085408140083B054AEC
:102A3C009B089B009B18DA69AA431143D961E9E70B
:102A4C0000E100E000ED00E0002805DB1F2318404A
:102A5C001E3B8340014A13607047C04600E100E012
:102A6C00002809DB1F2318401E3B8340034AD36711
:102A7C00BFF34F8FBFF36F8F7047C04604E100E088
:102A8C00094A431E012093420DD8C021074A084829
:102A9C005360036A09061B021B0A0B4303620020E6
:102AAC000723906013607047FFFFFF0010E000E009
:102ABC0000ED00E0002807DB1F23C02218401E3B5E
:102ACC008340024952008B507047C04600E100E041
:102ADC00F0B5846CC56C6560046D002C02D0446D3F
:102AEC00856D65601C25046C084E25400124AC40A6
:102AFC0077683C437460046863608368102B02D170
:102B0C00A260E160F0BDA160E260FBE70000024062
:102B1C0010B50400007814210838FDF713FB236C62
:102B2C00064A9B089B189B006364054BA3641C23FB
:102B3C0018401B3B8340E36410BDC046008200106C
:102B4C008008024070B504000120002C48D0256894
:102B5C00264B1421E818FDF7F5FA02238000A61D78
:102B6C002064F3772B68224AE16813402B60A3683A
:102B7C002A680B43216920000B4361690B43A1694F
:102B8C000B43E1690B43216A0B4313432B60FFF7A3
:102B9C00BFFF8023A268DB019A4201D1002363604E
:102BAC006268616CD3B20B60E06CA16C013A486056
:102BBC00032A16D80F4A104899180322013B1340D8
:102BCC00023A9A40A26513000022890021656065D3
:102BDC000A60436000200123E0630534F377E0775B
:102BEC0070BD002323656365A365F3E7F8FFFDBFA4
:102BFC000F80FFFF3F82001040090240F8B5461DD0
:102C0C00F57F04000220012D30D00125A71DF5779A
:102C1C00FD7FEDB2012D27D1F87700202768E06306
:102C2C003868A84338602000FFF752FF226B2368F6
:102C3C00002A1CD00E2219680A431A60626C1168B3
:102C4C00C90304D580211068490001431160226D2D
:102C5C00002A04D080211068490001431160012230
:102C6C00002019680A431A600023F377F8BD042189
:102C7C001A688A431A6019680A22DDE7F8B501233D
:102C8C00411DCB77841DE27F022A03D00422C2634C
:102C9C001800F8BD0E2602681568B5431560156856
:102CAC00466C9D4315603268114D2A4032601C22DF
:102CBC00AC46056C0F4E2A40934077683B437360DB
:102CCC00C26C836C5A60036D002B06D065461A6883
:102CDC002A401A60436D826D5A600123E377002409
:102CEC00826BCC771300A242D2D090472300CFE75F
:102CFC00FFFEFFFF00000240F8B51C210427046C06
:102D0C00264B21403C008C401E68026815683442FA
:102D1C000FD03D420DD01168890602D41168B94319
:102D2C0011605A6814435C60036B002B1BD09847EE
:102D3C0019E002273C008C40344215D03D4213D0A0
:102D4C001168890606D40A251168A943116001216E
:102D5C00821DD1775A68144300225C60431DDA77D8
:102D6C00C36A9342E3D1F8BD082427008F403E424A
:102D7C00F9D02542F7D00E251468AC43146001221B
:102D8C0015008D4029005C6821435960831DC26386
:102D9C00DA770022431DDA77436BE2E7000002404A
:102DAC000630C07FC0B27047F0B50B6885B0029397
:102DBC0000230191029ADA4001D105B0F0BD012245
:102DCC009A4003920399029A0A40009200D185E03E
:102DDC00019A1021526816008E43022E0ED107253F
:102DEC001D40AD000139A940DC08A4000419276A74
:102DFC008F4301990969A9400F43276203245F009F
:102E0C00BC40E4430568013E2540AC460325154013
:102E1C00BD4061460D430560012E0FD801998668AF
:102E2C00CD682640BD403543856046680399150939
:102E3C008E4301210D409D4035434560C568019985
:102E4C002C408D688021BD4049052C43C4600A424A
:102E5C0044D003260F2422499D081E40AD00F600E5
:102E6C006D18B440A0212F6EC905A74300248842D9
:102E7C000CD01C490134884208D01B4901348842CB
:102E8C0004D01A490334884200D1023CB440009962
:102E9C003C430E002C66164CCD43E76F3E43D103EA
:102EAC0001D43E002E40E667124E009FF46F27437C
:102EBC00910301D42C402700094CF7672768009E2A
:102ECC003E43D10201D43E002E4026606668009F2E
:102EDC003743920201D42E4037006760013369E713
:102EEC00001802400004005000080050000C005074
:102EFC00041802400818024000690840411E88412D
:102F0C00C0B27047002A01D0816170478162FCE732
:102F1C007047000070B5084D0400EB68184202D0F1
:102F2C00E860FFF7F5FF2B69234203D02C612000EA
:102F3C0004F09EF970BDC0460018024003689A69FF
:102F4C00920701D500229A6201229969114202D19D
:102F5C0099690A439A61704770B5049E8905334399
:102F6C00890D194380230468DB00700D1840044B55
:102F7C00656812041843854311432943616070BD91
:102F8C00FF63FF0310B5436B164C0422A34202D01F
:102F9C00154CA34214D10023114200D0B833112296
:102FAC000A40112A01D17F3213431222114091425F
:102FBC0001D14E321343026811680B43136010BDEC
:102FCC000023114200D0B833CA0701D5F2221343B3
:102FDC008A0701D5F4221343122211409142EAD1FF
:102FEC000E32E7E71D3A00083D39000810B5002302
:102FFC00CA0708D5030041331A7828231A401A331C
:10300C00282A00D0B0338A0708D502002824413280
:10301C0012782240A24216D1442213434A0701D50A
:10302C00B822134311220A40112A01D17F321343D3
:10303C0012221140914201D14E32134301680A68A9
:10304C009A430A6010BDF422E7E7F8B504000E00BD
:10305C0017001D002268936933409B1B59424B415A
:10306C00BB4201D0002017E06B1CF4D0FFF796F99F
:10307C00069BC01A854201D3002DEBD12022636C34
:10308C00012013436364230041331A702200002390
:10309C004232403413702370F8BD0000F8B5036859
:1030AC000400986910230E001700184020250028F2
:1030BC0018D1F8BD721C16D0FFF770F9C01B8642F0
:1030CC0001D3002E0ED12022636C134363642300C2
:1030DC0041331A7022000023423240341370012015
:1030EC002370E6E723689A692A42E3D01022200075
:1030FC00DA61DD61FFF722FF2268064953680B4055
:10310C0053600423626C13436364230041331D70CA
:10311C00E0E7C04600E800FEF8B504000D0016001C
:10312C00022723689B693B4201D00020F8BD320086
:10313C0029002000FFF7B2FF002815D16B1CF0D03E
:10314C00FFF72CF9801B854201D3002DE9D12022F9
:10315C00636C13436364230041331A702200002311
:10316C0042324034137023700120DFE773B5140032
:10317C001E00DAB2154B0500009380235B04FFF7A9
:10318C00EBFE079A06992800FFF7C6FF002801D02E
:10319C00012076BD2B68012E0DD1E4B29C62079BF9
:1031AC00002200938021069B2800FFF74EFF431E50
:1031BC009841C0B2EDE7220A9A620699079A280054
:1031CC00FFF7AAFF0028E3D12B68E6E70020008078
:1031DC0070B504000120002C3FD0250041352B7820
:1031EC00DBB2002B05D1220040321370200003F01B
:1031FC005FFD242301212B702368E0681A68A66800
:10320C008A431A6061681A4A0A401A619968194A15
:10321C0011409960012821D1802109023143996024
:10322C005868154901435960D96800200A40DA6092
:10323C00616922690A43A16909020A43DA60216AB9
:10324C00E2690A431A60012219680A431A602023B2
:10325C0060642B7020634234207070BD842109029D
:10326C00314399600228DBD1802109015960D7E7ED
:10327C00FFFFFFF0FF7FFFFF00800002F0B50700AB
:10328C0089B007930EAB069204CB05911B88029272
:10329C00049341373B7804000225202B71D1002A7E
:1032AC0002D0049B002B04D180239B006364012576
:1032BC0067E003689E6980231B021E4061D10300F6
:1032CC0040331A78012A5CD001221A70FFF766F895
:1032DC0021233B702300423303934023039A137042
:1032EC00029B666463626B461B8A6385324BE362A6
:1032FC00324B6363638DFF2B15D9FF23238580230A
:10330C005B040493192301900093069A079B05997B
:10331C002000FFF72BFF270006004037002807D0BE
:10332C0000233B70C3E7638D238580239B04E8E770
:10333C00A06B002828D0224B2268C362214B066365
:10334C0043638663238D28320299FFF757FC051ED1
:10335C0026D1228D0090D2B2049B05992000FFF754
:10336C00FBFD638D228D11219B1A9BB2638520007E
:10337C003D70FFF707FE80232268DB0111680B43C9
:10338C001360280009B0F0BD2300202241331A70CD
:10339C00039B18708023626C13436364387086E758
:1033AC002300202241331A70039B1E701023626C81
:1033BC00134363643E707AE70000FFFF1D3A000878
:1033CC00453B00082D3B0008036810B599691A6845
:1033DC00436B002B00D0984710BD7047704703001B
:1033EC0070B500252022060042331D70013B197870
:1033FC00040040361A7021290AD111234563036356
:10340C002039FFF7F3FD35702000FFF7E6FF70BDA4
:10341C001223456303630221FFF7E8FD357020009A
:10342C00FFF7DCFFF3E770477047030070B500252A
:10343C0042331D70013B1A780400292A0DD1013A40
:10344C001A70212301210363FFF7D0FD23004033C1
:10345C001D702000FFF7E7FF70BD1A782A2AFBD1F8
:10346C00023A1A70222302210363FFF7BFFD2300E7
:10347C0040331D702000FFF7D7FFEDE770470300C6
:10348C00F7B541331A78282304001A400368282A18
:10349C0037D1FE279D699E699A68D968ED03019121
:1034AC00C168360CED0F3E40022921D19205920DD8
:1034BC00D1094E4006210E4010D1816C013181643E
:1034CC00816C022909D106318664D961030040332D
:1034DC001E7029002000FFF7D1FFF7BD0421FFF774
:1034EC0085FD2300002240331A70019A3A40F0E720
:1034FC000421FFF77BFD2300002240331A703200B9
:10350C00E7E70822DA61002340342370E5E77047CF
:10351C00184B10B5C3620023020003630400202083
:10352C0041321070537004226363114212D023682D
:10353C00616A5B6A0B70636A01336362238D002BD3
:10354C0008D0013B2385638D013B9BB26385636C83
:10355C001A43626407212000FFF748FD10222368FC
:10356C002000DA612300002240331A70FFF7CFFFEE
:10357C0010BDC0460000FFFF704770477047000049
:10358C0070B5020005000026423241352B781670CA
:10359C002F4A283BC2624685426C040011434164A9
:1035AC00022B22D80321FFF721FD28232B70294B56
:1035BC002663802263632368D201196811401A685C
:1035CC001ED02549A06B0A401A6000280CD0234B52
:1035DC0000228363230040331A70FFF74FFB00284F
:1035EC0002D0A06B836B984770BD0721FFF7FEFCE0
:1035FC002B78602B01D020232B7000232363D8E77A
:10360C0080200002024011D01A6815480240E06B7D
:10361C001A600028E8D0114B8363230040331970E3
:10362C00FFF72CFB0028DFD0E06BDBE723002978C9
:10363C004033602906D14039297020001A70FFF7F9
:10364C009DFFD1E71A702000FFF797FFCCE7C0462B
:10365C000000FFFF65370008FFBFFFFFED3B0008D0
:10366C00FF7FFFFF2022F8B50400802503680F00C0
:10367C001E680721DA61FFF7B9FC23682D025A682E
:10368C0033492A435A605A6820000A405A60FFF7AF
:10369C0055FC730438D5A36B002B03D01B685B68F7
:1036AC009BB2638504231F4210D09F432368626A38
:1036BC005B6A1370636A01336362238D002B05D040
:1036CC00013B2385638D013B9BB26385638D002B8E
:1036DC0003D00423626C134363642200002325008F
:1036EC00423223631370666C636341359E420FD084
:1036FC00616C2000FFF744FF2B78282B03D1390095
:10370C002000FFF705FFF8BD2E42CBD0E36BC3E7DB
:10371C002700E36A0F4A403793420BD02000FFF793
:10372C0084FE0C4B2000E36220232B703E70FFF7CD
:10373C00EEFEE8E720232A7820002B703E70222A28
:10374C0002D1FFF771FEDEE7FFF76DFEDBE7C04647
:10375C0000E800FE0000FFFFF8B507004037160038
:10376C003A780400C36A0D000220012A21D00122FC
:10377C003A700F3211423BD0164239D0618D00297C
:10378C0028D1220041321178282913D180218904B3
:10379C008B420FD129002000FFF7BAFE20231D42D7
:1037AC0005D01E4203D029002000FFF75BFF00204C
:1037BC003870F8BD102110782268D1612928EDD11C
:1037CC002C488342EAD02000FFF7B8FB2000FFF71B
:1037DC002CFEE3E72168CA610422616C0A4362642F
:1037EC00254A1342DAD1616C2000FFF7C9FED5E7F8
:1037FC00042215421AD0164218D0618D00290ED021
:10380C0095432268616A526A0A70626A0132626286
:10381C00228D013A2285628D013A92B26285628DC7
:10382C00002ABBD1134A9342D0D1B7E708221542E4
:10383C0005D0164203D02000FFF721FEAEE702228E
:10384C001542ABD01642A9D0628D002A0DD0636A06
:10385C0022681978013391626362638D013B9BB2DC
:10386C006385238D013B238598E7034A134200D0DF
:10387C0094E7ABE70000FFFFFFFFFFFE2022036889
:10388C0010B5DA615A680400274802405A600022D9
:10389C0022636263254AE2621022114204D0DA618B
:1038AC000423626C134363642000FFF747FB03217E
:1038BC002000FFF79BFB22004132636C11786029DA
:1038CC0001D0002B04D0616C2000FFF759FE10BD15
:1038DC001178212912D101391170220021004232B4
:1038EC001078403113700B70402803D1200005F084
:1038FC00DDFDECE72000FFF770FDE8E711782229E9
:10390C00E5D1023911702200210042321078403189
:10391C0013700B70402803D12000FFF72DFED6E763
:10392C002000FFF75BFDD2E700E800FE0000FFFF80
:10393C00F8B5050040352B780400C66A0220012B2F
:10394C002DD001232B700F3319424BD01A4249D082
:10395C00C0200002024242D0E06B031E06D00023BE
:10396C00170403D503685B6858424341A06B0028D9
:10397C0005D0520403D502685268002A01D0012BED
:10398C001ED1230041331A78282A09D180229204AF
:10399C00964205D12000FFF7BBFD00202870F8BD32
:1039AC00102219782368DA612929F6D116498E423A
:1039BC00F3D02000FFF7C2FA2000FFF736FDECE74A
:1039CC0010222368DA610423626C134363640F4B87
:1039DC001E42E2D1616C2000FFF7D2FDDDE72268C8
:1039EC00D361DAE70823194205D01A4203D020002C
:1039FC00FFF745FDD1E720231942CED01A42CCD097
:103A0C002000FFF72FFEC8E70000FFFFFFFFFFFEBF
:103A1C0037B5050040352B7804000220012B15D05A
:103A2C0001232B700F33194211D01A420FD0226888
:103A3C002000D361626C0C3B134363641221FFF7CB
:103A4C00A1FA2000FFF77AFA002028703EBD40232F
:103A5C00080644D51A4242D0226811689943116075
:103A6C00638D002B2FD05168638D8905890DFF2B39
:103A7C001BD9FF23238580235B040020228D00901B
:103A8C00D2B22000FFF768FA638D228D9B1A9BB28D
:103A9C006385230041331A7823681968222A0FD1D1
:103AAC00802212020A431A60CEE7638DE26A2385F4
:103ABC001A4B9A4201D0E36ADFE780239B04DCE7D0
:103ACC008022D201EEE753689B0103D42000FFF75C
:103ADC0086FCB9E740212000FFF752FDB4E71942FC
:103AEC0012D01A4210D0638D002BF3D123685A6880
:103AFC009201A9D4E16A094A9142E7D1802259681E
:103B0C00D2010A435A609FE7202319429CD01A42E3
:103B1C0000D199E72000FFF7B1FE95E70000FFFF09
:103B2C008023806A10B502681B0251680B435360F6
:103B3C001021FFF725FD10BD10B5846A11492268CC
:103B4C0013680B401360638D002B04D112212000ED
:103B5C00FFF718FA13E0636A218D5918638D6162BF
:103B6C00FF2B0DD9FF232385238D2832A06BFFF764
:103B7C0045F80028EAD010212000FFF701FD10BD08
:103B8C00638DF0E7FFBFFFFF70B5802503686D0004
:103B9C0099691A68294206D0140604D50124466C8A
:103BAC0034434464DD618025ED00294206D01406BF
:103BBC0004D50824466C34434464DD618024A4009D
:103BCC00214206D0120604D50222416C0A434264FB
:103BDC00DC610B23416C194201D0FFF7D1FC70BDA5
:103BEC000023806A10B5826B9363C26B93630300EE
:103BFC0041331A78602A04D1403A1A70FFF7BEFCA0
:103C0C0010BDFFF7BAFCFBE7F0B504004134227895
:103C1C000300D2B20220202A18D11D0040352E7884
:103C2C00012E13D01B68223020701E682338864367
:103C3C001E601E68064F3E401E601E6831431960B0
:103C4C00196808431860002022702870F0BDC04627
:103C5C00FFEFFFFFF0B5050041352A780300D2B223
:103C6C000220202A17D11C0040342678012E12D0B5
:103C7C001B68223028701E68233886431E601E681D
:103C8C00054F09023E40314319601968084318601A
:103C9C0000202A702070F0BDFFF0FFFF13B5012447
:103CAC00064A116C21431164136C054A234001939D
:103CBC00019B13681843106013BDC04600100240EE
:103CCC000000014010B5104C1049236802000B4055
:103CDC0003432360802300209B009A420CD10C4BA1
:103CEC000C49186806235843FCF72CFA8022431C15
:103CFC00D2006069104000D110BD002B01D0013BF7
:103D0C00F7E70320F8E7C04600700040FFF9FFFF1B
:103D1C000802002040420F00F0B5040085B00028D6
:103D2C0002D1012005B0F0BD0368DB0710D4236875
:103D3C009B075CD423681B0700D5C2E023685B0794
:103D4C0000D5F4E0E269002A00D073E10020E9E735
:103D5C003822AC4DAB681340EA68102B09D1D24322
:103D6C00930708D12B689B03E1D56368002BDED148
:103D7C00D7E7082BF6D0802263685202934211D108
:103D8C002A6813432B60FEF709FB80260700B60256
:103D9C002B683342CBD1FEF701FBC01B6428F7D94B
:103DAC000320BFE7A021C9028B4208D180232968D8
:103DBC00DB020B432B602B681A432A60E3E72A686B
:103DCC0091490A402A602A6890490A402A60002BCF
:103DDC00D9D1FEF7E3FA80260700B6022B683342EE
:103DEC00A5D0FEF7DBFAC01B6428F7D9D8E7382337
:103DFC00844DAA681340EA68102B29D103210A408C
:103E0C00022A27D12A68520503D5E268002A00D17C
:103E1C0087E7696862697E48120201400A436A605A
:103E2C00002B0DD12B687B4A1340226913432B6066
:103E3C002B68794A9B045B0FDA401300774A1360B6
:103E4C00774B1868FEF762FA002800D172E768E732
:103E5C00002BD7D0E368002B20D02B686D4A80262E
:103E6C0013402269F60013432B6080232A685B0001
:103E7C0013432B60FEF792FA07002B68334207D0EE
:103E8C006A68636962491B020A4013436B6051E71D
:103E9C00FEF784FAC01B0228EFD981E72B68614A30
:103EAC00802613402B60FEF779FA0700F6002B688A
:103EBC00334200D13EE7FEF771FAC01B0228F6D957
:103ECC006EE738214F4B9A681D000A40182A08D11A
:103EDC001B6E9B0700D431E7A369002B00D02DE7A4
:103EEC001FE7A2690123002A10D02A6E0226134371
:103EFC002B66FEF753FA07002B6E334200D01DE7FA
:103F0C00FEF74CFAC01B0228F6D949E72A6E0226A6
:103F1C009A432A66FEF742FA07002B6E334200D111
:103F2C000CE7FEF73BFAC01B0228F6D938E738211C
:103F3C00344B9A681D000A40202A08D1DB6D9B0780
:103F4C0000D4FFE6A368002B00D0FBE6E9E6802254
:103F5C00DB6B5205134200D1F6E000238027324E72
:103F6C00009333687F003B4215D0A368012B22D10C
:103F7C00EA6D1343EB65FEF711FA02270600EB6DB1
:103F8C003B4238D0009B012B00D0DBE6EB6B274A81
:103F9C001340EB63D6E633683B433360FEF7FEF920
:103FAC00019033683B42E0D1FEF7F8F9019BC01A4F
:103FBC000228F6D9F4E6EA6D052B05D1013B134333
:103FCC00EB65EA6D0123D4E701218A43EA65EA6DCA
:103FDC0003318A43EA65002BCDD1FEF7DFF90227C6
:103FEC000600EB6D3B42CDD0FEF7D8F9104B801B91
:103FFC009842F6D9D4E6FEF7D1F90D4B801B9842C6
:10400C00BDD9CDE600100240FFFFFEFFFFFFFBFF16
:10401C00FF80FFFFFFC7FFFF0024F4000802002011
:10402C0004000020FFFEFFFF00700040FFFFFFEFC9
:10403C00881300003820494B99681D000140102955
:10404C0054D01B6846490B402B60022A37D1FEF72F
:10405C00A5F980260700B6042B68334229D1616A82
:10406C00236AEA680B433F490A401343E26A13434D
:10407C00226B1343626B1343A26A80241202134314
:10408C00EB6080232A685B0413432B608023EA686F
:10409C005B051343EB60FEF781F90600A4042B6863
:1040AC00234200D052E6FEF779F9801B0228F6D99C
:1040BC0076E6FEF773F9C01B0228CDD970E6032211
:1040CC00EB6880249343EB60EB68274AA40413400D
:1040DC00EB60FEF763F906002B68234200D135E64E
:1040EC00FEF75CF9801B0228F6D959E6012A00D1AB
:1040FC0017E6D8680323226A0340934200D010E6E7
:10410C007023626A0340934200D00AE6FE22A36A3F
:10411C00D20102401B029A4200D002E6F823E26A66
:10412C009B030340934200D0FBE5E023226B1B056D
:10413C000340934200D0F4E5636B400F4007C01A74
:10414C00431E9841C0B2EDE5EB6B1343EB63EB6B95
:10415C0013400393039B012300E7C0460010024069
:10416C00FFFFFFFE8C80C111FFFFFEEE38231F4ABC
:10417C0070B591681400194208D1012113681C48CC
:10418C009B045B0F9940FBF7DDFF70BD91681940F4
:10419C00082925D091681940102915D1D368D16808
:1041AC00DB437F22E5684906490F2D0A0131154092
:1041BC009B0707D10F48FBF7C5FFE1686843490F20
:1041CC000131E0E70A48F6E791681940202909D047
:1041DC00926800201340182BD7D1FA20C001D4E7E5
:1041EC000448D2E780200002CFE7C046001002400E
:1041FC000024F40000127A00F7B505000E00002828
:10420C0001D10120FEBD07274A4C23683B408B425D
:10421C002AD329688B073BD4CB0748D407272368BC
:10422C003B409E420AD22368BB4333432360FEF7D4
:10423C00B5F8019023683B409E426BD12B683E4CF5
:10424C005B076FD4FFF792FFA3683C4A1B051B0F5B
:10425C009B009B581F221340D840394B1860394B98
:10426C001868FEF753F8CDE72368BB430B43236074
:10427C00FEF794F8019023683B409E42C9D0FEF7AC
:10428C008DF8019BC01A304B9842F4D90320B9E742
:10429C00294A4B0704D5E0239068DB010343936064
:1042AC0093682A480340A86803439360B4E76A689C
:1042BC00214F012A19D13B689B03A2D50721BB686A
:1042CC008B431343BB60FEF769F801903823BA683F
:1042DC001A406B68DB009A42A0D0FEF75FF8019B96
:1042EC00C01A194B9842F1D9D0E7022A03D13B6886
:1042FC009B01E3D485E7002A03D13B685B05DDD441
:10430C007FE70223032A03D1396E1942D6D178E70D
:10431C00F96DFAE7FEF742F8019BC01A0A4B984276
:10432C0088D9B3E7A3680A4A1340EA681343A36029
:10433C0088E7C046002002400010024034DA000832
:10434C00080200200400002088130000FFF0FFFF8B
:10435C00FF8FFFFF064B074A9B685B045B0F9B00BC
:10436C009B581F221340044A1068D8407047C0461F
:10437C000010024074DA000808020020F0B50500B5
:10438C002B6885B000209B0350D580226F4C5205C2
:10439C00E36B0090134208D1E36B1343E363E36BCD
:1043AC0013400393039B012300938027684E7F00E7
:1043BC0033683B433360FDF7F1FF019033683B42B8
:1043CC0026D0C023E26D9B0013400FD02A6B934282
:1043DC000CD0E26D5F4BE16D1340802252020A4318
:1043EC00E265E26D5C490A40E265E365DB0707D5EF
:1043FC00FDF7D4FF02270600E36D3B4200D19DE0A0
:10440C00E36D544A002013402A6B1343E36506E026
:10441C00FDF7C4FF019BC01A0228CFD90320009BD3
:10442C00012B03D1E36B4D4A1340E3632B68DA078E
:10443C0006D5032445494A6DA2436C6822434A655C
:10444C009A0706D50C2441494A6DA243AC68224315
:10445C004A659A0606D53D49414C4A6D2240EC68A6
:10446C0022434A659A0506D538493E4C4A6D22408E
:10447C00AC6922434A655A0506D534493A4C4A6D13
:10448C002240EC6922434A655A0606D52F49374C1F
:10449C004A6D22402C6922434A655A040FD52B4998
:1044AC002C6A4A6D9200920822434A658022D205FA
:1044BC00944204D18022CC6852022243CA601A036F
:1044CC0006D5402421494A6DA2436C6A22434A65B1
:1044DC009A020FD51D49264E4A6DAC6A32402243D2
:1044EC004A658022D203944204D18022CC685204C3
:1044FC002243CA605A020DD5144C1E4E616DEA6AF5
:10450C00314011436165802149048A4202D1E1683E
:10451C000A43E2601B050FD50C49174C4B6D6A69B9
:10452C00234013434B658023DB019A4204D1802343
:10453C00CA685B021343CB6005B0F0BDFDF72EFFDC
:10454C000E4B801B984200D856E767E700100240DC
:10455C0000700040FFFCFFFFFFFFFEFFFFFFFFEFBF
:10456C00FFF3FFFFFFFFF3FFFFFFCFFFFFCFFFFFC7
:10457C00FFFFBFFFFFFFFFFEFF3FFFFF88130000A1
:10458C00A0210268F8B5D36804008B43D360FDF713
:10459C0005FFFA2706002025BF002368DB682B42A5
:1045AC0001D00020F8BDFDF7F9FE801BB842F4D90C
:1045BC000320F7E7F8B5402703680500DA68002404
:1045CC003A420CD18022D9680A43DA60FDF7E6FE44
:1045DC0006002B68DB683B4201D1032C01D1200083
:1045EC00F8BDFDF7DBFEFA23801B9B009842F0D947
:1045FC002B00032429331C70EBE70000802270B5DC
:10460C000F4C0500E3689343E360A369603A1342DF
:10461C0007D1FFF7B5FF002802D0032029352870F9
:10462C0070BDA3699343A361FFF7AAFF002802D0D2
:10463C000320293528702023A2691343A361EFE7D7
:10464C000028004070B504000120002C47D0250044
:10465C0029352B78DBB2002B08D1220028321370BD
:10466C0088231B026360200004F0B6FD0223CA22DB
:10467C002B70236820005A62773A5A62FFF79AFF30
:10468C00002825D1236816499A6960690A409A6105
:10469C00A26899690243E06902430A439A6122695C
:1046AC0020001A61E268196912040A431A61FFF7C3
:1046BC00A5FF00280CD12268266A9369DB00DB0871
:1046CC009361636A91693343A66933430B439361E6
:1046DC00FF2223685A62002801D101232B7070BD80
:1046EC00BFFF8FFB0A23020953430F2210401818F7
:1046FC00C0B2704770B50C007F2501688B68636091
:10470C000B695B045B0CA3600B680D490B409802B2
:10471C001E0A2E40800E1D409B0D20706670A570E9
:10472C00E370002A0AD1FFF7DDFF20703000FFF79D
:10473C00D9FF60702800FFF7D5FFA070002070BD76
:10474C007F7F7F0070B53F250C0003680D495B68C7
:10475C000B40180CDE041D401B04F60E5B0FE070C2
:10476C006670A5702370002A0AD1FFF7BBFFE070BA
:10477C003000FFF7B7FF60702800FFF7B3FFA070A1
:10478C00002070BD3FFFFF00F8B504000120002C95
:10479C004BD000232500A3625D352B78DBB2002BB8
:1047AC0005D122005C321370200004F055FD022369
:1047BC00402221682B700B68002093430B60E02390
:1047CC00E268DB009A4231D9F0263601B24233D18D
:1047DC000600206B002803D19A422FD902232363B1
:1047EC00A7686368A0693B4327693B4367693B4300
:1047FC00E7693B43276A3B43A76A3B438027BF00DB
:10480C0007403B430B60636A000C1A43636B1A430B
:10481C0004231840104306434E60CB69084A00201D
:10482C001340CB61012320662B70F8BD80267601E6
:10483C009A42CED0A062CCE70600FBE70123CEE77C
:10484C00FFF7FFFF012203680748D9681143D960BD
:10485C0099680140062905D00738814202D01968B1
:10486C000A431A6000207047070001000121036809
:10487C00DA688A43DA60186A054A104206D1186A67
:10488C00044A104202D11A688A431A600020704709
:10489C0011110000440400007047704770477047C6
:1048AC000222036810B51969040011420ED0D968B0
:1048BC0011420BD0053A1A619B69043202779B07AF
:1048CC0000D186E0FFF7E9FF002323770422236859
:1048DC001969114211D0D96811420ED0093A1A61E6
:1048EC00073222779A69C0239B0020001A4200D11C
:1048FC0075E0FFF7D2FF002323770822236819699C
:10490C0011420ED0D96811420BD0113A1A61DB69F1
:10491C000D32227720009B0767D0FFF7BEFF0023E4
:10492C002377102223681969114210D0D9681142DB
:10493C000DD0213A1A6119322277DA69C0239B0013
:10494C0020001A4257D0FFF7A8FF0023237701223B
:10495C0023681969114207D0D968114204D0033A6F
:10496C001A61200002F036FB80222368196911427B
:10497C0008D0D968114205D0023AFF3A1A612000DA
:10498C0000F0DDF923681A69D20507D5DA6812063A
:10499C0004D51C4A20001A6100F0D2F94022236889
:1049AC001969114207D0D968114204D0813A1A61B1
:1049BC002000FFF774FF202223681969114207D0E9
:1049CC00D968114204D0413A1A61200000F0B6F9BE
:1049DC0010BDFFF761FF2000FFF760FF74E7FFF7E2
:1049EC005BFF2000FFF75AFF85E7FFF755FF20001C
:1049FC00FFF754FF93E7FFF74FFF2000FFF74EFF41
:104A0C00A3E7C046FFFEFFFF3D300078C0B2704701
:104A1C00204A10B50368904206D08024E405A042D9
:104A2C0002D01D4CA0420CD17024A3434C682343EC
:104A3C00904212D08024E405A0420ED0164CA04225
:104A4C000BD0164CA04208D0154CA04205D0154CEA
:104A5C00A04202D0144CA04203D1144C2340CC6889
:104A6C0023438024A3434C69234303608B68C362B4
:104A7C000B688362904208D0094B984205D0094BD1
:104A8C00984202D0084B984201D10B690363012371
:104A9C00436110BD002C0140000400400020004088
:104AAC00004001400044014000480140FFFCFFFF72
:104ABC0070B504000120002C14D025003D352B7856
:104ACC00DBB2002B05D122003C321370200004F025
:104ADC002DFF022320682B70211DFFF799FF012366
:104AEC0000202B7070BD000030B58468034D0A4364
:104AFC001B022C4013432343836030BDFF00FFFF98
:104B0C00F8B5050002233C352A7804001800012A68
:104B1C0016D02600012720683D362F70337083682D
:104B2C003F4A134083600B68402B63D014D8102B82
:104B3C000BD006D8002B08D001230020337028702E
:104B4C00F8BD202B01D0302BF6D1364A81681140AC
:104B5C00072213430B4319E0602B34D018D8502B89
:104B6C00EAD14A68CB68016A046A1B01BC43F0278E
:104B7C0004628469BC4323430A24A1430A4383612E
:104B8C0002628368274A1A40572313438360D3E792
:104B9C00702B0DD0802292019342CDD1CB684A6804
:104BAC008968FFF7A1FF80232268DB01916807E089
:104BBC00CB684A688968FFF797FF7723226891686A
:104BCC000B439360B8E710244B68CA68016A164F10
:104BDC00A1430162846912033C402243A024016A70
:104BEC001B01A1430B438261036283680D4A1A4087
:104BFC006723CAE74A68CB68016A046A1B01BC4395
:104C0C00F02704628469BC4323430A24A1430A436A
:104C1C00836102628368034A1A404723B5E7C046A2
:104C2C008800CEFF8FFFCFFFFF0FFFFF70B5040092
:104C3C0002223C34257803001000012D1AD01D00EF
:104C4C003D352A700C4E1A6853689068B24203D1F5
:104C5C000A4E33404E6833437026B3430E6889685E
:104C6C0033438026B04353600143012300209160FD
:104C7C002B70207070BDC046002C0140FFFF0FFF51
:104C8C0010B504003C34237802000220012B39D0EB
:104C9C00C8681D4B12680340886803431B480340D7
:104CAC00486803431A480340086803431948034003
:104CBC0008690343184803404869034317480340F5
:104CCC00086B0343164803408869000403431548E6
:104CDC00824214D114480340C86903431348184056
:104CEC008B6A1B05034312480340086A03431148AF
:104CFC000340486AC96A03430F4803400B43002032
:104D0C005364207010BDC046FFFCFFFFFFFBFFFF8C
:104D1C00FFF7FFFFFFEFFFFFFFDFFFFFFFBFFFFF0F
:104D2C00FFFFF0FF002C0140FFFFFFEFFFFF0FFF25
:104D3C00FFFFFFFEFFFFFFFDFFFFFFDF7047704728
:104D4C0070470000036807491A680A401A609A689D
:104D5C0005490A409A60030020220833DA670023D1
:104D6C00C3667047DFFEFFFFFEFFFFEF031DDB6F27
:104D7C0010B5212B0DD1010056310A880368002A89
:104D8C0008D180211A688A431A60402219680A43A4
:104D9C001A6010BD046D22880234D205D20D9A62BD
:104DAC0004650B88013B9BB20B80F2E7031DDB6FA4
:104DBC0070B5212B13D10300040080256A331A88A7
:104DCC005634002A0BD021880368002908D19A6830
:104DDC000C490A409A60402219680A431A6070BD57
:104DEC00D96929420AD0066D31880236C905C90D28
:104DFC00996206652388013B9BB22380013A92B2EB
:104E0C00DFE7C046FFFF7FFF031DDB6F10B5212BD3
:104E1C000DD1010056310A880368002A08D180217F
:104E2C001A688A431A60402219680A431A6010BD36
:104E3C00026D147801329C6202650B88013B9BB2B7
:104E4C000B80F4E7031DDB6F70B5212B13D103002E
:104E5C00040080256A331A885634002A0BD0218826
:104E6C000368002908D19A680B490A409A604022CD
:104E7C0019680A431A6070BDD969294208D0016DBE
:104E8C000E7801319E6201652388013B9BB2238021
:104E9C00013A92B2E1E7C046FFFF7FFFF0B5061D75
:104EAC00F46F03000220202C37D10138002934D0B4
:104EBC00002A32D080249D686401A54204D11C696B
:104ECC00002C01D1014228D11C007C34277802200F
:104EDC00012F22D0013820701965190054310A8035
:104EEC004A80002234311A670A602132F26780202E
:104EFC0080225E6E800552011968864210D195425F
:104F0C000CD11A69002A09D10D4A1A678023002096
:104F1C008A681B04134320708B60F0BD094AF4E7C8
:104F2C0095420BD11A69002A08D1074A1A678023C7
:104F3C0000200A68207013430B60EEE7034AF5E784
:104F4C00B94D0008514E0008794D0008154E000867
:104F5C00F0B506000836F46F03000220202C51D166
:104F6C00013800294ED0002A4CD080259C686D0158
:104F7C00AC4204D11D69002D01D1014242D11D006A
:104F8C007C352F780220012F3CD001382870996590
:104F9C001900002080275C310A804A807F01D86686
:104FAC000431BC4231D1186900282CD12848088022
:104FBC0019000020883108602221F167196801303E
:104FCC008E685F6E3043886080268020B605400175
:104FDC00B7422CD11E0068363688964227D88442B8
:104FEC0023D11A69002A20D11A4ADA6680230020BC
:104FFC000A685B00134328700B6080238A685B058A
:10500C0013438B60F0BDFF20D1E7002C04D118694D
:10501C000028F8D07F20CAE780277F05BC42C6D184
:10502C0018690028F6D03F20C1E70B4ADDE784421F
:10503C000CD11A69002A09D1084ADA66902300209B
:10504C000A685B00134328700B60DBE7044AF4E743
:10505C00FF010000E151000835510008D55000084F
:10506C007150000870B504000834E26F0368222AFE
:10507C0023D1020060325B6A12881340826D137078
:10508C000200836D5E32013383651388013B9BB252
:10509C00138013889BB2002B0ED10268094D116846
:1050AC002940116091682335FF35A9439160202276
:1050BC00E267C36602F0F4F870BD082299690A43EE
:1050CC009A61F9E7DFFEFFFF01000831CA6F70B586
:1050DC000368222A21D1050060355C6A2D88826D17
:1050EC002C4014800400023282655E342288013A1E
:1050FC0092B22280228892B2002A0DD11C68094DEE
:10510C002C401C609C682335FF35AC439C602023ED
:10511C00CB67C26602F0C4F870BD082299690A43D5
:10512C009A61F9E7DFFEFFFFF7B507000837FB6F61
:10513C000400222B40D10300060060331B88683624
:10514C000193358822005E32002D12D113889BB258
:10515C00002B0DD032889A420AD9236819499A68D3
:10516C000A409A60184A1968E26620220A431A60BB
:10517C00F7BD236801995B6A0B40A16D0B70A36DA1
:10518C000133A3651388013B9BB2138013889BB238
:10519C00002B0ED122680D481168014011609168F6
:1051AC000B480140916020222000FA67E36602F070
:1051BC0077F8013DADB2C5E70823026891690B434E
:1051CC009361D5E7FFFFFFEF71500008FFFEFFFF73
:1051DC00FEFFFFEFF7B507000837FB6F0400222B2B
:1051EC0040D10300060060331B8868360193358874
:1051FC0021005E31002D12D10B889BB2002B0DD0FB
:10520C0032889A420AD9236819499A680A409A60E6
:10521C00184A1968E26620220A431A60F7BDA26D8B
:10522C0023689446586A019A1040624610800232F4
:10523C00A2650A88013A92B20A800A8892B2002AC0
:10524C000DD119680C480140196099680B48014050
:10525C00996020232000FB67E26602F021F8013DF3
:10526C00ADB2C5E70823026891690B439361D5E79A
:10527C00FFFFFFEFD5500008FFFEFFFFFEFFFFEF23
:10528C0070470000F7B502680400D3691168906894
:10529C001D070DD120252B4200D180E0294202D1DF
:1052AC00C50000D47BE0E36E2000002B6DD16DE0D7
:1052BC00554D0540009504D12135FF35294200D1CB
:1052CC006DE0250001268835334205D0CF0503D586
:1052DC0016622F683E432E60022633420CD0C7075D
:1052EC000AD52700166288373E680197B446042613
:1052FC0067463E43019F3E60042633420CD0C707ED
:10530C000AD52700166288373E680197B4460226F4
:10531C0067463E43019F3E601E0709D58E0602D4A8
:10532C00009E002E04D0082616622A6816432E60B2
:10533C002A68002A2AD02022134208D0114201D117
:10534C00C30004D5E36E002B01D0200098472368DE
:10535C002E689B6820005B0602D408231E401AD0DE
:10536C00FFF7F0FC402123689A680A420FD09A6834
:10537C00A06F8A439A60002809D0244B8363FDF701
:10538C007DFC002802D0A06F836B9847F7BD2000EE
:10539C00FFF776FFFAE7FFF773FF2E60F6E780253D
:1053AC006D032B4206D0460204D51562200000F096
:1053BC0095FDEBE780252B4205D0294201D1000257
:1053CC0001D5236F70E7402003420DD001420BD072
:1053DC001368834313602022231DDA670023200007
:1053EC00236702F001F8D1E71A0205D54A0003D56C
:1053FC00200000F075FDC9E7DB01C7D50029C5DA2F
:10540C00200000F06CFDC1E7010000101D540008E5
:10541C00806A0023020010B55E321380083A1380B4
:10542C00FFF72EFF10BD0000F8B504000268C1693B
:10543C0083680069656E0343606903430B4310681E
:10544C002B43A44D2840034313605368A248A34D3B
:10545C000340E06803435360A069AA4201D0236A69
:10546C00184393689E4E33400F2603439360D06AD3
:10547C00636AB0431843D0629A48824217D1032022
:10548C00994A526D02409948805C802212029142E6
:10549C0000D089E208282BD8FAF74AFE7D032A00AF
:1054AC001A022A004E022A002A002A0051029048B1
:1054BC00824205D10C208C4A526D02408D48E3E7A4
:1054CC008D48824200D161E38C48824200D15DE379
:1054DC001020AA42D9D1C0218020834A0901526DE3
:1054EC00C0000A40824200D19CE00DD8002A4ED068
:1054FC000122210001236A310B8002390B80002329
:10550C001000E3662367F8BD8020000182426ED054
:10551C008A42EDD1002B00D1C7E0012B00D1C7E0AE
:10552C00022B00D1C8E0032B00D1C8E0042B00D122
:10553C00C7E0052B00D1C7E0062B00D1C6E08021C7
:10554C00072B00D1C4E0082B00D1F7E0092B00D1C8
:10555C00F6E00A2B00D1F5E00B2B00D0A6E0033BC4
:10556C000320626850438842C2D810038842BFD3DC
:10557C00082B00D9A9E11800FAF7DAFDE600A7011B
:10558C003801A7016E01A701A701A7017101FEF760
:10559C00E1FE636A0121002B21D04918012B1ED09A
:1055AC000231022B1BD00231032B18D00231042BF9
:1055BC0015D00231052B12D00231062B0FD004313D
:1055CC00072B0CD01031082B09D02031092B06D019
:1055DC0040310A2B03D07F390B2B00D1FF31FAF766
:1055EC00B1FD0023010000229142B9D181E7002BCB
:1055FC0059D0012B43D0022B43D0032B43D0042B87
:10560C0043D0052B43D0062B43D0072B43D0082B7C
:10561C0043D0092B43D00A2B43D00B2B43D1384911
:10562C0002239DE7FEF7A2FD636A0121002B21D026
:10563C004918012B1ED00231022B1BD00231032B37
:10564C0018D00231042B15D00231052B12D00231A7
:10565C00062B0FD00431072B0CD01031082B09D09E
:10566C002031092B06D040310A2B03D07F390B2B6C
:10567C0000D1FF31FAF766FD04230100B3E721499D
:10568C00CEE721496CE72149CAE72149C8E72149FE
:10569C00C6E72149C4E72149C2E72149C0E72149AE
:1056AC00BEE72149BCE72149BAE78021090201E0A4
:1056BC008021C901082353E780218901FAE71C499D
:1056CC00F8E780214901F5E71A49F3E71A49F1E7B0
:1056DC000901EFE7F369FFCFFFCFFFFF0080004028
:1056EC00FFF4FF110038014000100240BCC000085C
:1056FC0000440040C0C0000800480040004C00407E
:10570C0024F4000000127A0000093D00AAB0280021
:10571C0080841E00006A18005558140040420F0087
:10572C0020A1070090D0030048E801000024F400F9
:10573C0055150000CC0C0000AA0A0000C9000FE7A8
:10574C008900B7E74900B5E7FEF704FE616A01225C
:10575C00002300292ED00222002301292AD0042262
:10576C000023022926D006220023032922D0082256
:10577C00002304291ED00A22002305291AD00C224A
:10578C000023062916D010220023072912D020222C
:10579C00002308290ED04022002309290AD0802298
:1057AC0000230A2906D0012200230B2902D18022D2
:1057BC00002352000021FAF779FE00276568060ED7
:1057CC000B02334302026E0892197B411000190040
:1057DC002A003B00FAF76AFE3A00964B9649C3182A
:1057EC008B4200D984E62368D86082E6636A002B7A
:1057FC0030D0012B1AD0022B1AD0032B1AD0042B29
:10580C001AD0052B1AD0062B1AD0072B1AD0082B1E
:10581C001AD0092B1AD00A2B1AD00B2B1AD1874865
:10582C0000210027560880197941D2E78448F7E710
:10583C008448F5E78448F3E78448F1E78448EFE7C8
:10584C008448EDE78448EBE78448E9E78448E7E7D8
:10585C008448E5E78448E3E7FEF788FC76E7636A6B
:10586C00002B18D0012B19D0022B1AD0032B1BD0D4
:10587C00042B1BD0052B1CD0062B1CD08020072BF7
:10588C001BD0082B1BD0092B1BD00A2B1BD00B2B8E
:10589C0002D10002C4E780200004C1E78020C003CD
:1058AC00BEE780208003BBE77048B9E78020400347
:1058BC00B6E76F48B4E76F48B2E70003B0E7C00241
:1058CC00AEE78002ACE74002AAE70122002084E7A1
:1058DC00002B2FD0012B19D0022B19D0032B19D050
:1058EC00042B19D0052B19D0062B19D0072B19D046
:1058FC00082B19D0092B19D00A2B19D00B2B19D125
:10590C005D48636861685B08181873E14B48F8E7F9
:10591C005A48F6E75A48F4E75A48F2E75A48F0E78B
:10592C005A48EEE75A48ECE75A48EAE75A48E8E79B
:10593C005A48E6E74B48E4E7FEF718FC2DE1002B4C
:10594C0018D0012B19D0022B1AD0032B1BD0042BEF
:10595C001BD0052B1CD0062B1CD08020072B1BD05A
:10596C00082B1BD0092B1BD00A2B1BD00B2B02D1C5
:10597C004000C6E780204002C3E780200002C0E759
:10598C008020C001BDE74648BBE780208001B8E716
:10599C004448B6E74448B4E74001B2E70001B0E739
:1059AC00C000AEE78000ACE7082800D9EBE0FAF7BE
:1059BC00B5FB05EA7FEAB3EAEAEAB600FEF7CAFCF1
:1059CC00636A0121002B21D04918012B1ED0023112
:1059DC00022B1BD00231032B18D00231042B15D013
:1059EC000231052B12D00231062B0FD00431072BBC
:1059FC000CD01031082B09D02031092B06D04031A6
:105A0C000A2B03D07F390B2B00D1FF316568FAF7D5
:105A1C0099FB29006B08C018FAF794FB002283B29B
:105A2C00190022481039814200D961E52168CB6008
:105A3C005FE5C04600FDFFFFFFFC0F000024F400F3
:105A4C000000127A0000093D00AAB0280080841ED4
:105A5C0000006A18005558140040420F0020A1079E
:105A6C000090D0030048E801000024F40055150014
:105A7C0000CC0C0000AA0A0048E8010000127A00D1
:105A8C005461510000093D0000D43000AAB0280038
:105A9C0080841E0040420F0020A1070090D003001C
:105AAC00AA2A00009819000054150000EFFF00000E
:105ABC00002B2FD0012B19D0022B19D0032B19D06E
:105ACC00042B19D0052B19D0062B19D0072B19D064
